{
	"contracts/SimpleSwap.sol": {
		"SimpleSwap": {
			"abi": [
				{
					"anonymous": false,
					"inputs": [
						{
							"indexed": true,
							"internalType": "address",
							"name": "user",
							"type": "address"
						},
						{
							"indexed": false,
							"internalType": "uint256",
							"name": "amountA",
							"type": "uint256"
						},
						{
							"indexed": false,
							"internalType": "uint256",
							"name": "amountB",
							"type": "uint256"
						},
						{
							"indexed": false,
							"internalType": "uint256",
							"name": "liquidity",
							"type": "uint256"
						}
					],
					"name": "LiquidityAdded",
					"type": "event"
				},
				{
					"anonymous": false,
					"inputs": [
						{
							"indexed": true,
							"internalType": "address",
							"name": "user",
							"type": "address"
						},
						{
							"indexed": false,
							"internalType": "uint256",
							"name": "amountA",
							"type": "uint256"
						},
						{
							"indexed": false,
							"internalType": "uint256",
							"name": "amountB",
							"type": "uint256"
						},
						{
							"indexed": false,
							"internalType": "uint256",
							"name": "liquidity",
							"type": "uint256"
						}
					],
					"name": "LiquidityRemoved",
					"type": "event"
				},
				{
					"anonymous": false,
					"inputs": [
						{
							"indexed": true,
							"internalType": "address",
							"name": "user",
							"type": "address"
						},
						{
							"indexed": false,
							"internalType": "address",
							"name": "tokenIn",
							"type": "address"
						},
						{
							"indexed": false,
							"internalType": "address",
							"name": "tokenOut",
							"type": "address"
						},
						{
							"indexed": false,
							"internalType": "uint256",
							"name": "amountIn",
							"type": "uint256"
						},
						{
							"indexed": false,
							"internalType": "uint256",
							"name": "amountOut",
							"type": "uint256"
						}
					],
					"name": "Swap",
					"type": "event"
				},
				{
					"inputs": [
						{
							"internalType": "address",
							"name": "_tokenA",
							"type": "address"
						},
						{
							"internalType": "address",
							"name": "_tokenB",
							"type": "address"
						},
						{
							"internalType": "uint256",
							"name": "amountADesired",
							"type": "uint256"
						},
						{
							"internalType": "uint256",
							"name": "amountBDesired",
							"type": "uint256"
						},
						{
							"internalType": "uint256",
							"name": "amountAMin",
							"type": "uint256"
						},
						{
							"internalType": "uint256",
							"name": "amountBMin",
							"type": "uint256"
						},
						{
							"internalType": "address",
							"name": "to",
							"type": "address"
						},
						{
							"internalType": "uint256",
							"name": "deadline",
							"type": "uint256"
						}
					],
					"name": "addLiquidity",
					"outputs": [
						{
							"internalType": "uint256",
							"name": "amountA",
							"type": "uint256"
						},
						{
							"internalType": "uint256",
							"name": "amountB",
							"type": "uint256"
						},
						{
							"internalType": "uint256",
							"name": "liquidity",
							"type": "uint256"
						}
					],
					"stateMutability": "nonpayable",
					"type": "function"
				},
				{
					"inputs": [
						{
							"internalType": "address",
							"name": "",
							"type": "address"
						}
					],
					"name": "balanceOf",
					"outputs": [
						{
							"internalType": "uint256",
							"name": "",
							"type": "uint256"
						}
					],
					"stateMutability": "view",
					"type": "function"
				},
				{
					"inputs": [
						{
							"internalType": "address",
							"name": "_tokenIn",
							"type": "address"
						},
						{
							"internalType": "address",
							"name": "_tokenOut",
							"type": "address"
						},
						{
							"internalType": "uint256",
							"name": "amountIn",
							"type": "uint256"
						}
					],
					"name": "getAmountOut",
					"outputs": [
						{
							"internalType": "uint256",
							"name": "amountOut",
							"type": "uint256"
						}
					],
					"stateMutability": "view",
					"type": "function"
				},
				{
					"inputs": [
						{
							"internalType": "address",
							"name": "_tokenA",
							"type": "address"
						},
						{
							"internalType": "address",
							"name": "_tokenB",
							"type": "address"
						}
					],
					"name": "getPrice",
					"outputs": [
						{
							"internalType": "uint256",
							"name": "price",
							"type": "uint256"
						}
					],
					"stateMutability": "view",
					"type": "function"
				},
				{
					"inputs": [],
					"name": "getReserves",
					"outputs": [
						{
							"internalType": "uint256",
							"name": "_reserveA",
							"type": "uint256"
						},
						{
							"internalType": "uint256",
							"name": "_reserveB",
							"type": "uint256"
						}
					],
					"stateMutability": "view",
					"type": "function"
				},
				{
					"inputs": [
						{
							"internalType": "address",
							"name": "_tokenA",
							"type": "address"
						},
						{
							"internalType": "address",
							"name": "_tokenB",
							"type": "address"
						}
					],
					"name": "initialize",
					"outputs": [],
					"stateMutability": "nonpayable",
					"type": "function"
				},
				{
					"inputs": [
						{
							"internalType": "address",
							"name": "_tokenA",
							"type": "address"
						},
						{
							"internalType": "address",
							"name": "_tokenB",
							"type": "address"
						},
						{
							"internalType": "uint256",
							"name": "liquidity",
							"type": "uint256"
						},
						{
							"internalType": "uint256",
							"name": "amountAMin",
							"type": "uint256"
						},
						{
							"internalType": "uint256",
							"name": "amountBMin",
							"type": "uint256"
						},
						{
							"internalType": "address",
							"name": "to",
							"type": "address"
						},
						{
							"internalType": "uint256",
							"name": "deadline",
							"type": "uint256"
						}
					],
					"name": "removeLiquidity",
					"outputs": [
						{
							"internalType": "uint256",
							"name": "amountA",
							"type": "uint256"
						},
						{
							"internalType": "uint256",
							"name": "amountB",
							"type": "uint256"
						}
					],
					"stateMutability": "nonpayable",
					"type": "function"
				},
				{
					"inputs": [],
					"name": "reserveA",
					"outputs": [
						{
							"internalType": "uint256",
							"name": "",
							"type": "uint256"
						}
					],
					"stateMutability": "view",
					"type": "function"
				},
				{
					"inputs": [],
					"name": "reserveB",
					"outputs": [
						{
							"internalType": "uint256",
							"name": "",
							"type": "uint256"
						}
					],
					"stateMutability": "view",
					"type": "function"
				},
				{
					"inputs": [
						{
							"internalType": "uint256",
							"name": "amountIn",
							"type": "uint256"
						},
						{
							"internalType": "uint256",
							"name": "amountOutMin",
							"type": "uint256"
						},
						{
							"internalType": "address[]",
							"name": "path",
							"type": "address[]"
						},
						{
							"internalType": "address",
							"name": "to",
							"type": "address"
						},
						{
							"internalType": "uint256",
							"name": "deadline",
							"type": "uint256"
						}
					],
					"name": "swapExactTokensForTokens",
					"outputs": [],
					"stateMutability": "nonpayable",
					"type": "function"
				},
				{
					"inputs": [],
					"name": "tokenA",
					"outputs": [
						{
							"internalType": "address",
							"name": "",
							"type": "address"
						}
					],
					"stateMutability": "view",
					"type": "function"
				},
				{
					"inputs": [],
					"name": "tokenB",
					"outputs": [
						{
							"internalType": "address",
							"name": "",
							"type": "address"
						}
					],
					"stateMutability": "view",
					"type": "function"
				},
				{
					"inputs": [],
					"name": "totalSupply",
					"outputs": [
						{
							"internalType": "uint256",
							"name": "",
							"type": "uint256"
						}
					],
					"stateMutability": "view",
					"type": "function"
				}
			],
			"devdoc": {
				"details": "Implements basic functionality",
				"kind": "dev",
				"methods": {
					"addLiquidity(address,address,uint256,uint256,uint256,uint256,address,uint256)": {
						"params": {
							"_tokenA": "Address of token A",
							"_tokenB": "Address of token B",
							"amountADesired": "Desired amount of token A",
							"amountAMin": "Minimum amount of token A",
							"amountBDesired": "Desired amount of token B",
							"amountBMin": "Minimum amount of token B",
							"deadline": "Time limit for the transaction",
							"to": "Address that receives the liquidity tokens"
						},
						"returns": {
							"amountA": "Actual amount of token A added",
							"amountB": "Actual amount of token B added",
							"liquidity": "Liquidity tokens minted"
						}
					},
					"getAmountOut(address,address,uint256)": {
						"params": {
							"_tokenIn": "Address of input token",
							"_tokenOut": "Address of output token",
							"amountIn": "Amount of input tokens"
						},
						"returns": {
							"amountOut": "Amount of output tokens to receive"
						}
					},
					"getPrice(address,address)": {
						"params": {
							"_tokenA": "Address of token A",
							"_tokenB": "Address of token B"
						},
						"returns": {
							"price": "Price of token A in terms of token B (scaled by 1e18)"
						}
					},
					"getReserves()": {
						"returns": {
							"_reserveA": "Reserve of token A",
							"_reserveB": "Reserve of token B"
						}
					},
					"initialize(address,address)": {
						"params": {
							"_tokenA": "Address of token A",
							"_tokenB": "Address of token B"
						}
					},
					"removeLiquidity(address,address,uint256,uint256,uint256,address,uint256)": {
						"params": {
							"_tokenA": "Address of token A",
							"_tokenB": "Address of token B",
							"amountAMin": "Minimum amount of token A to receive",
							"amountBMin": "Minimum amount of token B to receive",
							"deadline": "Time limit for the transaction",
							"liquidity": "Amount of liquidity tokens to burn",
							"to": "Address that receives the tokens"
						},
						"returns": {
							"amountA": "Amount of token A received",
							"amountB": "Amount of token B received"
						}
					},
					"swapExactTokensForTokens(uint256,uint256,address[],address,uint256)": {
						"params": {
							"amountIn": "Amount of input tokens",
							"amountOutMin": "Minimum amount of output tokens",
							"deadline": "Time limit for the transaction",
							"path": "Array of token addresses [tokenIn, tokenOut]",
							"to": "Address that receives the output tokens"
						}
					}
				},
				"title": "SimpleSwap",
				"version": 1
			},
			"evm": {
				"assembly": "    /* \"contracts/SimpleSwap.sol\":664:13215  contract SimpleSwap {... */\n  mstore(0x40, 0x80)\n  callvalue\n  dup1\n  iszero\n  tag_1\n  jumpi\n  revert(0x00, 0x00)\ntag_1:\n  pop\n  dataSize(sub_0)\n  dup1\n  dataOffset(sub_0)\n  0x00\n  codecopy\n  0x00\n  return\nstop\n\nsub_0: assembly {\n        /* \"contracts/SimpleSwap.sol\":664:13215  contract SimpleSwap {... */\n      mstore(0x40, 0x80)\n      callvalue\n      dup1\n      iszero\n      tag_1\n      jumpi\n      revert(0x00, 0x00)\n    tag_1:\n      pop\n      jumpi(tag_2, lt(calldatasize, 0x04))\n      shr(0xe0, calldataload(0x00))\n      dup1\n      0x4aa06652\n      gt\n      tag_16\n      jumpi\n      dup1\n      0xac41865a\n      gt\n      tag_17\n      jumpi\n      dup1\n      0xac41865a\n      eq\n      tag_12\n      jumpi\n      dup1\n      0xbaa2abde\n      eq\n      tag_13\n      jumpi\n      dup1\n      0xdc5fa6c5\n      eq\n      tag_14\n      jumpi\n      dup1\n      0xe8e33700\n      eq\n      tag_15\n      jumpi\n      jump(tag_2)\n    tag_17:\n      dup1\n      0x4aa06652\n      eq\n      tag_9\n      jumpi\n      dup1\n      0x5f64b55b\n      eq\n      tag_10\n      jumpi\n      dup1\n      0x70a08231\n      eq\n      tag_11\n      jumpi\n      jump(tag_2)\n    tag_16:\n      dup1\n      0x0902f1ac\n      eq\n      tag_3\n      jumpi\n      dup1\n      0x0fc63d10\n      eq\n      tag_4\n      jumpi\n      dup1\n      0x18160ddd\n      eq\n      tag_5\n      jumpi\n      dup1\n      0x19e36f3b\n      eq\n      tag_6\n      jumpi\n      dup1\n      0x38ed1739\n      eq\n      tag_7\n      jumpi\n      dup1\n      0x485cc955\n      eq\n      tag_8\n      jumpi\n    tag_2:\n      revert(0x00, 0x00)\n        /* \"contracts/SimpleSwap.sol\":10945:11096  function getReserves() external view returns (uint256 _reserveA, uint256 _reserveB) {... */\n    tag_3:\n      tag_18\n      tag_19\n      jump\t// in\n    tag_18:\n      mload(0x40)\n      tag_20\n      swap3\n      swap2\n      swap1\n      tag_21\n      jump\t// in\n    tag_20:\n      mload(0x40)\n      dup1\n      swap2\n      sub\n      swap1\n      return\n        /* \"contracts/SimpleSwap.sol\":738:759  address public tokenA */\n    tag_4:\n      tag_22\n      tag_23\n      jump\t// in\n    tag_22:\n      mload(0x40)\n      tag_24\n      swap2\n      swap1\n      tag_25\n      jump\t// in\n    tag_24:\n      mload(0x40)\n      dup1\n      swap2\n      sub\n      swap1\n      return\n        /* \"contracts/SimpleSwap.sol\":850:876  uint256 public totalSupply */\n    tag_5:\n      tag_26\n      tag_27\n      jump\t// in\n    tag_26:\n      mload(0x40)\n      tag_28\n      swap2\n      swap1\n      tag_29\n      jump\t// in\n    tag_28:\n      mload(0x40)\n      dup1\n      swap2\n      sub\n      swap1\n      return\n        /* \"contracts/SimpleSwap.sol\":821:844  uint256 public reserveB */\n    tag_6:\n      tag_30\n      tag_31\n      jump\t// in\n    tag_30:\n      mload(0x40)\n      tag_32\n      swap2\n      swap1\n      tag_29\n      jump\t// in\n    tag_32:\n      mload(0x40)\n      dup1\n      swap2\n      sub\n      swap1\n      return\n        /* \"contracts/SimpleSwap.sol\":6594:8153  function swapExactTokensForTokens(... */\n    tag_7:\n      tag_33\n      0x04\n      dup1\n      calldatasize\n      sub\n      dup2\n      add\n      swap1\n      tag_34\n      swap2\n      swap1\n      tag_35\n      jump\t// in\n    tag_34:\n      tag_36\n      jump\t// in\n    tag_33:\n      stop\n        /* \"contracts/SimpleSwap.sol\":1513:1844  function initialize(address _tokenA, address _tokenB) external {... */\n    tag_8:\n      tag_37\n      0x04\n      dup1\n      calldatasize\n      sub\n      dup2\n      add\n      swap1\n      tag_38\n      swap2\n      swap1\n      tag_39\n      jump\t// in\n    tag_38:\n      tag_40\n      jump\t// in\n    tag_37:\n      stop\n        /* \"contracts/SimpleSwap.sol\":8457:9323  function getAmountOut(... */\n    tag_9:\n      tag_41\n      0x04\n      dup1\n      calldatasize\n      sub\n      dup2\n      add\n      swap1\n      tag_42\n      swap2\n      swap1\n      tag_43\n      jump\t// in\n    tag_42:\n      tag_44\n      jump\t// in\n    tag_41:\n      mload(0x40)\n      tag_45\n      swap2\n      swap1\n      tag_29\n      jump\t// in\n    tag_45:\n      mload(0x40)\n      dup1\n      swap2\n      sub\n      swap1\n      return\n        /* \"contracts/SimpleSwap.sol\":765:786  address public tokenB */\n    tag_10:\n      tag_46\n      tag_47\n      jump\t// in\n    tag_46:\n      mload(0x40)\n      tag_48\n      swap2\n      swap1\n      tag_25\n      jump\t// in\n    tag_48:\n      mload(0x40)\n      dup1\n      swap2\n      sub\n      swap1\n      return\n        /* \"contracts/SimpleSwap.sol\":887:931  mapping(address => uint256) public balanceOf */\n    tag_11:\n      tag_49\n      0x04\n      dup1\n      calldatasize\n      sub\n      dup2\n      add\n      swap1\n      tag_50\n      swap2\n      swap1\n      tag_51\n      jump\t// in\n    tag_50:\n      tag_52\n      jump\t// in\n    tag_49:\n      mload(0x40)\n      tag_53\n      swap2\n      swap1\n      tag_29\n      jump\t// in\n    tag_53:\n      mload(0x40)\n      dup1\n      swap2\n      sub\n      swap1\n      return\n        /* \"contracts/SimpleSwap.sol\":10390:10794  function getPrice(address _tokenA, address _tokenB) external view returns (uint256 price) {... */\n    tag_12:\n      tag_54\n      0x04\n      dup1\n      calldatasize\n      sub\n      dup2\n      add\n      swap1\n      tag_55\n      swap2\n      swap1\n      tag_39\n      jump\t// in\n    tag_55:\n      tag_56\n      jump\t// in\n    tag_54:\n      mload(0x40)\n      tag_57\n      swap2\n      swap1\n      tag_29\n      jump\t// in\n    tag_57:\n      mload(0x40)\n      dup1\n      swap2\n      sub\n      swap1\n      return\n        /* \"contracts/SimpleSwap.sol\":4954:6217  function removeLiquidity(... */\n    tag_13:\n      tag_58\n      0x04\n      dup1\n      calldatasize\n      sub\n      dup2\n      add\n      swap1\n      tag_59\n      swap2\n      swap1\n      tag_60\n      jump\t// in\n    tag_59:\n      tag_61\n      jump\t// in\n    tag_58:\n      mload(0x40)\n      tag_62\n      swap3\n      swap2\n      swap1\n      tag_21\n      jump\t// in\n    tag_62:\n      mload(0x40)\n      dup1\n      swap2\n      sub\n      swap1\n      return\n        /* \"contracts/SimpleSwap.sol\":792:815  uint256 public reserveA */\n    tag_14:\n      tag_63\n      tag_64\n      jump\t// in\n    tag_63:\n      mload(0x40)\n      tag_65\n      swap2\n      swap1\n      tag_29\n      jump\t// in\n    tag_65:\n      mload(0x40)\n      dup1\n      swap2\n      sub\n      swap1\n      return\n        /* \"contracts/SimpleSwap.sol\":2477:4411  function addLiquidity(... */\n    tag_15:\n      tag_66\n      0x04\n      dup1\n      calldatasize\n      sub\n      dup2\n      add\n      swap1\n      tag_67\n      swap2\n      swap1\n      tag_68\n      jump\t// in\n    tag_67:\n      tag_69\n      jump\t// in\n    tag_66:\n      mload(0x40)\n      tag_70\n      swap4\n      swap3\n      swap2\n      swap1\n      tag_71\n      jump\t// in\n    tag_70:\n      mload(0x40)\n      dup1\n      swap2\n      sub\n      swap1\n      return\n        /* \"contracts/SimpleSwap.sol\":10945:11096  function getReserves() external view returns (uint256 _reserveA, uint256 _reserveB) {... */\n    tag_19:\n        /* \"contracts/SimpleSwap.sol\":10991:11008  uint256 _reserveA */\n      0x00\n        /* \"contracts/SimpleSwap.sol\":11010:11027  uint256 _reserveB */\n      0x00\n        /* \"contracts/SimpleSwap.sol\":11051:11059  reserveA */\n      sload(0x02)\n        /* \"contracts/SimpleSwap.sol\":11039:11059  _reserveA = reserveA */\n      swap2\n      pop\n        /* \"contracts/SimpleSwap.sol\":11081:11089  reserveB */\n      sload(0x03)\n        /* \"contracts/SimpleSwap.sol\":11069:11089  _reserveB = reserveB */\n      swap1\n      pop\n        /* \"contracts/SimpleSwap.sol\":10945:11096  function getReserves() external view returns (uint256 _reserveA, uint256 _reserveB) {... */\n      swap1\n      swap2\n      jump\t// out\n        /* \"contracts/SimpleSwap.sol\":738:759  address public tokenA */\n    tag_23:\n      0x00\n      0x00\n      swap1\n      sload\n      swap1\n      0x0100\n      exp\n      swap1\n      div\n      0xffffffffffffffffffffffffffffffffffffffff\n      and\n      dup2\n      jump\t// out\n        /* \"contracts/SimpleSwap.sol\":850:876  uint256 public totalSupply */\n    tag_27:\n      sload(0x04)\n      dup2\n      jump\t// out\n        /* \"contracts/SimpleSwap.sol\":821:844  uint256 public reserveB */\n    tag_31:\n      sload(0x03)\n      dup2\n      jump\t// out\n        /* \"contracts/SimpleSwap.sol\":6594:8153  function swapExactTokensForTokens(... */\n    tag_36:\n        /* \"contracts/SimpleSwap.sol\":6815:6823  deadline */\n      dup1\n        /* \"contracts/SimpleSwap.sol\":6796:6811  block.timestamp */\n      timestamp\n        /* \"contracts/SimpleSwap.sol\":6796:6823  block.timestamp <= deadline */\n      gt\n      iszero\n        /* \"contracts/SimpleSwap.sol\":6788:6847  require(block.timestamp <= deadline, \"Transaction expired\") */\n      tag_74\n      jumpi\n      mload(0x40)\n      0x08c379a000000000000000000000000000000000000000000000000000000000\n      dup2\n      mstore\n      0x04\n      add\n      tag_75\n      swap1\n      tag_76\n      jump\t// in\n    tag_75:\n      mload(0x40)\n      dup1\n      swap2\n      sub\n      swap1\n      revert\n    tag_74:\n        /* \"contracts/SimpleSwap.sol\":6876:6877  0 */\n      0x00\n        /* \"contracts/SimpleSwap.sol\":6865:6873  amountIn */\n      dup7\n        /* \"contracts/SimpleSwap.sol\":6865:6877  amountIn > 0 */\n      gt\n        /* \"contracts/SimpleSwap.sol\":6857:6895  require(amountIn > 0, \"Invalid input\") */\n      tag_77\n      jumpi\n      mload(0x40)\n      0x08c379a000000000000000000000000000000000000000000000000000000000\n      dup2\n      mstore\n      0x04\n      add\n      tag_78\n      swap1\n      tag_79\n      jump\t// in\n    tag_78:\n      mload(0x40)\n      dup1\n      swap2\n      sub\n      swap1\n      revert\n    tag_77:\n        /* \"contracts/SimpleSwap.sol\":6928:6929  2 */\n      0x02\n        /* \"contracts/SimpleSwap.sol\":6913:6917  path */\n      dup5\n      dup5\n        /* \"contracts/SimpleSwap.sol\":6913:6924  path.length */\n      swap1\n      pop\n        /* \"contracts/SimpleSwap.sol\":6913:6929  path.length == 2 */\n      eq\n        /* \"contracts/SimpleSwap.sol\":6905:6946  require(path.length == 2, \"Invalid path\") */\n      tag_80\n      jumpi\n      mload(0x40)\n      0x08c379a000000000000000000000000000000000000000000000000000000000\n      dup2\n      mstore\n      0x04\n      add\n      tag_81\n      swap1\n      tag_82\n      jump\t// in\n    tag_81:\n      mload(0x40)\n      dup1\n      swap2\n      sub\n      swap1\n      revert\n    tag_80:\n        /* \"contracts/SimpleSwap.sol\":6978:6979  0 */\n      0x00\n        /* \"contracts/SimpleSwap.sol\":6964:6980  to != address(0) */\n      0xffffffffffffffffffffffffffffffffffffffff\n      and\n        /* \"contracts/SimpleSwap.sol\":6964:6966  to */\n      dup3\n        /* \"contracts/SimpleSwap.sol\":6964:6980  to != address(0) */\n      0xffffffffffffffffffffffffffffffffffffffff\n      and\n      sub\n        /* \"contracts/SimpleSwap.sol\":6956:6997  require(to != address(0), \"Zero address\") */\n      tag_83\n      jumpi\n      mload(0x40)\n      0x08c379a000000000000000000000000000000000000000000000000000000000\n      dup2\n      mstore\n      0x04\n      add\n      tag_84\n      swap1\n      tag_85\n      jump\t// in\n    tag_84:\n      mload(0x40)\n      dup1\n      swap2\n      sub\n      swap1\n      revert\n    tag_83:\n        /* \"contracts/SimpleSwap.sol\":7016:7031  address tokenIn */\n      0x00\n        /* \"contracts/SimpleSwap.sol\":7034:7038  path */\n      dup5\n      dup5\n        /* \"contracts/SimpleSwap.sol\":7039:7040  0 */\n      0x00\n        /* \"contracts/SimpleSwap.sol\":7034:7041  path[0] */\n      dup2\n      dup2\n      lt\n      tag_86\n      jumpi\n      tag_87\n      tag_88\n      jump\t// in\n    tag_87:\n    tag_86:\n      swap1\n      pop\n      0x20\n      mul\n      add\n      0x20\n      dup2\n      add\n      swap1\n      tag_89\n      swap2\n      swap1\n      tag_51\n      jump\t// in\n    tag_89:\n        /* \"contracts/SimpleSwap.sol\":7016:7041  address tokenIn = path[0] */\n      swap1\n      pop\n        /* \"contracts/SimpleSwap.sol\":7051:7067  address tokenOut */\n      0x00\n        /* \"contracts/SimpleSwap.sol\":7070:7074  path */\n      dup6\n      dup6\n        /* \"contracts/SimpleSwap.sol\":7075:7076  1 */\n      0x01\n        /* \"contracts/SimpleSwap.sol\":7070:7077  path[1] */\n      dup2\n      dup2\n      lt\n      tag_90\n      jumpi\n      tag_91\n      tag_88\n      jump\t// in\n    tag_91:\n    tag_90:\n      swap1\n      pop\n      0x20\n      mul\n      add\n      0x20\n      dup2\n      add\n      swap1\n      tag_92\n      swap2\n      swap1\n      tag_51\n      jump\t// in\n    tag_92:\n        /* \"contracts/SimpleSwap.sol\":7051:7077  address tokenOut = path[1] */\n      swap1\n      pop\n        /* \"contracts/SimpleSwap.sol\":7115:7121  tokenA */\n      0x00\n      0x00\n      swap1\n      sload\n      swap1\n      0x0100\n      exp\n      swap1\n      div\n      0xffffffffffffffffffffffffffffffffffffffff\n      and\n        /* \"contracts/SimpleSwap.sol\":7104:7121  tokenIn == tokenA */\n      0xffffffffffffffffffffffffffffffffffffffff\n      and\n        /* \"contracts/SimpleSwap.sol\":7104:7111  tokenIn */\n      dup3\n        /* \"contracts/SimpleSwap.sol\":7104:7121  tokenIn == tokenA */\n      0xffffffffffffffffffffffffffffffffffffffff\n      and\n      eq\n        /* \"contracts/SimpleSwap.sol\":7104:7142  tokenIn == tokenA || tokenIn == tokenB */\n      dup1\n      tag_93\n      jumpi\n      pop\n        /* \"contracts/SimpleSwap.sol\":7136:7142  tokenB */\n      0x01\n      0x00\n      swap1\n      sload\n      swap1\n      0x0100\n      exp\n      swap1\n      div\n      0xffffffffffffffffffffffffffffffffffffffff\n      and\n        /* \"contracts/SimpleSwap.sol\":7125:7142  tokenIn == tokenB */\n      0xffffffffffffffffffffffffffffffffffffffff\n      and\n        /* \"contracts/SimpleSwap.sol\":7125:7132  tokenIn */\n      dup3\n        /* \"contracts/SimpleSwap.sol\":7125:7142  tokenIn == tokenB */\n      0xffffffffffffffffffffffffffffffffffffffff\n      and\n      eq\n        /* \"contracts/SimpleSwap.sol\":7104:7142  tokenIn == tokenA || tokenIn == tokenB */\n    tag_93:\n        /* \"contracts/SimpleSwap.sol\":7096:7160  require(tokenIn == tokenA || tokenIn == tokenB, \"Invalid token\") */\n      tag_94\n      jumpi\n      mload(0x40)\n      0x08c379a000000000000000000000000000000000000000000000000000000000\n      dup2\n      mstore\n      0x04\n      add\n      tag_95\n      swap1\n      tag_96\n      jump\t// in\n    tag_95:\n      mload(0x40)\n      dup1\n      swap2\n      sub\n      swap1\n      revert\n    tag_94:\n        /* \"contracts/SimpleSwap.sol\":7190:7196  tokenA */\n      0x00\n      0x00\n      swap1\n      sload\n      swap1\n      0x0100\n      exp\n      swap1\n      div\n      0xffffffffffffffffffffffffffffffffffffffff\n      and\n        /* \"contracts/SimpleSwap.sol\":7178:7196  tokenOut == tokenA */\n      0xffffffffffffffffffffffffffffffffffffffff\n      and\n        /* \"contracts/SimpleSwap.sol\":7178:7186  tokenOut */\n      dup2\n        /* \"contracts/SimpleSwap.sol\":7178:7196  tokenOut == tokenA */\n      0xffffffffffffffffffffffffffffffffffffffff\n      and\n      eq\n        /* \"contracts/SimpleSwap.sol\":7178:7218  tokenOut == tokenA || tokenOut == tokenB */\n      dup1\n      tag_97\n      jumpi\n      pop\n        /* \"contracts/SimpleSwap.sol\":7212:7218  tokenB */\n      0x01\n      0x00\n      swap1\n      sload\n      swap1\n      0x0100\n      exp\n      swap1\n      div\n      0xffffffffffffffffffffffffffffffffffffffff\n      and\n        /* \"contracts/SimpleSwap.sol\":7200:7218  tokenOut == tokenB */\n      0xffffffffffffffffffffffffffffffffffffffff\n      and\n        /* \"contracts/SimpleSwap.sol\":7200:7208  tokenOut */\n      dup2\n        /* \"contracts/SimpleSwap.sol\":7200:7218  tokenOut == tokenB */\n      0xffffffffffffffffffffffffffffffffffffffff\n      and\n      eq\n        /* \"contracts/SimpleSwap.sol\":7178:7218  tokenOut == tokenA || tokenOut == tokenB */\n    tag_97:\n        /* \"contracts/SimpleSwap.sol\":7170:7236  require(tokenOut == tokenA || tokenOut == tokenB, \"Invalid token\") */\n      tag_98\n      jumpi\n      mload(0x40)\n      0x08c379a000000000000000000000000000000000000000000000000000000000\n      dup2\n      mstore\n      0x04\n      add\n      tag_99\n      swap1\n      tag_96\n      jump\t// in\n    tag_99:\n      mload(0x40)\n      dup1\n      swap2\n      sub\n      swap1\n      revert\n    tag_98:\n        /* \"contracts/SimpleSwap.sol\":7265:7273  tokenOut */\n      dup1\n        /* \"contracts/SimpleSwap.sol\":7254:7273  tokenIn != tokenOut */\n      0xffffffffffffffffffffffffffffffffffffffff\n      and\n        /* \"contracts/SimpleSwap.sol\":7254:7261  tokenIn */\n      dup3\n        /* \"contracts/SimpleSwap.sol\":7254:7273  tokenIn != tokenOut */\n      0xffffffffffffffffffffffffffffffffffffffff\n      and\n      sub\n        /* \"contracts/SimpleSwap.sol\":7246:7289  require(tokenIn != tokenOut, \"Same tokens\") */\n      tag_100\n      jumpi\n      mload(0x40)\n      0x08c379a000000000000000000000000000000000000000000000000000000000\n      dup2\n      mstore\n      0x04\n      add\n      tag_101\n      swap1\n      tag_102\n      jump\t// in\n    tag_101:\n      mload(0x40)\n      dup1\n      swap2\n      sub\n      swap1\n      revert\n    tag_100:\n        /* \"contracts/SimpleSwap.sol\":7338:7355  uint256 reserveIn */\n      0x00\n        /* \"contracts/SimpleSwap.sol\":7369:7375  tokenA */\n      0x00\n      0x00\n      swap1\n      sload\n      swap1\n      0x0100\n      exp\n      swap1\n      div\n      0xffffffffffffffffffffffffffffffffffffffff\n      and\n        /* \"contracts/SimpleSwap.sol\":7358:7375  tokenIn == tokenA */\n      0xffffffffffffffffffffffffffffffffffffffff\n      and\n        /* \"contracts/SimpleSwap.sol\":7358:7365  tokenIn */\n      dup4\n        /* \"contracts/SimpleSwap.sol\":7358:7375  tokenIn == tokenA */\n      0xffffffffffffffffffffffffffffffffffffffff\n      and\n      eq\n        /* \"contracts/SimpleSwap.sol\":7358:7397  tokenIn == tokenA ? reserveA : reserveB */\n      tag_103\n      jumpi\n        /* \"contracts/SimpleSwap.sol\":7389:7397  reserveB */\n      sload(0x03)\n        /* \"contracts/SimpleSwap.sol\":7358:7397  tokenIn == tokenA ? reserveA : reserveB */\n      jump(tag_104)\n    tag_103:\n        /* \"contracts/SimpleSwap.sol\":7378:7386  reserveA */\n      sload(0x02)\n        /* \"contracts/SimpleSwap.sol\":7358:7397  tokenIn == tokenA ? reserveA : reserveB */\n    tag_104:\n        /* \"contracts/SimpleSwap.sol\":7338:7397  uint256 reserveIn = tokenIn == tokenA ? reserveA : reserveB */\n      swap1\n      pop\n        /* \"contracts/SimpleSwap.sol\":7407:7425  uint256 reserveOut */\n      0x00\n        /* \"contracts/SimpleSwap.sol\":7439:7445  tokenA */\n      0x00\n      0x00\n      swap1\n      sload\n      swap1\n      0x0100\n      exp\n      swap1\n      div\n      0xffffffffffffffffffffffffffffffffffffffff\n      and\n        /* \"contracts/SimpleSwap.sol\":7428:7445  tokenIn == tokenA */\n      0xffffffffffffffffffffffffffffffffffffffff\n      and\n        /* \"contracts/SimpleSwap.sol\":7428:7435  tokenIn */\n      dup5\n        /* \"contracts/SimpleSwap.sol\":7428:7445  tokenIn == tokenA */\n      0xffffffffffffffffffffffffffffffffffffffff\n      and\n      eq\n        /* \"contracts/SimpleSwap.sol\":7428:7467  tokenIn == tokenA ? reserveB : reserveA */\n      tag_105\n      jumpi\n        /* \"contracts/SimpleSwap.sol\":7459:7467  reserveA */\n      sload(0x02)\n        /* \"contracts/SimpleSwap.sol\":7428:7467  tokenIn == tokenA ? reserveB : reserveA */\n      jump(tag_106)\n    tag_105:\n        /* \"contracts/SimpleSwap.sol\":7448:7456  reserveB */\n      sload(0x03)\n        /* \"contracts/SimpleSwap.sol\":7428:7467  tokenIn == tokenA ? reserveB : reserveA */\n    tag_106:\n        /* \"contracts/SimpleSwap.sol\":7407:7467  uint256 reserveOut = tokenIn == tokenA ? reserveB : reserveA */\n      swap1\n      pop\n        /* \"contracts/SimpleSwap.sol\":7538:7555  uint256 amountOut */\n      0x00\n        /* \"contracts/SimpleSwap.sol\":7558:7604  _getAmountOut(amountIn, reserveIn, reserveOut) */\n      tag_107\n        /* \"contracts/SimpleSwap.sol\":7572:7580  amountIn */\n      dup12\n        /* \"contracts/SimpleSwap.sol\":7582:7591  reserveIn */\n      dup5\n        /* \"contracts/SimpleSwap.sol\":7593:7603  reserveOut */\n      dup5\n        /* \"contracts/SimpleSwap.sol\":7558:7571  _getAmountOut */\n      tag_108\n        /* \"contracts/SimpleSwap.sol\":7558:7604  _getAmountOut(amountIn, reserveIn, reserveOut) */\n      jump\t// in\n    tag_107:\n        /* \"contracts/SimpleSwap.sol\":7538:7604  uint256 amountOut = _getAmountOut(amountIn, reserveIn, reserveOut) */\n      swap1\n      pop\n        /* \"contracts/SimpleSwap.sol\":7635:7647  amountOutMin */\n      dup10\n        /* \"contracts/SimpleSwap.sol\":7622:7631  amountOut */\n      dup2\n        /* \"contracts/SimpleSwap.sol\":7622:7647  amountOut >= amountOutMin */\n      lt\n      iszero\n        /* \"contracts/SimpleSwap.sol\":7614:7671  require(amountOut >= amountOutMin, \"Insufficient output\") */\n      tag_109\n      jumpi\n      mload(0x40)\n      0x08c379a000000000000000000000000000000000000000000000000000000000\n      dup2\n      mstore\n      0x04\n      add\n      tag_110\n      swap1\n      tag_111\n      jump\t// in\n    tag_110:\n      mload(0x40)\n      dup1\n      swap2\n      sub\n      swap1\n      revert\n    tag_109:\n        /* \"contracts/SimpleSwap.sol\":7724:7731  tokenIn */\n      dup5\n        /* \"contracts/SimpleSwap.sol\":7717:7745  IERC20(tokenIn).transferFrom */\n      0xffffffffffffffffffffffffffffffffffffffff\n      and\n      0x23b872dd\n        /* \"contracts/SimpleSwap.sol\":7746:7756  msg.sender */\n      caller\n        /* \"contracts/SimpleSwap.sol\":7766:7770  this */\n      address\n        /* \"contracts/SimpleSwap.sol\":7773:7781  amountIn */\n      dup15\n        /* \"contracts/SimpleSwap.sol\":7717:7782  IERC20(tokenIn).transferFrom(msg.sender, address(this), amountIn) */\n      mload(0x40)\n      dup5\n      0xffffffff\n      and\n      0xe0\n      shl\n      dup2\n      mstore\n      0x04\n      add\n      tag_112\n      swap4\n      swap3\n      swap2\n      swap1\n      tag_113\n      jump\t// in\n    tag_112:\n      0x20\n      mload(0x40)\n      dup1\n      dup4\n      sub\n      dup2\n      0x00\n      dup8\n      gas\n      call\n      iszero\n      dup1\n      iszero\n      tag_115\n      jumpi\n      returndatacopy(0x00, 0x00, returndatasize)\n      revert(0x00, returndatasize)\n    tag_115:\n      pop\n      pop\n      pop\n      pop\n      mload(0x40)\n      returndatasize\n      not(0x1f)\n      0x1f\n      dup3\n      add\n      and\n      dup3\n      add\n      dup1\n      0x40\n      mstore\n      pop\n      dup2\n      add\n      swap1\n      tag_116\n      swap2\n      swap1\n      tag_117\n      jump\t// in\n    tag_116:\n      pop\n        /* \"contracts/SimpleSwap.sol\":7799:7807  tokenOut */\n      dup4\n        /* \"contracts/SimpleSwap.sol\":7792:7817  IERC20(tokenOut).transfer */\n      0xffffffffffffffffffffffffffffffffffffffff\n      and\n      0xa9059cbb\n        /* \"contracts/SimpleSwap.sol\":7818:7820  to */\n      dup9\n        /* \"contracts/SimpleSwap.sol\":7822:7831  amountOut */\n      dup4\n        /* \"contracts/SimpleSwap.sol\":7792:7832  IERC20(tokenOut).transfer(to, amountOut) */\n      mload(0x40)\n      dup4\n      0xffffffff\n      and\n      0xe0\n      shl\n      dup2\n      mstore\n      0x04\n      add\n      tag_118\n      swap3\n      swap2\n      swap1\n      tag_119\n      jump\t// in\n    tag_118:\n      0x20\n      mload(0x40)\n      dup1\n      dup4\n      sub\n      dup2\n      0x00\n      dup8\n      gas\n      call\n      iszero\n      dup1\n      iszero\n      tag_121\n      jumpi\n      returndatacopy(0x00, 0x00, returndatasize)\n      revert(0x00, returndatasize)\n    tag_121:\n      pop\n      pop\n      pop\n      pop\n      mload(0x40)\n      returndatasize\n      not(0x1f)\n      0x1f\n      dup3\n      add\n      and\n      dup3\n      add\n      dup1\n      0x40\n      mstore\n      pop\n      dup2\n      add\n      swap1\n      tag_122\n      swap2\n      swap1\n      tag_117\n      jump\t// in\n    tag_122:\n      pop\n        /* \"contracts/SimpleSwap.sol\":7893:7899  tokenA */\n      0x00\n      0x00\n      swap1\n      sload\n      swap1\n      0x0100\n      exp\n      swap1\n      div\n      0xffffffffffffffffffffffffffffffffffffffff\n      and\n        /* \"contracts/SimpleSwap.sol\":7882:7899  tokenIn == tokenA */\n      0xffffffffffffffffffffffffffffffffffffffff\n      and\n        /* \"contracts/SimpleSwap.sol\":7882:7889  tokenIn */\n      dup6\n        /* \"contracts/SimpleSwap.sol\":7882:7899  tokenIn == tokenA */\n      0xffffffffffffffffffffffffffffffffffffffff\n      and\n      sub\n        /* \"contracts/SimpleSwap.sol\":7878:8067  if (tokenIn == tokenA) {... */\n      tag_123\n      jumpi\n        /* \"contracts/SimpleSwap.sol\":7927:7935  amountIn */\n      dup11\n        /* \"contracts/SimpleSwap.sol\":7915:7923  reserveA */\n      0x02\n      0x00\n        /* \"contracts/SimpleSwap.sol\":7915:7935  reserveA += amountIn */\n      dup3\n      dup3\n      sload\n      tag_124\n      swap2\n      swap1\n      tag_125\n      jump\t// in\n    tag_124:\n      swap3\n      pop\n      pop\n      dup2\n      swap1\n      sstore\n      pop\n        /* \"contracts/SimpleSwap.sol\":7961:7970  amountOut */\n      dup1\n        /* \"contracts/SimpleSwap.sol\":7949:7957  reserveB */\n      0x03\n      0x00\n        /* \"contracts/SimpleSwap.sol\":7949:7970  reserveB -= amountOut */\n      dup3\n      dup3\n      sload\n      tag_126\n      swap2\n      swap1\n      tag_127\n      jump\t// in\n    tag_126:\n      swap3\n      pop\n      pop\n      dup2\n      swap1\n      sstore\n      pop\n        /* \"contracts/SimpleSwap.sol\":7878:8067  if (tokenIn == tokenA) {... */\n      jump(tag_128)\n    tag_123:\n        /* \"contracts/SimpleSwap.sol\":8013:8021  amountIn */\n      dup11\n        /* \"contracts/SimpleSwap.sol\":8001:8009  reserveB */\n      0x03\n      0x00\n        /* \"contracts/SimpleSwap.sol\":8001:8021  reserveB += amountIn */\n      dup3\n      dup3\n      sload\n      tag_129\n      swap2\n      swap1\n      tag_125\n      jump\t// in\n    tag_129:\n      swap3\n      pop\n      pop\n      dup2\n      swap1\n      sstore\n      pop\n        /* \"contracts/SimpleSwap.sol\":8047:8056  amountOut */\n      dup1\n        /* \"contracts/SimpleSwap.sol\":8035:8043  reserveA */\n      0x02\n      0x00\n        /* \"contracts/SimpleSwap.sol\":8035:8056  reserveA -= amountOut */\n      dup3\n      dup3\n      sload\n      tag_130\n      swap2\n      swap1\n      tag_127\n      jump\t// in\n    tag_130:\n      swap3\n      pop\n      pop\n      dup2\n      swap1\n      sstore\n      pop\n        /* \"contracts/SimpleSwap.sol\":7878:8067  if (tokenIn == tokenA) {... */\n    tag_128:\n        /* \"contracts/SimpleSwap.sol\":8095:8105  msg.sender */\n      caller\n        /* \"contracts/SimpleSwap.sol\":8090:8146  Swap(msg.sender, tokenIn, tokenOut, amountIn, amountOut) */\n      0xffffffffffffffffffffffffffffffffffffffff\n      and\n      0xcd3829a3813dc3cdd188fd3d01dcf3268c16be2fdd2dd21d0665418816e46062\n        /* \"contracts/SimpleSwap.sol\":8107:8114  tokenIn */\n      dup7\n        /* \"contracts/SimpleSwap.sol\":8116:8124  tokenOut */\n      dup7\n        /* \"contracts/SimpleSwap.sol\":8126:8134  amountIn */\n      dup15\n        /* \"contracts/SimpleSwap.sol\":8136:8145  amountOut */\n      dup6\n        /* \"contracts/SimpleSwap.sol\":8090:8146  Swap(msg.sender, tokenIn, tokenOut, amountIn, amountOut) */\n      mload(0x40)\n      tag_131\n      swap5\n      swap4\n      swap3\n      swap2\n      swap1\n      tag_132\n      jump\t// in\n    tag_131:\n      mload(0x40)\n      dup1\n      swap2\n      sub\n      swap1\n      log2\n        /* \"contracts/SimpleSwap.sol\":6778:8153  {... */\n      pop\n      pop\n      pop\n      pop\n      pop\n        /* \"contracts/SimpleSwap.sol\":6594:8153  function swapExactTokensForTokens(... */\n      pop\n      pop\n      pop\n      pop\n      pop\n      pop\n      jump\t// out\n        /* \"contracts/SimpleSwap.sol\":1513:1844  function initialize(address _tokenA, address _tokenB) external {... */\n    tag_40:\n        /* \"contracts/SimpleSwap.sol\":1612:1613  0 */\n      0x00\n        /* \"contracts/SimpleSwap.sol\":1594:1614  tokenA == address(0) */\n      0xffffffffffffffffffffffffffffffffffffffff\n      and\n        /* \"contracts/SimpleSwap.sol\":1594:1600  tokenA */\n      0x00\n      0x00\n      swap1\n      sload\n      swap1\n      0x0100\n      exp\n      swap1\n      div\n      0xffffffffffffffffffffffffffffffffffffffff\n      and\n        /* \"contracts/SimpleSwap.sol\":1594:1614  tokenA == address(0) */\n      0xffffffffffffffffffffffffffffffffffffffff\n      and\n      eq\n        /* \"contracts/SimpleSwap.sol\":1586:1638  require(tokenA == address(0), \"Already initialized\") */\n      tag_134\n      jumpi\n      mload(0x40)\n      0x08c379a000000000000000000000000000000000000000000000000000000000\n      dup2\n      mstore\n      0x04\n      add\n      tag_135\n      swap1\n      tag_136\n      jump\t// in\n    tag_135:\n      mload(0x40)\n      dup1\n      swap2\n      sub\n      swap1\n      revert\n    tag_134:\n        /* \"contracts/SimpleSwap.sol\":1667:1674  _tokenB */\n      dup1\n        /* \"contracts/SimpleSwap.sol\":1656:1674  _tokenA != _tokenB */\n      0xffffffffffffffffffffffffffffffffffffffff\n      and\n        /* \"contracts/SimpleSwap.sol\":1656:1663  _tokenA */\n      dup3\n        /* \"contracts/SimpleSwap.sol\":1656:1674  _tokenA != _tokenB */\n      0xffffffffffffffffffffffffffffffffffffffff\n      and\n      sub\n        /* \"contracts/SimpleSwap.sol\":1648:1695  require(_tokenA != _tokenB, \"Identical tokens\") */\n      tag_137\n      jumpi\n      mload(0x40)\n      0x08c379a000000000000000000000000000000000000000000000000000000000\n      dup2\n      mstore\n      0x04\n      add\n      tag_138\n      swap1\n      tag_139\n      jump\t// in\n    tag_138:\n      mload(0x40)\n      dup1\n      swap2\n      sub\n      swap1\n      revert\n    tag_137:\n        /* \"contracts/SimpleSwap.sol\":1732:1733  0 */\n      0x00\n        /* \"contracts/SimpleSwap.sol\":1713:1734  _tokenA != address(0) */\n      0xffffffffffffffffffffffffffffffffffffffff\n      and\n        /* \"contracts/SimpleSwap.sol\":1713:1720  _tokenA */\n      dup3\n        /* \"contracts/SimpleSwap.sol\":1713:1734  _tokenA != address(0) */\n      0xffffffffffffffffffffffffffffffffffffffff\n      and\n      eq\n      iszero\n        /* \"contracts/SimpleSwap.sol\":1713:1759  _tokenA != address(0) && _tokenB != address(0) */\n      dup1\n      iszero\n      tag_140\n      jumpi\n      pop\n        /* \"contracts/SimpleSwap.sol\":1757:1758  0 */\n      0x00\n        /* \"contracts/SimpleSwap.sol\":1738:1759  _tokenB != address(0) */\n      0xffffffffffffffffffffffffffffffffffffffff\n      and\n        /* \"contracts/SimpleSwap.sol\":1738:1745  _tokenB */\n      dup2\n        /* \"contracts/SimpleSwap.sol\":1738:1759  _tokenB != address(0) */\n      0xffffffffffffffffffffffffffffffffffffffff\n      and\n      eq\n      iszero\n        /* \"contracts/SimpleSwap.sol\":1713:1759  _tokenA != address(0) && _tokenB != address(0) */\n    tag_140:\n        /* \"contracts/SimpleSwap.sol\":1705:1776  require(_tokenA != address(0) && _tokenB != address(0), \"Zero address\") */\n      tag_141\n      jumpi\n      mload(0x40)\n      0x08c379a000000000000000000000000000000000000000000000000000000000\n      dup2\n      mstore\n      0x04\n      add\n      tag_142\n      swap1\n      tag_85\n      jump\t// in\n    tag_142:\n      mload(0x40)\n      dup1\n      swap2\n      sub\n      swap1\n      revert\n    tag_141:\n        /* \"contracts/SimpleSwap.sol\":1804:1811  _tokenA */\n      dup2\n        /* \"contracts/SimpleSwap.sol\":1795:1801  tokenA */\n      0x00\n      0x00\n        /* \"contracts/SimpleSwap.sol\":1795:1811  tokenA = _tokenA */\n      0x0100\n      exp\n      dup2\n      sload\n      dup2\n      0xffffffffffffffffffffffffffffffffffffffff\n      mul\n      not\n      and\n      swap1\n      dup4\n      0xffffffffffffffffffffffffffffffffffffffff\n      and\n      mul\n      or\n      swap1\n      sstore\n      pop\n        /* \"contracts/SimpleSwap.sol\":1830:1837  _tokenB */\n      dup1\n        /* \"contracts/SimpleSwap.sol\":1821:1827  tokenB */\n      0x01\n      0x00\n        /* \"contracts/SimpleSwap.sol\":1821:1837  tokenB = _tokenB */\n      0x0100\n      exp\n      dup2\n      sload\n      dup2\n      0xffffffffffffffffffffffffffffffffffffffff\n      mul\n      not\n      and\n      swap1\n      dup4\n      0xffffffffffffffffffffffffffffffffffffffff\n      and\n      mul\n      or\n      swap1\n      sstore\n      pop\n        /* \"contracts/SimpleSwap.sol\":1513:1844  function initialize(address _tokenA, address _tokenB) external {... */\n      pop\n      pop\n      jump\t// out\n        /* \"contracts/SimpleSwap.sol\":8457:9323  function getAmountOut(... */\n    tag_44:\n        /* \"contracts/SimpleSwap.sol\":8585:8602  uint256 amountOut */\n      0x00\n        /* \"contracts/SimpleSwap.sol\":8633:8634  0 */\n      0x00\n        /* \"contracts/SimpleSwap.sol\":8622:8630  amountIn */\n      dup3\n        /* \"contracts/SimpleSwap.sol\":8622:8634  amountIn > 0 */\n      gt\n        /* \"contracts/SimpleSwap.sol\":8614:8652  require(amountIn > 0, \"Invalid input\") */\n      tag_144\n      jumpi\n      mload(0x40)\n      0x08c379a000000000000000000000000000000000000000000000000000000000\n      dup2\n      mstore\n      0x04\n      add\n      tag_145\n      swap1\n      tag_79\n      jump\t// in\n    tag_145:\n      mload(0x40)\n      dup1\n      swap2\n      sub\n      swap1\n      revert\n    tag_144:\n        /* \"contracts/SimpleSwap.sol\":8682:8688  tokenA */\n      0x00\n      0x00\n      swap1\n      sload\n      swap1\n      0x0100\n      exp\n      swap1\n      div\n      0xffffffffffffffffffffffffffffffffffffffff\n      and\n        /* \"contracts/SimpleSwap.sol\":8670:8688  _tokenIn == tokenA */\n      0xffffffffffffffffffffffffffffffffffffffff\n      and\n        /* \"contracts/SimpleSwap.sol\":8670:8678  _tokenIn */\n      dup5\n        /* \"contracts/SimpleSwap.sol\":8670:8688  _tokenIn == tokenA */\n      0xffffffffffffffffffffffffffffffffffffffff\n      and\n      eq\n        /* \"contracts/SimpleSwap.sol\":8670:8710  _tokenIn == tokenA || _tokenIn == tokenB */\n      dup1\n      tag_146\n      jumpi\n      pop\n        /* \"contracts/SimpleSwap.sol\":8704:8710  tokenB */\n      0x01\n      0x00\n      swap1\n      sload\n      swap1\n      0x0100\n      exp\n      swap1\n      div\n      0xffffffffffffffffffffffffffffffffffffffff\n      and\n        /* \"contracts/SimpleSwap.sol\":8692:8710  _tokenIn == tokenB */\n      0xffffffffffffffffffffffffffffffffffffffff\n      and\n        /* \"contracts/SimpleSwap.sol\":8692:8700  _tokenIn */\n      dup5\n        /* \"contracts/SimpleSwap.sol\":8692:8710  _tokenIn == tokenB */\n      0xffffffffffffffffffffffffffffffffffffffff\n      and\n      eq\n        /* \"contracts/SimpleSwap.sol\":8670:8710  _tokenIn == tokenA || _tokenIn == tokenB */\n    tag_146:\n        /* \"contracts/SimpleSwap.sol\":8662:8728  require(_tokenIn == tokenA || _tokenIn == tokenB, \"Invalid token\") */\n      tag_147\n      jumpi\n      mload(0x40)\n      0x08c379a000000000000000000000000000000000000000000000000000000000\n      dup2\n      mstore\n      0x04\n      add\n      tag_148\n      swap1\n      tag_96\n      jump\t// in\n    tag_148:\n      mload(0x40)\n      dup1\n      swap2\n      sub\n      swap1\n      revert\n    tag_147:\n        /* \"contracts/SimpleSwap.sol\":8759:8765  tokenA */\n      0x00\n      0x00\n      swap1\n      sload\n      swap1\n      0x0100\n      exp\n      swap1\n      div\n      0xffffffffffffffffffffffffffffffffffffffff\n      and\n        /* \"contracts/SimpleSwap.sol\":8746:8765  _tokenOut == tokenA */\n      0xffffffffffffffffffffffffffffffffffffffff\n      and\n        /* \"contracts/SimpleSwap.sol\":8746:8755  _tokenOut */\n      dup4\n        /* \"contracts/SimpleSwap.sol\":8746:8765  _tokenOut == tokenA */\n      0xffffffffffffffffffffffffffffffffffffffff\n      and\n      eq\n        /* \"contracts/SimpleSwap.sol\":8746:8788  _tokenOut == tokenA || _tokenOut == tokenB */\n      dup1\n      tag_149\n      jumpi\n      pop\n        /* \"contracts/SimpleSwap.sol\":8782:8788  tokenB */\n      0x01\n      0x00\n      swap1\n      sload\n      swap1\n      0x0100\n      exp\n      swap1\n      div\n      0xffffffffffffffffffffffffffffffffffffffff\n      and\n        /* \"contracts/SimpleSwap.sol\":8769:8788  _tokenOut == tokenB */\n      0xffffffffffffffffffffffffffffffffffffffff\n      and\n        /* \"contracts/SimpleSwap.sol\":8769:8778  _tokenOut */\n      dup4\n        /* \"contracts/SimpleSwap.sol\":8769:8788  _tokenOut == tokenB */\n      0xffffffffffffffffffffffffffffffffffffffff\n      and\n      eq\n        /* \"contracts/SimpleSwap.sol\":8746:8788  _tokenOut == tokenA || _tokenOut == tokenB */\n    tag_149:\n        /* \"contracts/SimpleSwap.sol\":8738:8806  require(_tokenOut == tokenA || _tokenOut == tokenB, \"Invalid token\") */\n      tag_150\n      jumpi\n      mload(0x40)\n      0x08c379a000000000000000000000000000000000000000000000000000000000\n      dup2\n      mstore\n      0x04\n      add\n      tag_151\n      swap1\n      tag_96\n      jump\t// in\n    tag_151:\n      mload(0x40)\n      dup1\n      swap2\n      sub\n      swap1\n      revert\n    tag_150:\n        /* \"contracts/SimpleSwap.sol\":8836:8845  _tokenOut */\n      dup3\n        /* \"contracts/SimpleSwap.sol\":8824:8845  _tokenIn != _tokenOut */\n      0xffffffffffffffffffffffffffffffffffffffff\n      and\n        /* \"contracts/SimpleSwap.sol\":8824:8832  _tokenIn */\n      dup5\n        /* \"contracts/SimpleSwap.sol\":8824:8845  _tokenIn != _tokenOut */\n      0xffffffffffffffffffffffffffffffffffffffff\n      and\n      sub\n        /* \"contracts/SimpleSwap.sol\":8816:8861  require(_tokenIn != _tokenOut, \"Same tokens\") */\n      tag_152\n      jumpi\n      mload(0x40)\n      0x08c379a000000000000000000000000000000000000000000000000000000000\n      dup2\n      mstore\n      0x04\n      add\n      tag_153\n      swap1\n      tag_102\n      jump\t// in\n    tag_153:\n      mload(0x40)\n      dup1\n      swap2\n      sub\n      swap1\n      revert\n    tag_152:\n        /* \"contracts/SimpleSwap.sol\":8890:8891  0 */\n      0x00\n        /* \"contracts/SimpleSwap.sol\":8879:8887  reserveA */\n      sload(0x02)\n        /* \"contracts/SimpleSwap.sol\":8879:8891  reserveA > 0 */\n      gt\n        /* \"contracts/SimpleSwap.sol\":8879:8907  reserveA > 0 && reserveB > 0 */\n      dup1\n      iszero\n      tag_154\n      jumpi\n      pop\n        /* \"contracts/SimpleSwap.sol\":8906:8907  0 */\n      0x00\n        /* \"contracts/SimpleSwap.sol\":8895:8903  reserveB */\n      sload(0x03)\n        /* \"contracts/SimpleSwap.sol\":8895:8907  reserveB > 0 */\n      gt\n        /* \"contracts/SimpleSwap.sol\":8879:8907  reserveA > 0 && reserveB > 0 */\n    tag_154:\n        /* \"contracts/SimpleSwap.sol\":8871:8924  require(reserveA > 0 && reserveB > 0, \"No liquidity\") */\n      tag_155\n      jumpi\n      mload(0x40)\n      0x08c379a000000000000000000000000000000000000000000000000000000000\n      dup2\n      mstore\n      0x04\n      add\n      tag_156\n      swap1\n      tag_157\n      jump\t// in\n    tag_156:\n      mload(0x40)\n      dup1\n      swap2\n      sub\n      swap1\n      revert\n    tag_155:\n        /* \"contracts/SimpleSwap.sol\":8943:8960  uint256 reserveIn */\n      0x00\n        /* \"contracts/SimpleSwap.sol\":8975:8981  tokenA */\n      0x00\n      0x00\n      swap1\n      sload\n      swap1\n      0x0100\n      exp\n      swap1\n      div\n      0xffffffffffffffffffffffffffffffffffffffff\n      and\n        /* \"contracts/SimpleSwap.sol\":8963:8981  _tokenIn == tokenA */\n      0xffffffffffffffffffffffffffffffffffffffff\n      and\n        /* \"contracts/SimpleSwap.sol\":8963:8971  _tokenIn */\n      dup6\n        /* \"contracts/SimpleSwap.sol\":8963:8981  _tokenIn == tokenA */\n      0xffffffffffffffffffffffffffffffffffffffff\n      and\n      eq\n        /* \"contracts/SimpleSwap.sol\":8963:9003  _tokenIn == tokenA ? reserveA : reserveB */\n      tag_158\n      jumpi\n        /* \"contracts/SimpleSwap.sol\":8995:9003  reserveB */\n      sload(0x03)\n        /* \"contracts/SimpleSwap.sol\":8963:9003  _tokenIn == tokenA ? reserveA : reserveB */\n      jump(tag_159)\n    tag_158:\n        /* \"contracts/SimpleSwap.sol\":8984:8992  reserveA */\n      sload(0x02)\n        /* \"contracts/SimpleSwap.sol\":8963:9003  _tokenIn == tokenA ? reserveA : reserveB */\n    tag_159:\n        /* \"contracts/SimpleSwap.sol\":8943:9003  uint256 reserveIn = _tokenIn == tokenA ? reserveA : reserveB */\n      swap1\n      pop\n        /* \"contracts/SimpleSwap.sol\":9013:9031  uint256 reserveOut */\n      0x00\n        /* \"contracts/SimpleSwap.sol\":9046:9052  tokenA */\n      0x00\n      0x00\n      swap1\n      sload\n      swap1\n      0x0100\n      exp\n      swap1\n      div\n      0xffffffffffffffffffffffffffffffffffffffff\n      and\n        /* \"contracts/SimpleSwap.sol\":9034:9052  _tokenIn == tokenA */\n      0xffffffffffffffffffffffffffffffffffffffff\n      and\n        /* \"contracts/SimpleSwap.sol\":9034:9042  _tokenIn */\n      dup7\n        /* \"contracts/SimpleSwap.sol\":9034:9052  _tokenIn == tokenA */\n      0xffffffffffffffffffffffffffffffffffffffff\n      and\n      eq\n        /* \"contracts/SimpleSwap.sol\":9034:9074  _tokenIn == tokenA ? reserveB : reserveA */\n      tag_160\n      jumpi\n        /* \"contracts/SimpleSwap.sol\":9066:9074  reserveA */\n      sload(0x02)\n        /* \"contracts/SimpleSwap.sol\":9034:9074  _tokenIn == tokenA ? reserveB : reserveA */\n      jump(tag_161)\n    tag_160:\n        /* \"contracts/SimpleSwap.sol\":9055:9063  reserveB */\n      sload(0x03)\n        /* \"contracts/SimpleSwap.sol\":9034:9074  _tokenIn == tokenA ? reserveB : reserveA */\n    tag_161:\n        /* \"contracts/SimpleSwap.sol\":9013:9074  uint256 reserveOut = _tokenIn == tokenA ? reserveB : reserveA */\n      swap1\n      pop\n        /* \"contracts/SimpleSwap.sol\":9178:9195  uint256 numerator */\n      0x00\n        /* \"contracts/SimpleSwap.sol\":9209:9219  reserveOut */\n      dup2\n        /* \"contracts/SimpleSwap.sol\":9198:9206  amountIn */\n      dup6\n        /* \"contracts/SimpleSwap.sol\":9198:9219  amountIn * reserveOut */\n      tag_162\n      swap2\n      swap1\n      tag_163\n      jump\t// in\n    tag_162:\n        /* \"contracts/SimpleSwap.sol\":9178:9219  uint256 numerator = amountIn * reserveOut */\n      swap1\n      pop\n        /* \"contracts/SimpleSwap.sol\":9229:9248  uint256 denominator */\n      0x00\n        /* \"contracts/SimpleSwap.sol\":9263:9271  amountIn */\n      dup6\n        /* \"contracts/SimpleSwap.sol\":9251:9260  reserveIn */\n      dup5\n        /* \"contracts/SimpleSwap.sol\":9251:9271  reserveIn + amountIn */\n      tag_164\n      swap2\n      swap1\n      tag_125\n      jump\t// in\n    tag_164:\n        /* \"contracts/SimpleSwap.sol\":9229:9271  uint256 denominator = reserveIn + amountIn */\n      swap1\n      pop\n        /* \"contracts/SimpleSwap.sol\":9305:9316  denominator */\n      dup1\n        /* \"contracts/SimpleSwap.sol\":9293:9302  numerator */\n      dup3\n        /* \"contracts/SimpleSwap.sol\":9293:9316  numerator / denominator */\n      tag_165\n      swap2\n      swap1\n      tag_166\n      jump\t// in\n    tag_165:\n        /* \"contracts/SimpleSwap.sol\":9281:9316  amountOut = numerator / denominator */\n      swap5\n      pop\n        /* \"contracts/SimpleSwap.sol\":8604:9323  {... */\n      pop\n      pop\n      pop\n      pop\n        /* \"contracts/SimpleSwap.sol\":8457:9323  function getAmountOut(... */\n      swap4\n      swap3\n      pop\n      pop\n      pop\n      jump\t// out\n        /* \"contracts/SimpleSwap.sol\":765:786  address public tokenB */\n    tag_47:\n      0x01\n      0x00\n      swap1\n      sload\n      swap1\n      0x0100\n      exp\n      swap1\n      div\n      0xffffffffffffffffffffffffffffffffffffffff\n      and\n      dup2\n      jump\t// out\n        /* \"contracts/SimpleSwap.sol\":887:931  mapping(address => uint256) public balanceOf */\n    tag_52:\n      mstore(0x20, 0x05)\n      dup1\n      0x00\n      mstore\n      keccak256(0x00, 0x40)\n      0x00\n      swap2\n      pop\n      swap1\n      pop\n      sload\n      dup2\n      jump\t// out\n        /* \"contracts/SimpleSwap.sol\":10390:10794  function getPrice(address _tokenA, address _tokenB) external view returns (uint256 price) {... */\n    tag_56:\n        /* \"contracts/SimpleSwap.sol\":10465:10478  uint256 price */\n      0x00\n        /* \"contracts/SimpleSwap.sol\":10509:10515  tokenA */\n      0x00\n      0x00\n      swap1\n      sload\n      swap1\n      0x0100\n      exp\n      swap1\n      div\n      0xffffffffffffffffffffffffffffffffffffffff\n      and\n        /* \"contracts/SimpleSwap.sol\":10498:10515  _tokenA == tokenA */\n      0xffffffffffffffffffffffffffffffffffffffff\n      and\n        /* \"contracts/SimpleSwap.sol\":10498:10505  _tokenA */\n      dup4\n        /* \"contracts/SimpleSwap.sol\":10498:10515  _tokenA == tokenA */\n      0xffffffffffffffffffffffffffffffffffffffff\n      and\n      eq\n        /* \"contracts/SimpleSwap.sol\":10498:10536  _tokenA == tokenA && _tokenB == tokenB */\n      dup1\n      iszero\n      tag_168\n      jumpi\n      pop\n        /* \"contracts/SimpleSwap.sol\":10530:10536  tokenB */\n      0x01\n      0x00\n      swap1\n      sload\n      swap1\n      0x0100\n      exp\n      swap1\n      div\n      0xffffffffffffffffffffffffffffffffffffffff\n      and\n        /* \"contracts/SimpleSwap.sol\":10519:10536  _tokenB == tokenB */\n      0xffffffffffffffffffffffffffffffffffffffff\n      and\n        /* \"contracts/SimpleSwap.sol\":10519:10526  _tokenB */\n      dup3\n        /* \"contracts/SimpleSwap.sol\":10519:10536  _tokenB == tokenB */\n      0xffffffffffffffffffffffffffffffffffffffff\n      and\n      eq\n        /* \"contracts/SimpleSwap.sol\":10498:10536  _tokenA == tokenA && _tokenB == tokenB */\n    tag_168:\n        /* \"contracts/SimpleSwap.sol\":10490:10555  require(_tokenA == tokenA && _tokenB == tokenB, \"Invalid tokens\") */\n      tag_169\n      jumpi\n      mload(0x40)\n      0x08c379a000000000000000000000000000000000000000000000000000000000\n      dup2\n      mstore\n      0x04\n      add\n      tag_170\n      swap1\n      tag_171\n      jump\t// in\n    tag_170:\n      mload(0x40)\n      dup1\n      swap2\n      sub\n      swap1\n      revert\n    tag_169:\n        /* \"contracts/SimpleSwap.sol\":10584:10585  0 */\n      0x00\n        /* \"contracts/SimpleSwap.sol\":10573:10581  reserveA */\n      sload(0x02)\n        /* \"contracts/SimpleSwap.sol\":10573:10585  reserveA > 0 */\n      gt\n        /* \"contracts/SimpleSwap.sol\":10573:10601  reserveA > 0 && reserveB > 0 */\n      dup1\n      iszero\n      tag_172\n      jumpi\n      pop\n        /* \"contracts/SimpleSwap.sol\":10600:10601  0 */\n      0x00\n        /* \"contracts/SimpleSwap.sol\":10589:10597  reserveB */\n      sload(0x03)\n        /* \"contracts/SimpleSwap.sol\":10589:10601  reserveB > 0 */\n      gt\n        /* \"contracts/SimpleSwap.sol\":10573:10601  reserveA > 0 && reserveB > 0 */\n    tag_172:\n        /* \"contracts/SimpleSwap.sol\":10565:10618  require(reserveA > 0 && reserveB > 0, \"No liquidity\") */\n      tag_173\n      jumpi\n      mload(0x40)\n      0x08c379a000000000000000000000000000000000000000000000000000000000\n      dup2\n      mstore\n      0x04\n      add\n      tag_174\n      swap1\n      tag_157\n      jump\t// in\n    tag_174:\n      mload(0x40)\n      dup1\n      swap2\n      sub\n      swap1\n      revert\n    tag_173:\n        /* \"contracts/SimpleSwap.sol\":10652:10658  tokenA */\n      0x00\n      0x00\n      swap1\n      sload\n      swap1\n      0x0100\n      exp\n      swap1\n      div\n      0xffffffffffffffffffffffffffffffffffffffff\n      and\n        /* \"contracts/SimpleSwap.sol\":10641:10658  _tokenA == tokenA */\n      0xffffffffffffffffffffffffffffffffffffffff\n      and\n        /* \"contracts/SimpleSwap.sol\":10641:10648  _tokenA */\n      dup4\n        /* \"contracts/SimpleSwap.sol\":10641:10658  _tokenA == tokenA */\n      0xffffffffffffffffffffffffffffffffffffffff\n      and\n      sub\n        /* \"contracts/SimpleSwap.sol\":10637:10788  if (_tokenA == tokenA) {... */\n      tag_175\n      jumpi\n        /* \"contracts/SimpleSwap.sol\":10702:10710  reserveA */\n      sload(0x02)\n        /* \"contracts/SimpleSwap.sol\":10694:10698  1e18 */\n      0x0de0b6b3a7640000\n        /* \"contracts/SimpleSwap.sol\":10683:10691  reserveB */\n      sload(0x03)\n        /* \"contracts/SimpleSwap.sol\":10683:10698  reserveB * 1e18 */\n      tag_176\n      swap2\n      swap1\n      tag_163\n      jump\t// in\n    tag_176:\n        /* \"contracts/SimpleSwap.sol\":10682:10710  (reserveB * 1e18) / reserveA */\n      tag_177\n      swap2\n      swap1\n      tag_166\n      jump\t// in\n    tag_177:\n        /* \"contracts/SimpleSwap.sol\":10674:10710  price = (reserveB * 1e18) / reserveA */\n      swap1\n      pop\n        /* \"contracts/SimpleSwap.sol\":10637:10788  if (_tokenA == tokenA) {... */\n      jump(tag_178)\n    tag_175:\n        /* \"contracts/SimpleSwap.sol\":10769:10777  reserveB */\n      sload(0x03)\n        /* \"contracts/SimpleSwap.sol\":10761:10765  1e18 */\n      0x0de0b6b3a7640000\n        /* \"contracts/SimpleSwap.sol\":10750:10758  reserveA */\n      sload(0x02)\n        /* \"contracts/SimpleSwap.sol\":10750:10765  reserveA * 1e18 */\n      tag_179\n      swap2\n      swap1\n      tag_163\n      jump\t// in\n    tag_179:\n        /* \"contracts/SimpleSwap.sol\":10749:10777  (reserveA * 1e18) / reserveB */\n      tag_180\n      swap2\n      swap1\n      tag_166\n      jump\t// in\n    tag_180:\n        /* \"contracts/SimpleSwap.sol\":10741:10777  price = (reserveA * 1e18) / reserveB */\n      swap1\n      pop\n        /* \"contracts/SimpleSwap.sol\":10637:10788  if (_tokenA == tokenA) {... */\n    tag_178:\n        /* \"contracts/SimpleSwap.sol\":10390:10794  function getPrice(address _tokenA, address _tokenB) external view returns (uint256 price) {... */\n      swap3\n      swap2\n      pop\n      pop\n      jump\t// out\n        /* \"contracts/SimpleSwap.sol\":4954:6217  function removeLiquidity(... */\n    tag_61:\n        /* \"contracts/SimpleSwap.sol\":5182:5197  uint256 amountA */\n      0x00\n        /* \"contracts/SimpleSwap.sol\":5199:5214  uint256 amountB */\n      0x00\n        /* \"contracts/SimpleSwap.sol\":5253:5261  deadline */\n      dup3\n        /* \"contracts/SimpleSwap.sol\":5234:5249  block.timestamp */\n      timestamp\n        /* \"contracts/SimpleSwap.sol\":5234:5261  block.timestamp <= deadline */\n      gt\n      iszero\n        /* \"contracts/SimpleSwap.sol\":5226:5285  require(block.timestamp <= deadline, \"Transaction expired\") */\n      tag_182\n      jumpi\n      mload(0x40)\n      0x08c379a000000000000000000000000000000000000000000000000000000000\n      dup2\n      mstore\n      0x04\n      add\n      tag_183\n      swap1\n      tag_76\n      jump\t// in\n    tag_183:\n      mload(0x40)\n      dup1\n      swap2\n      sub\n      swap1\n      revert\n    tag_182:\n        /* \"contracts/SimpleSwap.sol\":5314:5320  tokenA */\n      0x00\n      0x00\n      swap1\n      sload\n      swap1\n      0x0100\n      exp\n      swap1\n      div\n      0xffffffffffffffffffffffffffffffffffffffff\n      and\n        /* \"contracts/SimpleSwap.sol\":5303:5320  _tokenA == tokenA */\n      0xffffffffffffffffffffffffffffffffffffffff\n      and\n        /* \"contracts/SimpleSwap.sol\":5303:5310  _tokenA */\n      dup10\n        /* \"contracts/SimpleSwap.sol\":5303:5320  _tokenA == tokenA */\n      0xffffffffffffffffffffffffffffffffffffffff\n      and\n      eq\n        /* \"contracts/SimpleSwap.sol\":5303:5341  _tokenA == tokenA && _tokenB == tokenB */\n      dup1\n      iszero\n      tag_184\n      jumpi\n      pop\n        /* \"contracts/SimpleSwap.sol\":5335:5341  tokenB */\n      0x01\n      0x00\n      swap1\n      sload\n      swap1\n      0x0100\n      exp\n      swap1\n      div\n      0xffffffffffffffffffffffffffffffffffffffff\n      and\n        /* \"contracts/SimpleSwap.sol\":5324:5341  _tokenB == tokenB */\n      0xffffffffffffffffffffffffffffffffffffffff\n      and\n        /* \"contracts/SimpleSwap.sol\":5324:5331  _tokenB */\n      dup9\n        /* \"contracts/SimpleSwap.sol\":5324:5341  _tokenB == tokenB */\n      0xffffffffffffffffffffffffffffffffffffffff\n      and\n      eq\n        /* \"contracts/SimpleSwap.sol\":5303:5341  _tokenA == tokenA && _tokenB == tokenB */\n    tag_184:\n        /* \"contracts/SimpleSwap.sol\":5295:5360  require(_tokenA == tokenA && _tokenB == tokenB, \"Invalid tokens\") */\n      tag_185\n      jumpi\n      mload(0x40)\n      0x08c379a000000000000000000000000000000000000000000000000000000000\n      dup2\n      mstore\n      0x04\n      add\n      tag_186\n      swap1\n      tag_171\n      jump\t// in\n    tag_186:\n      mload(0x40)\n      dup1\n      swap2\n      sub\n      swap1\n      revert\n    tag_185:\n        /* \"contracts/SimpleSwap.sol\":5390:5391  0 */\n      0x00\n        /* \"contracts/SimpleSwap.sol\":5378:5387  liquidity */\n      dup8\n        /* \"contracts/SimpleSwap.sol\":5378:5391  liquidity > 0 */\n      gt\n        /* \"contracts/SimpleSwap.sol\":5370:5410  require(liquidity > 0, \"Invalid amount\") */\n      tag_187\n      jumpi\n      mload(0x40)\n      0x08c379a000000000000000000000000000000000000000000000000000000000\n      dup2\n      mstore\n      0x04\n      add\n      tag_188\n      swap1\n      tag_189\n      jump\t// in\n    tag_188:\n      mload(0x40)\n      dup1\n      swap2\n      sub\n      swap1\n      revert\n    tag_187:\n        /* \"contracts/SimpleSwap.sol\":5453:5462  liquidity */\n      dup7\n        /* \"contracts/SimpleSwap.sol\":5428:5437  balanceOf */\n      0x05\n        /* \"contracts/SimpleSwap.sol\":5428:5449  balanceOf[msg.sender] */\n      0x00\n        /* \"contracts/SimpleSwap.sol\":5438:5448  msg.sender */\n      caller\n        /* \"contracts/SimpleSwap.sol\":5428:5449  balanceOf[msg.sender] */\n      0xffffffffffffffffffffffffffffffffffffffff\n      and\n      0xffffffffffffffffffffffffffffffffffffffff\n      and\n      dup2\n      mstore\n      0x20\n      add\n      swap1\n      dup2\n      mstore\n      0x20\n      add\n      0x00\n      keccak256\n      sload\n        /* \"contracts/SimpleSwap.sol\":5428:5462  balanceOf[msg.sender] >= liquidity */\n      lt\n      iszero\n        /* \"contracts/SimpleSwap.sol\":5420:5487  require(balanceOf[msg.sender] >= liquidity, \"Insufficient balance\") */\n      tag_190\n      jumpi\n      mload(0x40)\n      0x08c379a000000000000000000000000000000000000000000000000000000000\n      dup2\n      mstore\n      0x04\n      add\n      tag_191\n      swap1\n      tag_192\n      jump\t// in\n    tag_191:\n      mload(0x40)\n      dup1\n      swap2\n      sub\n      swap1\n      revert\n    tag_190:\n        /* \"contracts/SimpleSwap.sol\":5519:5520  0 */\n      0x00\n        /* \"contracts/SimpleSwap.sol\":5505:5521  to != address(0) */\n      0xffffffffffffffffffffffffffffffffffffffff\n      and\n        /* \"contracts/SimpleSwap.sol\":5505:5507  to */\n      dup5\n        /* \"contracts/SimpleSwap.sol\":5505:5521  to != address(0) */\n      0xffffffffffffffffffffffffffffffffffffffff\n      and\n      sub\n        /* \"contracts/SimpleSwap.sol\":5497:5538  require(to != address(0), \"Zero address\") */\n      tag_193\n      jumpi\n      mload(0x40)\n      0x08c379a000000000000000000000000000000000000000000000000000000000\n      dup2\n      mstore\n      0x04\n      add\n      tag_194\n      swap1\n      tag_85\n      jump\t// in\n    tag_194:\n      mload(0x40)\n      dup1\n      swap2\n      sub\n      swap1\n      revert\n    tag_193:\n        /* \"contracts/SimpleSwap.sol\":5634:5645  totalSupply */\n      sload(0x04)\n        /* \"contracts/SimpleSwap.sol\":5622:5630  reserveA */\n      sload(0x02)\n        /* \"contracts/SimpleSwap.sol\":5610:5619  liquidity */\n      dup9\n        /* \"contracts/SimpleSwap.sol\":5610:5630  liquidity * reserveA */\n      tag_195\n      swap2\n      swap1\n      tag_163\n      jump\t// in\n    tag_195:\n        /* \"contracts/SimpleSwap.sol\":5609:5645  (liquidity * reserveA) / totalSupply */\n      tag_196\n      swap2\n      swap1\n      tag_166\n      jump\t// in\n    tag_196:\n        /* \"contracts/SimpleSwap.sol\":5599:5645  amountA = (liquidity * reserveA) / totalSupply */\n      swap2\n      pop\n        /* \"contracts/SimpleSwap.sol\":5690:5701  totalSupply */\n      sload(0x04)\n        /* \"contracts/SimpleSwap.sol\":5678:5686  reserveB */\n      sload(0x03)\n        /* \"contracts/SimpleSwap.sol\":5666:5675  liquidity */\n      dup9\n        /* \"contracts/SimpleSwap.sol\":5666:5686  liquidity * reserveB */\n      tag_197\n      swap2\n      swap1\n      tag_163\n      jump\t// in\n    tag_197:\n        /* \"contracts/SimpleSwap.sol\":5665:5701  (liquidity * reserveB) / totalSupply */\n      tag_198\n      swap2\n      swap1\n      tag_166\n      jump\t// in\n    tag_198:\n        /* \"contracts/SimpleSwap.sol\":5655:5701  amountB = (liquidity * reserveB) / totalSupply */\n      swap1\n      pop\n        /* \"contracts/SimpleSwap.sol\":5739:5749  amountAMin */\n      dup6\n        /* \"contracts/SimpleSwap.sol\":5728:5735  amountA */\n      dup3\n        /* \"contracts/SimpleSwap.sol\":5728:5749  amountA >= amountAMin */\n      lt\n      iszero\n        /* \"contracts/SimpleSwap.sol\":5720:5775  require(amountA >= amountAMin, \"Insufficient A amount\") */\n      tag_199\n      jumpi\n      mload(0x40)\n      0x08c379a000000000000000000000000000000000000000000000000000000000\n      dup2\n      mstore\n      0x04\n      add\n      tag_200\n      swap1\n      tag_201\n      jump\t// in\n    tag_200:\n      mload(0x40)\n      dup1\n      swap2\n      sub\n      swap1\n      revert\n    tag_199:\n        /* \"contracts/SimpleSwap.sol\":5804:5814  amountBMin */\n      dup5\n        /* \"contracts/SimpleSwap.sol\":5793:5800  amountB */\n      dup2\n        /* \"contracts/SimpleSwap.sol\":5793:5814  amountB >= amountBMin */\n      lt\n      iszero\n        /* \"contracts/SimpleSwap.sol\":5785:5840  require(amountB >= amountBMin, \"Insufficient B amount\") */\n      tag_202\n      jumpi\n      mload(0x40)\n      0x08c379a000000000000000000000000000000000000000000000000000000000\n      dup2\n      mstore\n      0x04\n      add\n      tag_203\n      swap1\n      tag_204\n      jump\t// in\n    tag_203:\n      mload(0x40)\n      dup1\n      swap2\n      sub\n      swap1\n      revert\n    tag_202:\n        /* \"contracts/SimpleSwap.sol\":5908:5917  liquidity */\n      dup7\n        /* \"contracts/SimpleSwap.sol\":5883:5892  balanceOf */\n      0x05\n        /* \"contracts/SimpleSwap.sol\":5883:5904  balanceOf[msg.sender] */\n      0x00\n        /* \"contracts/SimpleSwap.sol\":5893:5903  msg.sender */\n      caller\n        /* \"contracts/SimpleSwap.sol\":5883:5904  balanceOf[msg.sender] */\n      0xffffffffffffffffffffffffffffffffffffffff\n      and\n      0xffffffffffffffffffffffffffffffffffffffff\n      and\n      dup2\n      mstore\n      0x20\n      add\n      swap1\n      dup2\n      mstore\n      0x20\n      add\n      0x00\n      keccak256\n      0x00\n        /* \"contracts/SimpleSwap.sol\":5883:5917  balanceOf[msg.sender] -= liquidity */\n      dup3\n      dup3\n      sload\n      tag_205\n      swap2\n      swap1\n      tag_127\n      jump\t// in\n    tag_205:\n      swap3\n      pop\n      pop\n      dup2\n      swap1\n      sstore\n      pop\n        /* \"contracts/SimpleSwap.sol\":5942:5951  liquidity */\n      dup7\n        /* \"contracts/SimpleSwap.sol\":5927:5938  totalSupply */\n      0x04\n      0x00\n        /* \"contracts/SimpleSwap.sol\":5927:5951  totalSupply -= liquidity */\n      dup3\n      dup3\n      sload\n      tag_206\n      swap2\n      swap1\n      tag_127\n      jump\t// in\n    tag_206:\n      swap3\n      pop\n      pop\n      dup2\n      swap1\n      sstore\n      pop\n        /* \"contracts/SimpleSwap.sol\":5973:5980  amountA */\n      dup2\n        /* \"contracts/SimpleSwap.sol\":5961:5969  reserveA */\n      0x02\n      0x00\n        /* \"contracts/SimpleSwap.sol\":5961:5980  reserveA -= amountA */\n      dup3\n      dup3\n      sload\n      tag_207\n      swap2\n      swap1\n      tag_127\n      jump\t// in\n    tag_207:\n      swap3\n      pop\n      pop\n      dup2\n      swap1\n      sstore\n      pop\n        /* \"contracts/SimpleSwap.sol\":6002:6009  amountB */\n      dup1\n        /* \"contracts/SimpleSwap.sol\":5990:5998  reserveB */\n      0x03\n      0x00\n        /* \"contracts/SimpleSwap.sol\":5990:6009  reserveB -= amountB */\n      dup3\n      dup3\n      sload\n      tag_208\n      swap2\n      swap1\n      tag_127\n      jump\t// in\n    tag_208:\n      swap3\n      pop\n      pop\n      dup2\n      swap1\n      sstore\n      pop\n        /* \"contracts/SimpleSwap.sol\":6062:6068  tokenA */\n      0x00\n      0x00\n      swap1\n      sload\n      swap1\n      0x0100\n      exp\n      swap1\n      div\n      0xffffffffffffffffffffffffffffffffffffffff\n      and\n        /* \"contracts/SimpleSwap.sol\":6055:6078  IERC20(tokenA).transfer */\n      0xffffffffffffffffffffffffffffffffffffffff\n      and\n      0xa9059cbb\n        /* \"contracts/SimpleSwap.sol\":6079:6081  to */\n      dup6\n        /* \"contracts/SimpleSwap.sol\":6083:6090  amountA */\n      dup5\n        /* \"contracts/SimpleSwap.sol\":6055:6091  IERC20(tokenA).transfer(to, amountA) */\n      mload(0x40)\n      dup4\n      0xffffffff\n      and\n      0xe0\n      shl\n      dup2\n      mstore\n      0x04\n      add\n      tag_209\n      swap3\n      swap2\n      swap1\n      tag_119\n      jump\t// in\n    tag_209:\n      0x20\n      mload(0x40)\n      dup1\n      dup4\n      sub\n      dup2\n      0x00\n      dup8\n      gas\n      call\n      iszero\n      dup1\n      iszero\n      tag_211\n      jumpi\n      returndatacopy(0x00, 0x00, returndatasize)\n      revert(0x00, returndatasize)\n    tag_211:\n      pop\n      pop\n      pop\n      pop\n      mload(0x40)\n      returndatasize\n      not(0x1f)\n      0x1f\n      dup3\n      add\n      and\n      dup3\n      add\n      dup1\n      0x40\n      mstore\n      pop\n      dup2\n      add\n      swap1\n      tag_212\n      swap2\n      swap1\n      tag_117\n      jump\t// in\n    tag_212:\n      pop\n        /* \"contracts/SimpleSwap.sol\":6108:6114  tokenB */\n      0x01\n      0x00\n      swap1\n      sload\n      swap1\n      0x0100\n      exp\n      swap1\n      div\n      0xffffffffffffffffffffffffffffffffffffffff\n      and\n        /* \"contracts/SimpleSwap.sol\":6101:6124  IERC20(tokenB).transfer */\n      0xffffffffffffffffffffffffffffffffffffffff\n      and\n      0xa9059cbb\n        /* \"contracts/SimpleSwap.sol\":6125:6127  to */\n      dup6\n        /* \"contracts/SimpleSwap.sol\":6129:6136  amountB */\n      dup4\n        /* \"contracts/SimpleSwap.sol\":6101:6137  IERC20(tokenB).transfer(to, amountB) */\n      mload(0x40)\n      dup4\n      0xffffffff\n      and\n      0xe0\n      shl\n      dup2\n      mstore\n      0x04\n      add\n      tag_213\n      swap3\n      swap2\n      swap1\n      tag_119\n      jump\t// in\n    tag_213:\n      0x20\n      mload(0x40)\n      dup1\n      dup4\n      sub\n      dup2\n      0x00\n      dup8\n      gas\n      call\n      iszero\n      dup1\n      iszero\n      tag_215\n      jumpi\n      returndatacopy(0x00, 0x00, returndatasize)\n      revert(0x00, returndatasize)\n    tag_215:\n      pop\n      pop\n      pop\n      pop\n      mload(0x40)\n      returndatasize\n      not(0x1f)\n      0x1f\n      dup3\n      add\n      and\n      dup3\n      add\n      dup1\n      0x40\n      mstore\n      pop\n      dup2\n      add\n      swap1\n      tag_216\n      swap2\n      swap1\n      tag_117\n      jump\t// in\n    tag_216:\n      pop\n        /* \"contracts/SimpleSwap.sol\":6178:6180  to */\n      dup4\n        /* \"contracts/SimpleSwap.sol\":6161:6210  LiquidityRemoved(to, amountA, amountB, liquidity) */\n      0xffffffffffffffffffffffffffffffffffffffff\n      and\n      0x1dc8bb69df2b8e91fbdcbfcf93d951b3f0000f085a95fe3f7946d6161439245d\n        /* \"contracts/SimpleSwap.sol\":6182:6189  amountA */\n      dup4\n        /* \"contracts/SimpleSwap.sol\":6191:6198  amountB */\n      dup4\n        /* \"contracts/SimpleSwap.sol\":6200:6209  liquidity */\n      dup11\n        /* \"contracts/SimpleSwap.sol\":6161:6210  LiquidityRemoved(to, amountA, amountB, liquidity) */\n      mload(0x40)\n      tag_217\n      swap4\n      swap3\n      swap2\n      swap1\n      tag_71\n      jump\t// in\n    tag_217:\n      mload(0x40)\n      dup1\n      swap2\n      sub\n      swap1\n      log2\n        /* \"contracts/SimpleSwap.sol\":4954:6217  function removeLiquidity(... */\n      swap8\n      pop\n      swap8\n      swap6\n      pop\n      pop\n      pop\n      pop\n      pop\n      pop\n      jump\t// out\n        /* \"contracts/SimpleSwap.sol\":792:815  uint256 public reserveA */\n    tag_64:\n      sload(0x02)\n      dup2\n      jump\t// out\n        /* \"contracts/SimpleSwap.sol\":2477:4411  function addLiquidity(... */\n    tag_69:\n        /* \"contracts/SimpleSwap.sol\":2739:2754  uint256 amountA */\n      0x00\n        /* \"contracts/SimpleSwap.sol\":2756:2771  uint256 amountB */\n      0x00\n        /* \"contracts/SimpleSwap.sol\":2773:2790  uint256 liquidity */\n      0x00\n        /* \"contracts/SimpleSwap.sol\":2829:2837  deadline */\n      dup4\n        /* \"contracts/SimpleSwap.sol\":2810:2825  block.timestamp */\n      timestamp\n        /* \"contracts/SimpleSwap.sol\":2810:2837  block.timestamp <= deadline */\n      gt\n      iszero\n        /* \"contracts/SimpleSwap.sol\":2802:2861  require(block.timestamp <= deadline, \"Transaction expired\") */\n      tag_219\n      jumpi\n      mload(0x40)\n      0x08c379a000000000000000000000000000000000000000000000000000000000\n      dup2\n      mstore\n      0x04\n      add\n      tag_220\n      swap1\n      tag_76\n      jump\t// in\n    tag_220:\n      mload(0x40)\n      dup1\n      swap2\n      sub\n      swap1\n      revert\n    tag_219:\n        /* \"contracts/SimpleSwap.sol\":2893:2894  0 */\n      0x00\n        /* \"contracts/SimpleSwap.sol\":2879:2895  to != address(0) */\n      0xffffffffffffffffffffffffffffffffffffffff\n      and\n        /* \"contracts/SimpleSwap.sol\":2879:2881  to */\n      dup6\n        /* \"contracts/SimpleSwap.sol\":2879:2895  to != address(0) */\n      0xffffffffffffffffffffffffffffffffffffffff\n      and\n      sub\n        /* \"contracts/SimpleSwap.sol\":2871:2912  require(to != address(0), \"Zero address\") */\n      tag_221\n      jumpi\n      mload(0x40)\n      0x08c379a000000000000000000000000000000000000000000000000000000000\n      dup2\n      mstore\n      0x04\n      add\n      tag_222\n      swap1\n      tag_85\n      jump\t// in\n    tag_222:\n      mload(0x40)\n      dup1\n      swap2\n      sub\n      swap1\n      revert\n    tag_221:\n        /* \"contracts/SimpleSwap.sol\":2999:3000  0 */\n      0x00\n        /* \"contracts/SimpleSwap.sol\":2981:3001  tokenA == address(0) */\n      0xffffffffffffffffffffffffffffffffffffffff\n      and\n        /* \"contracts/SimpleSwap.sol\":2981:2987  tokenA */\n      0x00\n      0x00\n      swap1\n      sload\n      swap1\n      0x0100\n      exp\n      swap1\n      div\n      0xffffffffffffffffffffffffffffffffffffffff\n      and\n        /* \"contracts/SimpleSwap.sol\":2981:3001  tokenA == address(0) */\n      0xffffffffffffffffffffffffffffffffffffffff\n      and\n      sub\n        /* \"contracts/SimpleSwap.sol\":2977:3316  if (tokenA == address(0)) {... */\n      tag_223\n      jumpi\n        /* \"contracts/SimpleSwap.sol\":3036:3043  _tokenB */\n      dup10\n        /* \"contracts/SimpleSwap.sol\":3025:3043  _tokenA != _tokenB */\n      0xffffffffffffffffffffffffffffffffffffffff\n      and\n        /* \"contracts/SimpleSwap.sol\":3025:3032  _tokenA */\n      dup12\n        /* \"contracts/SimpleSwap.sol\":3025:3043  _tokenA != _tokenB */\n      0xffffffffffffffffffffffffffffffffffffffff\n      and\n      sub\n        /* \"contracts/SimpleSwap.sol\":3017:3064  require(_tokenA != _tokenB, \"Identical tokens\") */\n      tag_224\n      jumpi\n      mload(0x40)\n      0x08c379a000000000000000000000000000000000000000000000000000000000\n      dup2\n      mstore\n      0x04\n      add\n      tag_225\n      swap1\n      tag_139\n      jump\t// in\n    tag_225:\n      mload(0x40)\n      dup1\n      swap2\n      sub\n      swap1\n      revert\n    tag_224:\n        /* \"contracts/SimpleSwap.sol\":3105:3106  0 */\n      0x00\n        /* \"contracts/SimpleSwap.sol\":3086:3107  _tokenA != address(0) */\n      0xffffffffffffffffffffffffffffffffffffffff\n      and\n        /* \"contracts/SimpleSwap.sol\":3086:3093  _tokenA */\n      dup12\n        /* \"contracts/SimpleSwap.sol\":3086:3107  _tokenA != address(0) */\n      0xffffffffffffffffffffffffffffffffffffffff\n      and\n      eq\n      iszero\n        /* \"contracts/SimpleSwap.sol\":3086:3132  _tokenA != address(0) && _tokenB != address(0) */\n      dup1\n      iszero\n      tag_226\n      jumpi\n      pop\n        /* \"contracts/SimpleSwap.sol\":3130:3131  0 */\n      0x00\n        /* \"contracts/SimpleSwap.sol\":3111:3132  _tokenB != address(0) */\n      0xffffffffffffffffffffffffffffffffffffffff\n      and\n        /* \"contracts/SimpleSwap.sol\":3111:3118  _tokenB */\n      dup11\n        /* \"contracts/SimpleSwap.sol\":3111:3132  _tokenB != address(0) */\n      0xffffffffffffffffffffffffffffffffffffffff\n      and\n      eq\n      iszero\n        /* \"contracts/SimpleSwap.sol\":3086:3132  _tokenA != address(0) && _tokenB != address(0) */\n    tag_226:\n        /* \"contracts/SimpleSwap.sol\":3078:3149  require(_tokenA != address(0) && _tokenB != address(0), \"Zero address\") */\n      tag_227\n      jumpi\n      mload(0x40)\n      0x08c379a000000000000000000000000000000000000000000000000000000000\n      dup2\n      mstore\n      0x04\n      add\n      tag_228\n      swap1\n      tag_85\n      jump\t// in\n    tag_228:\n      mload(0x40)\n      dup1\n      swap2\n      sub\n      swap1\n      revert\n    tag_227:\n        /* \"contracts/SimpleSwap.sol\":3172:3179  _tokenA */\n      dup11\n        /* \"contracts/SimpleSwap.sol\":3163:3169  tokenA */\n      0x00\n      0x00\n        /* \"contracts/SimpleSwap.sol\":3163:3179  tokenA = _tokenA */\n      0x0100\n      exp\n      dup2\n      sload\n      dup2\n      0xffffffffffffffffffffffffffffffffffffffff\n      mul\n      not\n      and\n      swap1\n      dup4\n      0xffffffffffffffffffffffffffffffffffffffff\n      and\n      mul\n      or\n      swap1\n      sstore\n      pop\n        /* \"contracts/SimpleSwap.sol\":3202:3209  _tokenB */\n      dup10\n        /* \"contracts/SimpleSwap.sol\":3193:3199  tokenB */\n      0x01\n      0x00\n        /* \"contracts/SimpleSwap.sol\":3193:3209  tokenB = _tokenB */\n      0x0100\n      exp\n      dup2\n      sload\n      dup2\n      0xffffffffffffffffffffffffffffffffffffffff\n      mul\n      not\n      and\n      swap1\n      dup4\n      0xffffffffffffffffffffffffffffffffffffffff\n      and\n      mul\n      or\n      swap1\n      sstore\n      pop\n        /* \"contracts/SimpleSwap.sol\":2977:3316  if (tokenA == address(0)) {... */\n      jump(tag_229)\n    tag_223:\n        /* \"contracts/SimpleSwap.sol\":3259:3265  tokenA */\n      0x00\n      0x00\n      swap1\n      sload\n      swap1\n      0x0100\n      exp\n      swap1\n      div\n      0xffffffffffffffffffffffffffffffffffffffff\n      and\n        /* \"contracts/SimpleSwap.sol\":3248:3265  _tokenA == tokenA */\n      0xffffffffffffffffffffffffffffffffffffffff\n      and\n        /* \"contracts/SimpleSwap.sol\":3248:3255  _tokenA */\n      dup12\n        /* \"contracts/SimpleSwap.sol\":3248:3265  _tokenA == tokenA */\n      0xffffffffffffffffffffffffffffffffffffffff\n      and\n      eq\n        /* \"contracts/SimpleSwap.sol\":3248:3286  _tokenA == tokenA && _tokenB == tokenB */\n      dup1\n      iszero\n      tag_230\n      jumpi\n      pop\n        /* \"contracts/SimpleSwap.sol\":3280:3286  tokenB */\n      0x01\n      0x00\n      swap1\n      sload\n      swap1\n      0x0100\n      exp\n      swap1\n      div\n      0xffffffffffffffffffffffffffffffffffffffff\n      and\n        /* \"contracts/SimpleSwap.sol\":3269:3286  _tokenB == tokenB */\n      0xffffffffffffffffffffffffffffffffffffffff\n      and\n        /* \"contracts/SimpleSwap.sol\":3269:3276  _tokenB */\n      dup11\n        /* \"contracts/SimpleSwap.sol\":3269:3286  _tokenB == tokenB */\n      0xffffffffffffffffffffffffffffffffffffffff\n      and\n      eq\n        /* \"contracts/SimpleSwap.sol\":3248:3286  _tokenA == tokenA && _tokenB == tokenB */\n    tag_230:\n        /* \"contracts/SimpleSwap.sol\":3240:3305  require(_tokenA == tokenA && _tokenB == tokenB, \"Invalid tokens\") */\n      tag_231\n      jumpi\n      mload(0x40)\n      0x08c379a000000000000000000000000000000000000000000000000000000000\n      dup2\n      mstore\n      0x04\n      add\n      tag_232\n      swap1\n      tag_171\n      jump\t// in\n    tag_232:\n      mload(0x40)\n      dup1\n      swap2\n      sub\n      swap1\n      revert\n    tag_231:\n        /* \"contracts/SimpleSwap.sol\":2977:3316  if (tokenA == address(0)) {... */\n    tag_229:\n        /* \"contracts/SimpleSwap.sol\":3384:3527  _calculateLiquidityAmounts(... */\n      tag_233\n        /* \"contracts/SimpleSwap.sol\":3424:3438  amountADesired */\n      dup10\n        /* \"contracts/SimpleSwap.sol\":3453:3467  amountBDesired */\n      dup10\n        /* \"contracts/SimpleSwap.sol\":3482:3492  amountAMin */\n      dup10\n        /* \"contracts/SimpleSwap.sol\":3507:3517  amountBMin */\n      dup10\n        /* \"contracts/SimpleSwap.sol\":3384:3410  _calculateLiquidityAmounts */\n      tag_234\n        /* \"contracts/SimpleSwap.sol\":3384:3527  _calculateLiquidityAmounts(... */\n      jump\t// in\n    tag_233:\n        /* \"contracts/SimpleSwap.sol\":3363:3527  (amountA, amountB) = _calculateLiquidityAmounts(... */\n      dup1\n      swap4\n      pop\n      dup2\n      swap5\n      pop\n      pop\n      pop\n        /* \"contracts/SimpleSwap.sol\":3580:3586  tokenA */\n      0x00\n      0x00\n      swap1\n      sload\n      swap1\n      0x0100\n      exp\n      swap1\n      div\n      0xffffffffffffffffffffffffffffffffffffffff\n      and\n        /* \"contracts/SimpleSwap.sol\":3573:3600  IERC20(tokenA).transferFrom */\n      0xffffffffffffffffffffffffffffffffffffffff\n      and\n      0x23b872dd\n        /* \"contracts/SimpleSwap.sol\":3601:3611  msg.sender */\n      caller\n        /* \"contracts/SimpleSwap.sol\":3621:3625  this */\n      address\n        /* \"contracts/SimpleSwap.sol\":3628:3635  amountA */\n      dup7\n        /* \"contracts/SimpleSwap.sol\":3573:3636  IERC20(tokenA).transferFrom(msg.sender, address(this), amountA) */\n      mload(0x40)\n      dup5\n      0xffffffff\n      and\n      0xe0\n      shl\n      dup2\n      mstore\n      0x04\n      add\n      tag_235\n      swap4\n      swap3\n      swap2\n      swap1\n      tag_113\n      jump\t// in\n    tag_235:\n      0x20\n      mload(0x40)\n      dup1\n      dup4\n      sub\n      dup2\n      0x00\n      dup8\n      gas\n      call\n      iszero\n      dup1\n      iszero\n      tag_237\n      jumpi\n      returndatacopy(0x00, 0x00, returndatasize)\n      revert(0x00, returndatasize)\n    tag_237:\n      pop\n      pop\n      pop\n      pop\n      mload(0x40)\n      returndatasize\n      not(0x1f)\n      0x1f\n      dup3\n      add\n      and\n      dup3\n      add\n      dup1\n      0x40\n      mstore\n      pop\n      dup2\n      add\n      swap1\n      tag_238\n      swap2\n      swap1\n      tag_117\n      jump\t// in\n    tag_238:\n      pop\n        /* \"contracts/SimpleSwap.sol\":3653:3659  tokenB */\n      0x01\n      0x00\n      swap1\n      sload\n      swap1\n      0x0100\n      exp\n      swap1\n      div\n      0xffffffffffffffffffffffffffffffffffffffff\n      and\n        /* \"contracts/SimpleSwap.sol\":3646:3673  IERC20(tokenB).transferFrom */\n      0xffffffffffffffffffffffffffffffffffffffff\n      and\n      0x23b872dd\n        /* \"contracts/SimpleSwap.sol\":3674:3684  msg.sender */\n      caller\n        /* \"contracts/SimpleSwap.sol\":3694:3698  this */\n      address\n        /* \"contracts/SimpleSwap.sol\":3701:3708  amountB */\n      dup6\n        /* \"contracts/SimpleSwap.sol\":3646:3709  IERC20(tokenB).transferFrom(msg.sender, address(this), amountB) */\n      mload(0x40)\n      dup5\n      0xffffffff\n      and\n      0xe0\n      shl\n      dup2\n      mstore\n      0x04\n      add\n      tag_239\n      swap4\n      swap3\n      swap2\n      swap1\n      tag_113\n      jump\t// in\n    tag_239:\n      0x20\n      mload(0x40)\n      dup1\n      dup4\n      sub\n      dup2\n      0x00\n      dup8\n      gas\n      call\n      iszero\n      dup1\n      iszero\n      tag_241\n      jumpi\n      returndatacopy(0x00, 0x00, returndatasize)\n      revert(0x00, returndatasize)\n    tag_241:\n      pop\n      pop\n      pop\n      pop\n      mload(0x40)\n      returndatasize\n      not(0x1f)\n      0x1f\n      dup3\n      add\n      and\n      dup3\n      add\n      dup1\n      0x40\n      mstore\n      pop\n      dup2\n      add\n      swap1\n      tag_242\n      swap2\n      swap1\n      tag_117\n      jump\t// in\n    tag_242:\n      pop\n        /* \"contracts/SimpleSwap.sol\":3786:3787  0 */\n      0x00\n        /* \"contracts/SimpleSwap.sol\":3771:3782  totalSupply */\n      sload(0x04)\n        /* \"contracts/SimpleSwap.sol\":3771:3787  totalSupply == 0 */\n      sub\n        /* \"contracts/SimpleSwap.sol\":3767:4106  if (totalSupply == 0) {... */\n      tag_243\n      jumpi\n        /* \"contracts/SimpleSwap.sol\":1025:1029  1000 */\n      0x03e8\n        /* \"contracts/SimpleSwap.sol\":3815:3839  _sqrt(amountA * amountB) */\n      tag_244\n        /* \"contracts/SimpleSwap.sol\":3831:3838  amountB */\n      dup4\n        /* \"contracts/SimpleSwap.sol\":3821:3828  amountA */\n      dup6\n        /* \"contracts/SimpleSwap.sol\":3821:3838  amountA * amountB */\n      tag_245\n      swap2\n      swap1\n      tag_163\n      jump\t// in\n    tag_245:\n        /* \"contracts/SimpleSwap.sol\":3815:3820  _sqrt */\n      tag_246\n        /* \"contracts/SimpleSwap.sol\":3815:3839  _sqrt(amountA * amountB) */\n      jump\t// in\n    tag_244:\n        /* \"contracts/SimpleSwap.sol\":3815:3859  _sqrt(amountA * amountB) - MINIMUM_LIQUIDITY */\n      tag_247\n      swap2\n      swap1\n      tag_127\n      jump\t// in\n    tag_247:\n        /* \"contracts/SimpleSwap.sol\":3803:3859  liquidity = _sqrt(amountA * amountB) - MINIMUM_LIQUIDITY */\n      swap1\n      pop\n        /* \"contracts/SimpleSwap.sol\":1025:1029  1000 */\n      0x03e8\n        /* \"contracts/SimpleSwap.sol\":3873:3882  balanceOf */\n      0x05\n        /* \"contracts/SimpleSwap.sol\":3873:3894  balanceOf[address(0)] */\n      0x00\n        /* \"contracts/SimpleSwap.sol\":3891:3892  0 */\n      0x00\n        /* \"contracts/SimpleSwap.sol\":3873:3894  balanceOf[address(0)] */\n      0xffffffffffffffffffffffffffffffffffffffff\n      and\n      0xffffffffffffffffffffffffffffffffffffffff\n      and\n      dup2\n      mstore\n      0x20\n      add\n      swap1\n      dup2\n      mstore\n      0x20\n      add\n      0x00\n      keccak256\n        /* \"contracts/SimpleSwap.sol\":3873:3914  balanceOf[address(0)] = MINIMUM_LIQUIDITY */\n      dup2\n      swap1\n      sstore\n      pop\n        /* \"contracts/SimpleSwap.sol\":3767:4106  if (totalSupply == 0) {... */\n      jump(tag_248)\n    tag_243:\n        /* \"contracts/SimpleSwap.sol\":3973:4095  _min(... */\n      tag_249\n        /* \"contracts/SimpleSwap.sol\":4021:4029  reserveA */\n      sload(0x02)\n        /* \"contracts/SimpleSwap.sol\":4006:4017  totalSupply */\n      sload(0x04)\n        /* \"contracts/SimpleSwap.sol\":3996:4003  amountA */\n      dup6\n        /* \"contracts/SimpleSwap.sol\":3996:4017  amountA * totalSupply */\n      tag_250\n      swap2\n      swap1\n      tag_163\n      jump\t// in\n    tag_250:\n        /* \"contracts/SimpleSwap.sol\":3995:4029  (amountA * totalSupply) / reserveA */\n      tag_251\n      swap2\n      swap1\n      tag_166\n      jump\t// in\n    tag_251:\n        /* \"contracts/SimpleSwap.sol\":4073:4081  reserveB */\n      sload(0x03)\n        /* \"contracts/SimpleSwap.sol\":4058:4069  totalSupply */\n      sload(0x04)\n        /* \"contracts/SimpleSwap.sol\":4048:4055  amountB */\n      dup6\n        /* \"contracts/SimpleSwap.sol\":4048:4069  amountB * totalSupply */\n      tag_252\n      swap2\n      swap1\n      tag_163\n      jump\t// in\n    tag_252:\n        /* \"contracts/SimpleSwap.sol\":4047:4081  (amountB * totalSupply) / reserveB */\n      tag_253\n      swap2\n      swap1\n      tag_166\n      jump\t// in\n    tag_253:\n        /* \"contracts/SimpleSwap.sol\":3973:3977  _min */\n      tag_254\n        /* \"contracts/SimpleSwap.sol\":3973:4095  _min(... */\n      jump\t// in\n    tag_249:\n        /* \"contracts/SimpleSwap.sol\":3961:4095  liquidity = _min(... */\n      swap1\n      pop\n        /* \"contracts/SimpleSwap.sol\":3767:4106  if (totalSupply == 0) {... */\n    tag_248:\n        /* \"contracts/SimpleSwap.sol\":4144:4145  0 */\n      0x00\n        /* \"contracts/SimpleSwap.sol\":4132:4141  liquidity */\n      dup2\n        /* \"contracts/SimpleSwap.sol\":4132:4145  liquidity > 0 */\n      gt\n        /* \"contracts/SimpleSwap.sol\":4124:4172  require(liquidity > 0, \"Insufficient liquidity\") */\n      tag_255\n      jumpi\n      mload(0x40)\n      0x08c379a000000000000000000000000000000000000000000000000000000000\n      dup2\n      mstore\n      0x04\n      add\n      tag_256\n      swap1\n      tag_257\n      jump\t// in\n    tag_256:\n      mload(0x40)\n      dup1\n      swap2\n      sub\n      swap1\n      revert\n    tag_255:\n        /* \"contracts/SimpleSwap.sol\":4232:4241  liquidity */\n      dup1\n        /* \"contracts/SimpleSwap.sol\":4215:4224  balanceOf */\n      0x05\n        /* \"contracts/SimpleSwap.sol\":4215:4228  balanceOf[to] */\n      0x00\n        /* \"contracts/SimpleSwap.sol\":4225:4227  to */\n      dup8\n        /* \"contracts/SimpleSwap.sol\":4215:4228  balanceOf[to] */\n      0xffffffffffffffffffffffffffffffffffffffff\n      and\n      0xffffffffffffffffffffffffffffffffffffffff\n      and\n      dup2\n      mstore\n      0x20\n      add\n      swap1\n      dup2\n      mstore\n      0x20\n      add\n      0x00\n      keccak256\n      0x00\n        /* \"contracts/SimpleSwap.sol\":4215:4241  balanceOf[to] += liquidity */\n      dup3\n      dup3\n      sload\n      tag_258\n      swap2\n      swap1\n      tag_125\n      jump\t// in\n    tag_258:\n      swap3\n      pop\n      pop\n      dup2\n      swap1\n      sstore\n      pop\n        /* \"contracts/SimpleSwap.sol\":4266:4275  liquidity */\n      dup1\n        /* \"contracts/SimpleSwap.sol\":4251:4262  totalSupply */\n      0x04\n      0x00\n        /* \"contracts/SimpleSwap.sol\":4251:4275  totalSupply += liquidity */\n      dup3\n      dup3\n      sload\n      tag_259\n      swap2\n      swap1\n      tag_125\n      jump\t// in\n    tag_259:\n      swap3\n      pop\n      pop\n      dup2\n      swap1\n      sstore\n      pop\n        /* \"contracts/SimpleSwap.sol\":4297:4304  amountA */\n      dup3\n        /* \"contracts/SimpleSwap.sol\":4285:4293  reserveA */\n      0x02\n      0x00\n        /* \"contracts/SimpleSwap.sol\":4285:4304  reserveA += amountA */\n      dup3\n      dup3\n      sload\n      tag_260\n      swap2\n      swap1\n      tag_125\n      jump\t// in\n    tag_260:\n      swap3\n      pop\n      pop\n      dup2\n      swap1\n      sstore\n      pop\n        /* \"contracts/SimpleSwap.sol\":4326:4333  amountB */\n      dup2\n        /* \"contracts/SimpleSwap.sol\":4314:4322  reserveB */\n      0x03\n      0x00\n        /* \"contracts/SimpleSwap.sol\":4314:4333  reserveB += amountB */\n      dup3\n      dup3\n      sload\n      tag_261\n      swap2\n      swap1\n      tag_125\n      jump\t// in\n    tag_261:\n      swap3\n      pop\n      pop\n      dup2\n      swap1\n      sstore\n      pop\n        /* \"contracts/SimpleSwap.sol\":4372:4374  to */\n      dup5\n        /* \"contracts/SimpleSwap.sol\":4357:4404  LiquidityAdded(to, amountA, amountB, liquidity) */\n      0xffffffffffffffffffffffffffffffffffffffff\n      and\n      0x64b83944e79c3ce8d4c297411de637c3e102d064677aac0c163976ebdcd6f50e\n        /* \"contracts/SimpleSwap.sol\":4376:4383  amountA */\n      dup5\n        /* \"contracts/SimpleSwap.sol\":4385:4392  amountB */\n      dup5\n        /* \"contracts/SimpleSwap.sol\":4394:4403  liquidity */\n      dup5\n        /* \"contracts/SimpleSwap.sol\":4357:4404  LiquidityAdded(to, amountA, amountB, liquidity) */\n      mload(0x40)\n      tag_262\n      swap4\n      swap3\n      swap2\n      swap1\n      tag_71\n      jump\t// in\n    tag_262:\n      mload(0x40)\n      dup1\n      swap2\n      sub\n      swap1\n      log2\n        /* \"contracts/SimpleSwap.sol\":2477:4411  function addLiquidity(... */\n      swap9\n      pop\n      swap9\n      pop\n      swap9\n      swap6\n      pop\n      pop\n      pop\n      pop\n      pop\n      pop\n      jump\t// out\n        /* \"contracts/SimpleSwap.sol\":9628:10147  function _getAmountOut(... */\n    tag_108:\n        /* \"contracts/SimpleSwap.sol\":9761:9778  uint256 amountOut */\n      0x00\n        /* \"contracts/SimpleSwap.sol\":9809:9810  0 */\n      0x00\n        /* \"contracts/SimpleSwap.sol\":9798:9806  amountIn */\n      dup5\n        /* \"contracts/SimpleSwap.sol\":9798:9810  amountIn > 0 */\n      gt\n        /* \"contracts/SimpleSwap.sol\":9790:9828  require(amountIn > 0, \"Invalid input\") */\n      tag_264\n      jumpi\n      mload(0x40)\n      0x08c379a000000000000000000000000000000000000000000000000000000000\n      dup2\n      mstore\n      0x04\n      add\n      tag_265\n      swap1\n      tag_79\n      jump\t// in\n    tag_265:\n      mload(0x40)\n      dup1\n      swap2\n      sub\n      swap1\n      revert\n    tag_264:\n        /* \"contracts/SimpleSwap.sol\":9858:9859  0 */\n      0x00\n        /* \"contracts/SimpleSwap.sol\":9846:9855  reserveIn */\n      dup4\n        /* \"contracts/SimpleSwap.sol\":9846:9859  reserveIn > 0 */\n      gt\n        /* \"contracts/SimpleSwap.sol\":9846:9877  reserveIn > 0 && reserveOut > 0 */\n      dup1\n      iszero\n      tag_266\n      jumpi\n      pop\n        /* \"contracts/SimpleSwap.sol\":9876:9877  0 */\n      0x00\n        /* \"contracts/SimpleSwap.sol\":9863:9873  reserveOut */\n      dup3\n        /* \"contracts/SimpleSwap.sol\":9863:9877  reserveOut > 0 */\n      gt\n        /* \"contracts/SimpleSwap.sol\":9846:9877  reserveIn > 0 && reserveOut > 0 */\n    tag_266:\n        /* \"contracts/SimpleSwap.sol\":9838:9898  require(reserveIn > 0 && reserveOut > 0, \"Invalid reserves\") */\n      tag_267\n      jumpi\n      mload(0x40)\n      0x08c379a000000000000000000000000000000000000000000000000000000000\n      dup2\n      mstore\n      0x04\n      add\n      tag_268\n      swap1\n      tag_269\n      jump\t// in\n    tag_268:\n      mload(0x40)\n      dup1\n      swap2\n      sub\n      swap1\n      revert\n    tag_267:\n        /* \"contracts/SimpleSwap.sol\":10002:10019  uint256 numerator */\n      0x00\n        /* \"contracts/SimpleSwap.sol\":10033:10043  reserveOut */\n      dup3\n        /* \"contracts/SimpleSwap.sol\":10022:10030  amountIn */\n      dup6\n        /* \"contracts/SimpleSwap.sol\":10022:10043  amountIn * reserveOut */\n      tag_270\n      swap2\n      swap1\n      tag_163\n      jump\t// in\n    tag_270:\n        /* \"contracts/SimpleSwap.sol\":10002:10043  uint256 numerator = amountIn * reserveOut */\n      swap1\n      pop\n        /* \"contracts/SimpleSwap.sol\":10053:10072  uint256 denominator */\n      0x00\n        /* \"contracts/SimpleSwap.sol\":10087:10095  amountIn */\n      dup6\n        /* \"contracts/SimpleSwap.sol\":10075:10084  reserveIn */\n      dup6\n        /* \"contracts/SimpleSwap.sol\":10075:10095  reserveIn + amountIn */\n      tag_271\n      swap2\n      swap1\n      tag_125\n      jump\t// in\n    tag_271:\n        /* \"contracts/SimpleSwap.sol\":10053:10095  uint256 denominator = reserveIn + amountIn */\n      swap1\n      pop\n        /* \"contracts/SimpleSwap.sol\":10129:10140  denominator */\n      dup1\n        /* \"contracts/SimpleSwap.sol\":10117:10126  numerator */\n      dup3\n        /* \"contracts/SimpleSwap.sol\":10117:10140  numerator / denominator */\n      tag_272\n      swap2\n      swap1\n      tag_166\n      jump\t// in\n    tag_272:\n        /* \"contracts/SimpleSwap.sol\":10105:10140  amountOut = numerator / denominator */\n      swap3\n      pop\n        /* \"contracts/SimpleSwap.sol\":9780:10147  {... */\n      pop\n      pop\n        /* \"contracts/SimpleSwap.sol\":9628:10147  function _getAmountOut(... */\n      swap4\n      swap3\n      pop\n      pop\n      pop\n      jump\t// out\n        /* \"contracts/SimpleSwap.sol\":11521:12470  function _calculateLiquidityAmounts(... */\n    tag_234:\n        /* \"contracts/SimpleSwap.sol\":11706:11721  uint256 amountA */\n      0x00\n        /* \"contracts/SimpleSwap.sol\":11723:11738  uint256 amountB */\n      0x00\n        /* \"contracts/SimpleSwap.sol\":11766:11767  0 */\n      0x00\n        /* \"contracts/SimpleSwap.sol\":11754:11762  reserveA */\n      sload(0x02)\n        /* \"contracts/SimpleSwap.sol\":11754:11767  reserveA == 0 */\n      eq\n        /* \"contracts/SimpleSwap.sol\":11754:11784  reserveA == 0 && reserveB == 0 */\n      dup1\n      iszero\n      tag_274\n      jumpi\n      pop\n        /* \"contracts/SimpleSwap.sol\":11783:11784  0 */\n      0x00\n        /* \"contracts/SimpleSwap.sol\":11771:11779  reserveB */\n      sload(0x03)\n        /* \"contracts/SimpleSwap.sol\":11771:11784  reserveB == 0 */\n      eq\n        /* \"contracts/SimpleSwap.sol\":11754:11784  reserveA == 0 && reserveB == 0 */\n    tag_274:\n        /* \"contracts/SimpleSwap.sol\":11750:12464  if (reserveA == 0 && reserveB == 0) {... */\n      iszero\n      tag_275\n      jumpi\n        /* \"contracts/SimpleSwap.sol\":11822:11836  amountADesired */\n      dup6\n        /* \"contracts/SimpleSwap.sol\":11838:11852  amountBDesired */\n      dup6\n        /* \"contracts/SimpleSwap.sol\":11800:11853  (amountA, amountB) = (amountADesired, amountBDesired) */\n      dup1\n      swap3\n      pop\n      dup2\n      swap4\n      pop\n      pop\n      pop\n        /* \"contracts/SimpleSwap.sol\":11750:12464  if (reserveA == 0 && reserveB == 0) {... */\n      jump(tag_276)\n    tag_275:\n        /* \"contracts/SimpleSwap.sol\":11884:11906  uint256 amountBOptimal */\n      0x00\n        /* \"contracts/SimpleSwap.sol\":11939:11947  reserveA */\n      sload(0x02)\n        /* \"contracts/SimpleSwap.sol\":11927:11935  reserveB */\n      sload(0x03)\n        /* \"contracts/SimpleSwap.sol\":11910:11924  amountADesired */\n      dup9\n        /* \"contracts/SimpleSwap.sol\":11910:11935  amountADesired * reserveB */\n      tag_277\n      swap2\n      swap1\n      tag_163\n      jump\t// in\n    tag_277:\n        /* \"contracts/SimpleSwap.sol\":11909:11947  (amountADesired * reserveB) / reserveA */\n      tag_278\n      swap2\n      swap1\n      tag_166\n      jump\t// in\n    tag_278:\n        /* \"contracts/SimpleSwap.sol\":11884:11947  uint256 amountBOptimal = (amountADesired * reserveB) / reserveA */\n      swap1\n      pop\n        /* \"contracts/SimpleSwap.sol\":11983:11997  amountBDesired */\n      dup6\n        /* \"contracts/SimpleSwap.sol\":11965:11979  amountBOptimal */\n      dup2\n        /* \"contracts/SimpleSwap.sol\":11965:11997  amountBOptimal <= amountBDesired */\n      gt\n        /* \"contracts/SimpleSwap.sol\":11961:12454  if (amountBOptimal <= amountBDesired) {... */\n      tag_279\n      jumpi\n        /* \"contracts/SimpleSwap.sol\":12043:12053  amountBMin */\n      dup4\n        /* \"contracts/SimpleSwap.sol\":12025:12039  amountBOptimal */\n      dup2\n        /* \"contracts/SimpleSwap.sol\":12025:12053  amountBOptimal >= amountBMin */\n      lt\n      iszero\n        /* \"contracts/SimpleSwap.sol\":12017:12079  require(amountBOptimal >= amountBMin, \"Insufficient B amount\") */\n      tag_280\n      jumpi\n      mload(0x40)\n      0x08c379a000000000000000000000000000000000000000000000000000000000\n      dup2\n      mstore\n      0x04\n      add\n      tag_281\n      swap1\n      tag_204\n      jump\t// in\n    tag_281:\n      mload(0x40)\n      dup1\n      swap2\n      sub\n      swap1\n      revert\n    tag_280:\n        /* \"contracts/SimpleSwap.sol\":12119:12133  amountADesired */\n      dup7\n        /* \"contracts/SimpleSwap.sol\":12135:12149  amountBOptimal */\n      dup2\n        /* \"contracts/SimpleSwap.sol\":12097:12150  (amountA, amountB) = (amountADesired, amountBOptimal) */\n      dup1\n      swap4\n      pop\n      dup2\n      swap5\n      pop\n      pop\n      pop\n        /* \"contracts/SimpleSwap.sol\":11961:12454  if (amountBOptimal <= amountBDesired) {... */\n      jump(tag_282)\n    tag_279:\n        /* \"contracts/SimpleSwap.sol\":12189:12211  uint256 amountAOptimal */\n      0x00\n        /* \"contracts/SimpleSwap.sol\":12244:12252  reserveB */\n      sload(0x03)\n        /* \"contracts/SimpleSwap.sol\":12232:12240  reserveA */\n      sload(0x02)\n        /* \"contracts/SimpleSwap.sol\":12215:12229  amountBDesired */\n      dup9\n        /* \"contracts/SimpleSwap.sol\":12215:12240  amountBDesired * reserveA */\n      tag_283\n      swap2\n      swap1\n      tag_163\n      jump\t// in\n    tag_283:\n        /* \"contracts/SimpleSwap.sol\":12214:12252  (amountBDesired * reserveA) / reserveB */\n      tag_284\n      swap2\n      swap1\n      tag_166\n      jump\t// in\n    tag_284:\n        /* \"contracts/SimpleSwap.sol\":12189:12252  uint256 amountAOptimal = (amountBDesired * reserveA) / reserveB */\n      swap1\n      pop\n        /* \"contracts/SimpleSwap.sol\":12296:12310  amountADesired */\n      dup8\n        /* \"contracts/SimpleSwap.sol\":12278:12292  amountAOptimal */\n      dup2\n        /* \"contracts/SimpleSwap.sol\":12278:12310  amountAOptimal <= amountADesired */\n      gt\n      iszero\n        /* \"contracts/SimpleSwap.sol\":12278:12342  amountAOptimal <= amountADesired && amountAOptimal >= amountAMin */\n      dup1\n      iszero\n      tag_285\n      jumpi\n      pop\n        /* \"contracts/SimpleSwap.sol\":12332:12342  amountAMin */\n      dup6\n        /* \"contracts/SimpleSwap.sol\":12314:12328  amountAOptimal */\n      dup2\n        /* \"contracts/SimpleSwap.sol\":12314:12342  amountAOptimal >= amountAMin */\n      lt\n      iszero\n        /* \"contracts/SimpleSwap.sol\":12278:12342  amountAOptimal <= amountADesired && amountAOptimal >= amountAMin */\n    tag_285:\n        /* \"contracts/SimpleSwap.sol\":12270:12368  require(amountAOptimal <= amountADesired && amountAOptimal >= amountAMin, \"Insufficient A amount\") */\n      tag_286\n      jumpi\n      mload(0x40)\n      0x08c379a000000000000000000000000000000000000000000000000000000000\n      dup2\n      mstore\n      0x04\n      add\n      tag_287\n      swap1\n      tag_201\n      jump\t// in\n    tag_287:\n      mload(0x40)\n      dup1\n      swap2\n      sub\n      swap1\n      revert\n    tag_286:\n        /* \"contracts/SimpleSwap.sol\":12408:12422  amountAOptimal */\n      dup1\n        /* \"contracts/SimpleSwap.sol\":12424:12438  amountBDesired */\n      dup8\n        /* \"contracts/SimpleSwap.sol\":12386:12439  (amountA, amountB) = (amountAOptimal, amountBDesired) */\n      dup1\n      swap5\n      pop\n      dup2\n      swap6\n      pop\n      pop\n      pop\n        /* \"contracts/SimpleSwap.sol\":12171:12454  {... */\n      pop\n        /* \"contracts/SimpleSwap.sol\":11961:12454  if (amountBOptimal <= amountBDesired) {... */\n    tag_282:\n        /* \"contracts/SimpleSwap.sol\":11870:12464  {... */\n      pop\n        /* \"contracts/SimpleSwap.sol\":11750:12464  if (reserveA == 0 && reserveB == 0) {... */\n    tag_276:\n        /* \"contracts/SimpleSwap.sol\":11521:12470  function _calculateLiquidityAmounts(... */\n      swap5\n      pop\n      swap5\n      swap3\n      pop\n      pop\n      pop\n      jump\t// out\n        /* \"contracts/SimpleSwap.sol\":12637:12939  function _sqrt(uint256 y) internal pure returns (uint256 z) {... */\n    tag_246:\n        /* \"contracts/SimpleSwap.sol\":12686:12695  uint256 z */\n      0x00\n        /* \"contracts/SimpleSwap.sol\":12715:12716  3 */\n      0x03\n        /* \"contracts/SimpleSwap.sol\":12711:12712  y */\n      dup3\n        /* \"contracts/SimpleSwap.sol\":12711:12716  y > 3 */\n      gt\n        /* \"contracts/SimpleSwap.sol\":12707:12933  if (y > 3) {... */\n      iszero\n      tag_289\n      jumpi\n        /* \"contracts/SimpleSwap.sol\":12736:12737  y */\n      dup2\n        /* \"contracts/SimpleSwap.sol\":12732:12737  z = y */\n      swap1\n      pop\n        /* \"contracts/SimpleSwap.sol\":12751:12760  uint256 x */\n      0x00\n        /* \"contracts/SimpleSwap.sol\":12771:12772  1 */\n      0x01\n        /* \"contracts/SimpleSwap.sol\":12767:12768  2 */\n      0x02\n        /* \"contracts/SimpleSwap.sol\":12763:12764  y */\n      dup5\n        /* \"contracts/SimpleSwap.sol\":12763:12768  y / 2 */\n      tag_290\n      swap2\n      swap1\n      tag_166\n      jump\t// in\n    tag_290:\n        /* \"contracts/SimpleSwap.sol\":12763:12772  y / 2 + 1 */\n      tag_291\n      swap2\n      swap1\n      tag_125\n      jump\t// in\n    tag_291:\n        /* \"contracts/SimpleSwap.sol\":12751:12772  uint256 x = y / 2 + 1 */\n      swap1\n      pop\n        /* \"contracts/SimpleSwap.sol\":12786:12875  while (x < z) {... */\n    tag_292:\n        /* \"contracts/SimpleSwap.sol\":12797:12798  z */\n      dup2\n        /* \"contracts/SimpleSwap.sol\":12793:12794  x */\n      dup2\n        /* \"contracts/SimpleSwap.sol\":12793:12798  x < z */\n      lt\n        /* \"contracts/SimpleSwap.sol\":12786:12875  while (x < z) {... */\n      iszero\n      tag_293\n      jumpi\n        /* \"contracts/SimpleSwap.sol\":12822:12823  x */\n      dup1\n        /* \"contracts/SimpleSwap.sol\":12818:12823  z = x */\n      swap2\n      pop\n        /* \"contracts/SimpleSwap.sol\":12859:12860  2 */\n      0x02\n        /* \"contracts/SimpleSwap.sol\":12854:12855  x */\n      dup2\n        /* \"contracts/SimpleSwap.sol\":12850:12851  x */\n      dup3\n        /* \"contracts/SimpleSwap.sol\":12846:12847  y */\n      dup6\n        /* \"contracts/SimpleSwap.sol\":12846:12851  y / x */\n      tag_294\n      swap2\n      swap1\n      tag_166\n      jump\t// in\n    tag_294:\n        /* \"contracts/SimpleSwap.sol\":12846:12855  y / x + x */\n      tag_295\n      swap2\n      swap1\n      tag_125\n      jump\t// in\n    tag_295:\n        /* \"contracts/SimpleSwap.sol\":12845:12860  (y / x + x) / 2 */\n      tag_296\n      swap2\n      swap1\n      tag_166\n      jump\t// in\n    tag_296:\n        /* \"contracts/SimpleSwap.sol\":12841:12860  x = (y / x + x) / 2 */\n      swap1\n      pop\n        /* \"contracts/SimpleSwap.sol\":12786:12875  while (x < z) {... */\n      jump(tag_292)\n    tag_293:\n        /* \"contracts/SimpleSwap.sol\":12718:12885  {... */\n      pop\n        /* \"contracts/SimpleSwap.sol\":12707:12933  if (y > 3) {... */\n      jump(tag_297)\n    tag_289:\n        /* \"contracts/SimpleSwap.sol\":12900:12901  0 */\n      0x00\n        /* \"contracts/SimpleSwap.sol\":12895:12896  y */\n      dup3\n        /* \"contracts/SimpleSwap.sol\":12895:12901  y != 0 */\n      eq\n        /* \"contracts/SimpleSwap.sol\":12891:12933  if (y != 0) {... */\n      tag_298\n      jumpi\n        /* \"contracts/SimpleSwap.sol\":12921:12922  1 */\n      0x01\n        /* \"contracts/SimpleSwap.sol\":12917:12922  z = 1 */\n      swap1\n      pop\n        /* \"contracts/SimpleSwap.sol\":12891:12933  if (y != 0) {... */\n    tag_298:\n        /* \"contracts/SimpleSwap.sol\":12707:12933  if (y > 3) {... */\n    tag_297:\n        /* \"contracts/SimpleSwap.sol\":12637:12939  function _sqrt(uint256 y) internal pure returns (uint256 z) {... */\n      swap2\n      swap1\n      pop\n      jump\t// out\n        /* \"contracts/SimpleSwap.sol\":13108:13213  function _min(uint256 a, uint256 b) internal pure returns (uint256) {... */\n    tag_254:\n        /* \"contracts/SimpleSwap.sol\":13167:13174  uint256 */\n      0x00\n        /* \"contracts/SimpleSwap.sol\":13197:13198  b */\n      dup2\n        /* \"contracts/SimpleSwap.sol\":13193:13194  a */\n      dup4\n        /* \"contracts/SimpleSwap.sol\":13193:13198  a < b */\n      lt\n        /* \"contracts/SimpleSwap.sol\":13193:13206  a < b ? a : b */\n      tag_300\n      jumpi\n        /* \"contracts/SimpleSwap.sol\":13205:13206  b */\n      dup2\n        /* \"contracts/SimpleSwap.sol\":13193:13206  a < b ? a : b */\n      jump(tag_301)\n    tag_300:\n        /* \"contracts/SimpleSwap.sol\":13201:13202  a */\n      dup3\n        /* \"contracts/SimpleSwap.sol\":13193:13206  a < b ? a : b */\n    tag_301:\n        /* \"contracts/SimpleSwap.sol\":13186:13206  return a < b ? a : b */\n      swap1\n      pop\n        /* \"contracts/SimpleSwap.sol\":13108:13213  function _min(uint256 a, uint256 b) internal pure returns (uint256) {... */\n      swap3\n      swap2\n      pop\n      pop\n      jump\t// out\n        /* \"#utility.yul\":7:84   */\n    tag_302:\n        /* \"#utility.yul\":44:51   */\n      0x00\n        /* \"#utility.yul\":73:78   */\n      dup2\n        /* \"#utility.yul\":62:78   */\n      swap1\n      pop\n        /* \"#utility.yul\":7:84   */\n      swap2\n      swap1\n      pop\n      jump\t// out\n        /* \"#utility.yul\":90:208   */\n    tag_303:\n        /* \"#utility.yul\":177:201   */\n      tag_361\n        /* \"#utility.yul\":195:200   */\n      dup2\n        /* \"#utility.yul\":177:201   */\n      tag_302\n      jump\t// in\n    tag_361:\n        /* \"#utility.yul\":172:175   */\n      dup3\n        /* \"#utility.yul\":165:202   */\n      mstore\n        /* \"#utility.yul\":90:208   */\n      pop\n      pop\n      jump\t// out\n        /* \"#utility.yul\":214:546   */\n    tag_21:\n        /* \"#utility.yul\":335:339   */\n      0x00\n        /* \"#utility.yul\":373:375   */\n      0x40\n        /* \"#utility.yul\":362:371   */\n      dup3\n        /* \"#utility.yul\":358:376   */\n      add\n        /* \"#utility.yul\":350:376   */\n      swap1\n      pop\n        /* \"#utility.yul\":386:457   */\n      tag_363\n        /* \"#utility.yul\":454:455   */\n      0x00\n        /* \"#utility.yul\":443:452   */\n      dup4\n        /* \"#utility.yul\":439:456   */\n      add\n        /* \"#utility.yul\":430:436   */\n      dup6\n        /* \"#utility.yul\":386:457   */\n      tag_303\n      jump\t// in\n    tag_363:\n        /* \"#utility.yul\":467:539   */\n      tag_364\n        /* \"#utility.yul\":535:537   */\n      0x20\n        /* \"#utility.yul\":524:533   */\n      dup4\n        /* \"#utility.yul\":520:538   */\n      add\n        /* \"#utility.yul\":511:517   */\n      dup5\n        /* \"#utility.yul\":467:539   */\n      tag_303\n      jump\t// in\n    tag_364:\n        /* \"#utility.yul\":214:546   */\n      swap4\n      swap3\n      pop\n      pop\n      pop\n      jump\t// out\n        /* \"#utility.yul\":552:678   */\n    tag_304:\n        /* \"#utility.yul\":589:596   */\n      0x00\n        /* \"#utility.yul\":629:671   */\n      0xffffffffffffffffffffffffffffffffffffffff\n        /* \"#utility.yul\":622:627   */\n      dup3\n        /* \"#utility.yul\":618:672   */\n      and\n        /* \"#utility.yul\":607:672   */\n      swap1\n      pop\n        /* \"#utility.yul\":552:678   */\n      swap2\n      swap1\n      pop\n      jump\t// out\n        /* \"#utility.yul\":684:780   */\n    tag_305:\n        /* \"#utility.yul\":721:728   */\n      0x00\n        /* \"#utility.yul\":750:774   */\n      tag_367\n        /* \"#utility.yul\":768:773   */\n      dup3\n        /* \"#utility.yul\":750:774   */\n      tag_304\n      jump\t// in\n    tag_367:\n        /* \"#utility.yul\":739:774   */\n      swap1\n      pop\n        /* \"#utility.yul\":684:780   */\n      swap2\n      swap1\n      pop\n      jump\t// out\n        /* \"#utility.yul\":786:904   */\n    tag_306:\n        /* \"#utility.yul\":873:897   */\n      tag_369\n        /* \"#utility.yul\":891:896   */\n      dup2\n        /* \"#utility.yul\":873:897   */\n      tag_305\n      jump\t// in\n    tag_369:\n        /* \"#utility.yul\":868:871   */\n      dup3\n        /* \"#utility.yul\":861:898   */\n      mstore\n        /* \"#utility.yul\":786:904   */\n      pop\n      pop\n      jump\t// out\n        /* \"#utility.yul\":910:1132   */\n    tag_25:\n        /* \"#utility.yul\":1003:1007   */\n      0x00\n        /* \"#utility.yul\":1041:1043   */\n      0x20\n        /* \"#utility.yul\":1030:1039   */\n      dup3\n        /* \"#utility.yul\":1026:1044   */\n      add\n        /* \"#utility.yul\":1018:1044   */\n      swap1\n      pop\n        /* \"#utility.yul\":1054:1125   */\n      tag_371\n        /* \"#utility.yul\":1122:1123   */\n      0x00\n        /* \"#utility.yul\":1111:1120   */\n      dup4\n        /* \"#utility.yul\":1107:1124   */\n      add\n        /* \"#utility.yul\":1098:1104   */\n      dup5\n        /* \"#utility.yul\":1054:1125   */\n      tag_306\n      jump\t// in\n    tag_371:\n        /* \"#utility.yul\":910:1132   */\n      swap3\n      swap2\n      pop\n      pop\n      jump\t// out\n        /* \"#utility.yul\":1138:1360   */\n    tag_29:\n        /* \"#utility.yul\":1231:1235   */\n      0x00\n        /* \"#utility.yul\":1269:1271   */\n      0x20\n        /* \"#utility.yul\":1258:1267   */\n      dup3\n        /* \"#utility.yul\":1254:1272   */\n      add\n        /* \"#utility.yul\":1246:1272   */\n      swap1\n      pop\n        /* \"#utility.yul\":1282:1353   */\n      tag_373\n        /* \"#utility.yul\":1350:1351   */\n      0x00\n        /* \"#utility.yul\":1339:1348   */\n      dup4\n        /* \"#utility.yul\":1335:1352   */\n      add\n        /* \"#utility.yul\":1326:1332   */\n      dup5\n        /* \"#utility.yul\":1282:1353   */\n      tag_303\n      jump\t// in\n    tag_373:\n        /* \"#utility.yul\":1138:1360   */\n      swap3\n      swap2\n      pop\n      pop\n      jump\t// out\n        /* \"#utility.yul\":1447:1564   */\n    tag_308:\n        /* \"#utility.yul\":1556:1557   */\n      0x00\n        /* \"#utility.yul\":1553:1554   */\n      0x00\n        /* \"#utility.yul\":1546:1558   */\n      revert\n        /* \"#utility.yul\":1570:1687   */\n    tag_309:\n        /* \"#utility.yul\":1679:1680   */\n      0x00\n        /* \"#utility.yul\":1676:1677   */\n      0x00\n        /* \"#utility.yul\":1669:1681   */\n      revert\n        /* \"#utility.yul\":1693:1815   */\n    tag_310:\n        /* \"#utility.yul\":1766:1790   */\n      tag_378\n        /* \"#utility.yul\":1784:1789   */\n      dup2\n        /* \"#utility.yul\":1766:1790   */\n      tag_302\n      jump\t// in\n    tag_378:\n        /* \"#utility.yul\":1759:1764   */\n      dup2\n        /* \"#utility.yul\":1756:1791   */\n      eq\n        /* \"#utility.yul\":1746:1809   */\n      tag_379\n      jumpi\n        /* \"#utility.yul\":1805:1806   */\n      0x00\n        /* \"#utility.yul\":1802:1803   */\n      0x00\n        /* \"#utility.yul\":1795:1807   */\n      revert\n        /* \"#utility.yul\":1746:1809   */\n    tag_379:\n        /* \"#utility.yul\":1693:1815   */\n      pop\n      jump\t// out\n        /* \"#utility.yul\":1821:1960   */\n    tag_311:\n        /* \"#utility.yul\":1867:1872   */\n      0x00\n        /* \"#utility.yul\":1905:1911   */\n      dup2\n        /* \"#utility.yul\":1892:1912   */\n      calldataload\n        /* \"#utility.yul\":1883:1912   */\n      swap1\n      pop\n        /* \"#utility.yul\":1921:1954   */\n      tag_381\n        /* \"#utility.yul\":1948:1953   */\n      dup2\n        /* \"#utility.yul\":1921:1954   */\n      tag_310\n      jump\t// in\n    tag_381:\n        /* \"#utility.yul\":1821:1960   */\n      swap3\n      swap2\n      pop\n      pop\n      jump\t// out\n        /* \"#utility.yul\":1966:2083   */\n    tag_312:\n        /* \"#utility.yul\":2075:2076   */\n      0x00\n        /* \"#utility.yul\":2072:2073   */\n      0x00\n        /* \"#utility.yul\":2065:2077   */\n      revert\n        /* \"#utility.yul\":2089:2206   */\n    tag_313:\n        /* \"#utility.yul\":2198:2199   */\n      0x00\n        /* \"#utility.yul\":2195:2196   */\n      0x00\n        /* \"#utility.yul\":2188:2200   */\n      revert\n        /* \"#utility.yul\":2212:2329   */\n    tag_314:\n        /* \"#utility.yul\":2321:2322   */\n      0x00\n        /* \"#utility.yul\":2318:2319   */\n      0x00\n        /* \"#utility.yul\":2311:2323   */\n      revert\n        /* \"#utility.yul\":2352:2920   */\n    tag_315:\n        /* \"#utility.yul\":2425:2433   */\n      0x00\n        /* \"#utility.yul\":2435:2441   */\n      0x00\n        /* \"#utility.yul\":2485:2488   */\n      dup4\n        /* \"#utility.yul\":2478:2482   */\n      0x1f\n        /* \"#utility.yul\":2470:2476   */\n      dup5\n        /* \"#utility.yul\":2466:2483   */\n      add\n        /* \"#utility.yul\":2462:2489   */\n      slt\n        /* \"#utility.yul\":2452:2574   */\n      tag_386\n      jumpi\n        /* \"#utility.yul\":2493:2572   */\n      tag_387\n      tag_312\n      jump\t// in\n    tag_387:\n        /* \"#utility.yul\":2452:2574   */\n    tag_386:\n        /* \"#utility.yul\":2606:2612   */\n      dup3\n        /* \"#utility.yul\":2593:2613   */\n      calldataload\n        /* \"#utility.yul\":2583:2613   */\n      swap1\n      pop\n        /* \"#utility.yul\":2636:2654   */\n      0xffffffffffffffff\n        /* \"#utility.yul\":2628:2634   */\n      dup2\n        /* \"#utility.yul\":2625:2655   */\n      gt\n        /* \"#utility.yul\":2622:2739   */\n      iszero\n      tag_388\n      jumpi\n        /* \"#utility.yul\":2658:2737   */\n      tag_389\n      tag_313\n      jump\t// in\n    tag_389:\n        /* \"#utility.yul\":2622:2739   */\n    tag_388:\n        /* \"#utility.yul\":2772:2776   */\n      0x20\n        /* \"#utility.yul\":2764:2770   */\n      dup4\n        /* \"#utility.yul\":2760:2777   */\n      add\n        /* \"#utility.yul\":2748:2777   */\n      swap2\n      pop\n        /* \"#utility.yul\":2826:2829   */\n      dup4\n        /* \"#utility.yul\":2818:2822   */\n      0x20\n        /* \"#utility.yul\":2810:2816   */\n      dup3\n        /* \"#utility.yul\":2806:2823   */\n      mul\n        /* \"#utility.yul\":2796:2804   */\n      dup4\n        /* \"#utility.yul\":2792:2824   */\n      add\n        /* \"#utility.yul\":2789:2830   */\n      gt\n        /* \"#utility.yul\":2786:2914   */\n      iszero\n      tag_390\n      jumpi\n        /* \"#utility.yul\":2833:2912   */\n      tag_391\n      tag_314\n      jump\t// in\n    tag_391:\n        /* \"#utility.yul\":2786:2914   */\n    tag_390:\n        /* \"#utility.yul\":2352:2920   */\n      swap3\n      pop\n      swap3\n      swap1\n      pop\n      jump\t// out\n        /* \"#utility.yul\":2926:3048   */\n    tag_316:\n        /* \"#utility.yul\":2999:3023   */\n      tag_393\n        /* \"#utility.yul\":3017:3022   */\n      dup2\n        /* \"#utility.yul\":2999:3023   */\n      tag_305\n      jump\t// in\n    tag_393:\n        /* \"#utility.yul\":2992:2997   */\n      dup2\n        /* \"#utility.yul\":2989:3024   */\n      eq\n        /* \"#utility.yul\":2979:3042   */\n      tag_394\n      jumpi\n        /* \"#utility.yul\":3038:3039   */\n      0x00\n        /* \"#utility.yul\":3035:3036   */\n      0x00\n        /* \"#utility.yul\":3028:3040   */\n      revert\n        /* \"#utility.yul\":2979:3042   */\n    tag_394:\n        /* \"#utility.yul\":2926:3048   */\n      pop\n      jump\t// out\n        /* \"#utility.yul\":3054:3193   */\n    tag_317:\n        /* \"#utility.yul\":3100:3105   */\n      0x00\n        /* \"#utility.yul\":3138:3144   */\n      dup2\n        /* \"#utility.yul\":3125:3145   */\n      calldataload\n        /* \"#utility.yul\":3116:3145   */\n      swap1\n      pop\n        /* \"#utility.yul\":3154:3187   */\n      tag_396\n        /* \"#utility.yul\":3181:3186   */\n      dup2\n        /* \"#utility.yul\":3154:3187   */\n      tag_316\n      jump\t// in\n    tag_396:\n        /* \"#utility.yul\":3054:3193   */\n      swap3\n      swap2\n      pop\n      pop\n      jump\t// out\n        /* \"#utility.yul\":3199:4340   */\n    tag_35:\n        /* \"#utility.yul\":3321:3327   */\n      0x00\n        /* \"#utility.yul\":3329:3335   */\n      0x00\n        /* \"#utility.yul\":3337:3343   */\n      0x00\n        /* \"#utility.yul\":3345:3351   */\n      0x00\n        /* \"#utility.yul\":3353:3359   */\n      0x00\n        /* \"#utility.yul\":3361:3367   */\n      0x00\n        /* \"#utility.yul\":3410:3413   */\n      0xa0\n        /* \"#utility.yul\":3398:3407   */\n      dup8\n        /* \"#utility.yul\":3389:3396   */\n      dup10\n        /* \"#utility.yul\":3385:3408   */\n      sub\n        /* \"#utility.yul\":3381:3414   */\n      slt\n        /* \"#utility.yul\":3378:3498   */\n      iszero\n      tag_398\n      jumpi\n        /* \"#utility.yul\":3417:3496   */\n      tag_399\n      tag_308\n      jump\t// in\n    tag_399:\n        /* \"#utility.yul\":3378:3498   */\n    tag_398:\n        /* \"#utility.yul\":3537:3538   */\n      0x00\n        /* \"#utility.yul\":3562:3615   */\n      tag_400\n        /* \"#utility.yul\":3607:3614   */\n      dup10\n        /* \"#utility.yul\":3598:3604   */\n      dup3\n        /* \"#utility.yul\":3587:3596   */\n      dup11\n        /* \"#utility.yul\":3583:3605   */\n      add\n        /* \"#utility.yul\":3562:3615   */\n      tag_311\n      jump\t// in\n    tag_400:\n        /* \"#utility.yul\":3552:3615   */\n      swap7\n      pop\n        /* \"#utility.yul\":3508:3625   */\n      pop\n        /* \"#utility.yul\":3664:3666   */\n      0x20\n        /* \"#utility.yul\":3690:3743   */\n      tag_401\n        /* \"#utility.yul\":3735:3742   */\n      dup10\n        /* \"#utility.yul\":3726:3732   */\n      dup3\n        /* \"#utility.yul\":3715:3724   */\n      dup11\n        /* \"#utility.yul\":3711:3733   */\n      add\n        /* \"#utility.yul\":3690:3743   */\n      tag_311\n      jump\t// in\n    tag_401:\n        /* \"#utility.yul\":3680:3743   */\n      swap6\n      pop\n        /* \"#utility.yul\":3635:3753   */\n      pop\n        /* \"#utility.yul\":3820:3822   */\n      0x40\n        /* \"#utility.yul\":3809:3818   */\n      dup8\n        /* \"#utility.yul\":3805:3823   */\n      add\n        /* \"#utility.yul\":3792:3824   */\n      calldataload\n        /* \"#utility.yul\":3851:3869   */\n      0xffffffffffffffff\n        /* \"#utility.yul\":3843:3849   */\n      dup2\n        /* \"#utility.yul\":3840:3870   */\n      gt\n        /* \"#utility.yul\":3837:3954   */\n      iszero\n      tag_402\n      jumpi\n        /* \"#utility.yul\":3873:3952   */\n      tag_403\n      tag_309\n      jump\t// in\n    tag_403:\n        /* \"#utility.yul\":3837:3954   */\n    tag_402:\n        /* \"#utility.yul\":3986:4066   */\n      tag_404\n        /* \"#utility.yul\":4058:4065   */\n      dup10\n        /* \"#utility.yul\":4049:4055   */\n      dup3\n        /* \"#utility.yul\":4038:4047   */\n      dup11\n        /* \"#utility.yul\":4034:4056   */\n      add\n        /* \"#utility.yul\":3986:4066   */\n      tag_315\n      jump\t// in\n    tag_404:\n        /* \"#utility.yul\":3968:4066   */\n      swap5\n      pop\n      swap5\n      pop\n        /* \"#utility.yul\":3763:4076   */\n      pop\n        /* \"#utility.yul\":4115:4117   */\n      0x60\n        /* \"#utility.yul\":4141:4194   */\n      tag_405\n        /* \"#utility.yul\":4186:4193   */\n      dup10\n        /* \"#utility.yul\":4177:4183   */\n      dup3\n        /* \"#utility.yul\":4166:4175   */\n      dup11\n        /* \"#utility.yul\":4162:4184   */\n      add\n        /* \"#utility.yul\":4141:4194   */\n      tag_317\n      jump\t// in\n    tag_405:\n        /* \"#utility.yul\":4131:4194   */\n      swap3\n      pop\n        /* \"#utility.yul\":4086:4204   */\n      pop\n        /* \"#utility.yul\":4243:4246   */\n      0x80\n        /* \"#utility.yul\":4270:4323   */\n      tag_406\n        /* \"#utility.yul\":4315:4322   */\n      dup10\n        /* \"#utility.yul\":4306:4312   */\n      dup3\n        /* \"#utility.yul\":4295:4304   */\n      dup11\n        /* \"#utility.yul\":4291:4313   */\n      add\n        /* \"#utility.yul\":4270:4323   */\n      tag_311\n      jump\t// in\n    tag_406:\n        /* \"#utility.yul\":4260:4323   */\n      swap2\n      pop\n        /* \"#utility.yul\":4214:4333   */\n      pop\n        /* \"#utility.yul\":3199:4340   */\n      swap3\n      swap6\n      pop\n      swap3\n      swap6\n      pop\n      swap3\n      swap6\n      jump\t// out\n        /* \"#utility.yul\":4346:4820   */\n    tag_39:\n        /* \"#utility.yul\":4414:4420   */\n      0x00\n        /* \"#utility.yul\":4422:4428   */\n      0x00\n        /* \"#utility.yul\":4471:4473   */\n      0x40\n        /* \"#utility.yul\":4459:4468   */\n      dup4\n        /* \"#utility.yul\":4450:4457   */\n      dup6\n        /* \"#utility.yul\":4446:4469   */\n      sub\n        /* \"#utility.yul\":4442:4474   */\n      slt\n        /* \"#utility.yul\":4439:4558   */\n      iszero\n      tag_408\n      jumpi\n        /* \"#utility.yul\":4477:4556   */\n      tag_409\n      tag_308\n      jump\t// in\n    tag_409:\n        /* \"#utility.yul\":4439:4558   */\n    tag_408:\n        /* \"#utility.yul\":4597:4598   */\n      0x00\n        /* \"#utility.yul\":4622:4675   */\n      tag_410\n        /* \"#utility.yul\":4667:4674   */\n      dup6\n        /* \"#utility.yul\":4658:4664   */\n      dup3\n        /* \"#utility.yul\":4647:4656   */\n      dup7\n        /* \"#utility.yul\":4643:4665   */\n      add\n        /* \"#utility.yul\":4622:4675   */\n      tag_317\n      jump\t// in\n    tag_410:\n        /* \"#utility.yul\":4612:4675   */\n      swap3\n      pop\n        /* \"#utility.yul\":4568:4685   */\n      pop\n        /* \"#utility.yul\":4724:4726   */\n      0x20\n        /* \"#utility.yul\":4750:4803   */\n      tag_411\n        /* \"#utility.yul\":4795:4802   */\n      dup6\n        /* \"#utility.yul\":4786:4792   */\n      dup3\n        /* \"#utility.yul\":4775:4784   */\n      dup7\n        /* \"#utility.yul\":4771:4793   */\n      add\n        /* \"#utility.yul\":4750:4803   */\n      tag_317\n      jump\t// in\n    tag_411:\n        /* \"#utility.yul\":4740:4803   */\n      swap2\n      pop\n        /* \"#utility.yul\":4695:4813   */\n      pop\n        /* \"#utility.yul\":4346:4820   */\n      swap3\n      pop\n      swap3\n      swap1\n      pop\n      jump\t// out\n        /* \"#utility.yul\":4826:5445   */\n    tag_43:\n        /* \"#utility.yul\":4903:4909   */\n      0x00\n        /* \"#utility.yul\":4911:4917   */\n      0x00\n        /* \"#utility.yul\":4919:4925   */\n      0x00\n        /* \"#utility.yul\":4968:4970   */\n      0x60\n        /* \"#utility.yul\":4956:4965   */\n      dup5\n        /* \"#utility.yul\":4947:4954   */\n      dup7\n        /* \"#utility.yul\":4943:4966   */\n      sub\n        /* \"#utility.yul\":4939:4971   */\n      slt\n        /* \"#utility.yul\":4936:5055   */\n      iszero\n      tag_413\n      jumpi\n        /* \"#utility.yul\":4974:5053   */\n      tag_414\n      tag_308\n      jump\t// in\n    tag_414:\n        /* \"#utility.yul\":4936:5055   */\n    tag_413:\n        /* \"#utility.yul\":5094:5095   */\n      0x00\n        /* \"#utility.yul\":5119:5172   */\n      tag_415\n        /* \"#utility.yul\":5164:5171   */\n      dup7\n        /* \"#utility.yul\":5155:5161   */\n      dup3\n        /* \"#utility.yul\":5144:5153   */\n      dup8\n        /* \"#utility.yul\":5140:5162   */\n      add\n        /* \"#utility.yul\":5119:5172   */\n      tag_317\n      jump\t// in\n    tag_415:\n        /* \"#utility.yul\":5109:5172   */\n      swap4\n      pop\n        /* \"#utility.yul\":5065:5182   */\n      pop\n        /* \"#utility.yul\":5221:5223   */\n      0x20\n        /* \"#utility.yul\":5247:5300   */\n      tag_416\n        /* \"#utility.yul\":5292:5299   */\n      dup7\n        /* \"#utility.yul\":5283:5289   */\n      dup3\n        /* \"#utility.yul\":5272:5281   */\n      dup8\n        /* \"#utility.yul\":5268:5290   */\n      add\n        /* \"#utility.yul\":5247:5300   */\n      tag_317\n      jump\t// in\n    tag_416:\n        /* \"#utility.yul\":5237:5300   */\n      swap3\n      pop\n        /* \"#utility.yul\":5192:5310   */\n      pop\n        /* \"#utility.yul\":5349:5351   */\n      0x40\n        /* \"#utility.yul\":5375:5428   */\n      tag_417\n        /* \"#utility.yul\":5420:5427   */\n      dup7\n        /* \"#utility.yul\":5411:5417   */\n      dup3\n        /* \"#utility.yul\":5400:5409   */\n      dup8\n        /* \"#utility.yul\":5396:5418   */\n      add\n        /* \"#utility.yul\":5375:5428   */\n      tag_311\n      jump\t// in\n    tag_417:\n        /* \"#utility.yul\":5365:5428   */\n      swap2\n      pop\n        /* \"#utility.yul\":5320:5438   */\n      pop\n        /* \"#utility.yul\":4826:5445   */\n      swap3\n      pop\n      swap3\n      pop\n      swap3\n      jump\t// out\n        /* \"#utility.yul\":5451:5780   */\n    tag_51:\n        /* \"#utility.yul\":5510:5516   */\n      0x00\n        /* \"#utility.yul\":5559:5561   */\n      0x20\n        /* \"#utility.yul\":5547:5556   */\n      dup3\n        /* \"#utility.yul\":5538:5545   */\n      dup5\n        /* \"#utility.yul\":5534:5557   */\n      sub\n        /* \"#utility.yul\":5530:5562   */\n      slt\n        /* \"#utility.yul\":5527:5646   */\n      iszero\n      tag_419\n      jumpi\n        /* \"#utility.yul\":5565:5644   */\n      tag_420\n      tag_308\n      jump\t// in\n    tag_420:\n        /* \"#utility.yul\":5527:5646   */\n    tag_419:\n        /* \"#utility.yul\":5685:5686   */\n      0x00\n        /* \"#utility.yul\":5710:5763   */\n      tag_421\n        /* \"#utility.yul\":5755:5762   */\n      dup5\n        /* \"#utility.yul\":5746:5752   */\n      dup3\n        /* \"#utility.yul\":5735:5744   */\n      dup6\n        /* \"#utility.yul\":5731:5753   */\n      add\n        /* \"#utility.yul\":5710:5763   */\n      tag_317\n      jump\t// in\n    tag_421:\n        /* \"#utility.yul\":5700:5763   */\n      swap2\n      pop\n        /* \"#utility.yul\":5656:5773   */\n      pop\n        /* \"#utility.yul\":5451:5780   */\n      swap3\n      swap2\n      pop\n      pop\n      jump\t// out\n        /* \"#utility.yul\":5786:6989   */\n    tag_60:\n        /* \"#utility.yul\":5899:5905   */\n      0x00\n        /* \"#utility.yul\":5907:5913   */\n      0x00\n        /* \"#utility.yul\":5915:5921   */\n      0x00\n        /* \"#utility.yul\":5923:5929   */\n      0x00\n        /* \"#utility.yul\":5931:5937   */\n      0x00\n        /* \"#utility.yul\":5939:5945   */\n      0x00\n        /* \"#utility.yul\":5947:5953   */\n      0x00\n        /* \"#utility.yul\":5996:5999   */\n      0xe0\n        /* \"#utility.yul\":5984:5993   */\n      dup9\n        /* \"#utility.yul\":5975:5982   */\n      dup11\n        /* \"#utility.yul\":5971:5994   */\n      sub\n        /* \"#utility.yul\":5967:6000   */\n      slt\n        /* \"#utility.yul\":5964:6084   */\n      iszero\n      tag_423\n      jumpi\n        /* \"#utility.yul\":6003:6082   */\n      tag_424\n      tag_308\n      jump\t// in\n    tag_424:\n        /* \"#utility.yul\":5964:6084   */\n    tag_423:\n        /* \"#utility.yul\":6123:6124   */\n      0x00\n        /* \"#utility.yul\":6148:6201   */\n      tag_425\n        /* \"#utility.yul\":6193:6200   */\n      dup11\n        /* \"#utility.yul\":6184:6190   */\n      dup3\n        /* \"#utility.yul\":6173:6182   */\n      dup12\n        /* \"#utility.yul\":6169:6191   */\n      add\n        /* \"#utility.yul\":6148:6201   */\n      tag_317\n      jump\t// in\n    tag_425:\n        /* \"#utility.yul\":6138:6201   */\n      swap8\n      pop\n        /* \"#utility.yul\":6094:6211   */\n      pop\n        /* \"#utility.yul\":6250:6252   */\n      0x20\n        /* \"#utility.yul\":6276:6329   */\n      tag_426\n        /* \"#utility.yul\":6321:6328   */\n      dup11\n        /* \"#utility.yul\":6312:6318   */\n      dup3\n        /* \"#utility.yul\":6301:6310   */\n      dup12\n        /* \"#utility.yul\":6297:6319   */\n      add\n        /* \"#utility.yul\":6276:6329   */\n      tag_317\n      jump\t// in\n    tag_426:\n        /* \"#utility.yul\":6266:6329   */\n      swap7\n      pop\n        /* \"#utility.yul\":6221:6339   */\n      pop\n        /* \"#utility.yul\":6378:6380   */\n      0x40\n        /* \"#utility.yul\":6404:6457   */\n      tag_427\n        /* \"#utility.yul\":6449:6456   */\n      dup11\n        /* \"#utility.yul\":6440:6446   */\n      dup3\n        /* \"#utility.yul\":6429:6438   */\n      dup12\n        /* \"#utility.yul\":6425:6447   */\n      add\n        /* \"#utility.yul\":6404:6457   */\n      tag_311\n      jump\t// in\n    tag_427:\n        /* \"#utility.yul\":6394:6457   */\n      swap6\n      pop\n        /* \"#utility.yul\":6349:6467   */\n      pop\n        /* \"#utility.yul\":6506:6508   */\n      0x60\n        /* \"#utility.yul\":6532:6585   */\n      tag_428\n        /* \"#utility.yul\":6577:6584   */\n      dup11\n        /* \"#utility.yul\":6568:6574   */\n      dup3\n        /* \"#utility.yul\":6557:6566   */\n      dup12\n        /* \"#utility.yul\":6553:6575   */\n      add\n        /* \"#utility.yul\":6532:6585   */\n      tag_311\n      jump\t// in\n    tag_428:\n        /* \"#utility.yul\":6522:6585   */\n      swap5\n      pop\n        /* \"#utility.yul\":6477:6595   */\n      pop\n        /* \"#utility.yul\":6634:6637   */\n      0x80\n        /* \"#utility.yul\":6661:6714   */\n      tag_429\n        /* \"#utility.yul\":6706:6713   */\n      dup11\n        /* \"#utility.yul\":6697:6703   */\n      dup3\n        /* \"#utility.yul\":6686:6695   */\n      dup12\n        /* \"#utility.yul\":6682:6704   */\n      add\n        /* \"#utility.yul\":6661:6714   */\n      tag_311\n      jump\t// in\n    tag_429:\n        /* \"#utility.yul\":6651:6714   */\n      swap4\n      pop\n        /* \"#utility.yul\":6605:6724   */\n      pop\n        /* \"#utility.yul\":6763:6766   */\n      0xa0\n        /* \"#utility.yul\":6790:6843   */\n      tag_430\n        /* \"#utility.yul\":6835:6842   */\n      dup11\n        /* \"#utility.yul\":6826:6832   */\n      dup3\n        /* \"#utility.yul\":6815:6824   */\n      dup12\n        /* \"#utility.yul\":6811:6833   */\n      add\n        /* \"#utility.yul\":6790:6843   */\n      tag_317\n      jump\t// in\n    tag_430:\n        /* \"#utility.yul\":6780:6843   */\n      swap3\n      pop\n        /* \"#utility.yul\":6734:6853   */\n      pop\n        /* \"#utility.yul\":6892:6895   */\n      0xc0\n        /* \"#utility.yul\":6919:6972   */\n      tag_431\n        /* \"#utility.yul\":6964:6971   */\n      dup11\n        /* \"#utility.yul\":6955:6961   */\n      dup3\n        /* \"#utility.yul\":6944:6953   */\n      dup12\n        /* \"#utility.yul\":6940:6962   */\n      add\n        /* \"#utility.yul\":6919:6972   */\n      tag_311\n      jump\t// in\n    tag_431:\n        /* \"#utility.yul\":6909:6972   */\n      swap2\n      pop\n        /* \"#utility.yul\":6863:6982   */\n      pop\n        /* \"#utility.yul\":5786:6989   */\n      swap3\n      swap6\n      swap9\n      swap2\n      swap5\n      swap8\n      pop\n      swap3\n      swap6\n      pop\n      jump\t// out\n        /* \"#utility.yul\":6995:8344   */\n    tag_68:\n        /* \"#utility.yul\":7117:7123   */\n      0x00\n        /* \"#utility.yul\":7125:7131   */\n      0x00\n        /* \"#utility.yul\":7133:7139   */\n      0x00\n        /* \"#utility.yul\":7141:7147   */\n      0x00\n        /* \"#utility.yul\":7149:7155   */\n      0x00\n        /* \"#utility.yul\":7157:7163   */\n      0x00\n        /* \"#utility.yul\":7165:7171   */\n      0x00\n        /* \"#utility.yul\":7173:7179   */\n      0x00\n        /* \"#utility.yul\":7222:7225   */\n      0x0100\n        /* \"#utility.yul\":7210:7219   */\n      dup10\n        /* \"#utility.yul\":7201:7208   */\n      dup12\n        /* \"#utility.yul\":7197:7220   */\n      sub\n        /* \"#utility.yul\":7193:7226   */\n      slt\n        /* \"#utility.yul\":7190:7310   */\n      iszero\n      tag_433\n      jumpi\n        /* \"#utility.yul\":7229:7308   */\n      tag_434\n      tag_308\n      jump\t// in\n    tag_434:\n        /* \"#utility.yul\":7190:7310   */\n    tag_433:\n        /* \"#utility.yul\":7349:7350   */\n      0x00\n        /* \"#utility.yul\":7374:7427   */\n      tag_435\n        /* \"#utility.yul\":7419:7426   */\n      dup12\n        /* \"#utility.yul\":7410:7416   */\n      dup3\n        /* \"#utility.yul\":7399:7408   */\n      dup13\n        /* \"#utility.yul\":7395:7417   */\n      add\n        /* \"#utility.yul\":7374:7427   */\n      tag_317\n      jump\t// in\n    tag_435:\n        /* \"#utility.yul\":7364:7427   */\n      swap9\n      pop\n        /* \"#utility.yul\":7320:7437   */\n      pop\n        /* \"#utility.yul\":7476:7478   */\n      0x20\n        /* \"#utility.yul\":7502:7555   */\n      tag_436\n        /* \"#utility.yul\":7547:7554   */\n      dup12\n        /* \"#utility.yul\":7538:7544   */\n      dup3\n        /* \"#utility.yul\":7527:7536   */\n      dup13\n        /* \"#utility.yul\":7523:7545   */\n      add\n        /* \"#utility.yul\":7502:7555   */\n      tag_317\n      jump\t// in\n    tag_436:\n        /* \"#utility.yul\":7492:7555   */\n      swap8\n      pop\n        /* \"#utility.yul\":7447:7565   */\n      pop\n        /* \"#utility.yul\":7604:7606   */\n      0x40\n        /* \"#utility.yul\":7630:7683   */\n      tag_437\n        /* \"#utility.yul\":7675:7682   */\n      dup12\n        /* \"#utility.yul\":7666:7672   */\n      dup3\n        /* \"#utility.yul\":7655:7664   */\n      dup13\n        /* \"#utility.yul\":7651:7673   */\n      add\n        /* \"#utility.yul\":7630:7683   */\n      tag_311\n      jump\t// in\n    tag_437:\n        /* \"#utility.yul\":7620:7683   */\n      swap7\n      pop\n        /* \"#utility.yul\":7575:7693   */\n      pop\n        /* \"#utility.yul\":7732:7734   */\n      0x60\n        /* \"#utility.yul\":7758:7811   */\n      tag_438\n        /* \"#utility.yul\":7803:7810   */\n      dup12\n        /* \"#utility.yul\":7794:7800   */\n      dup3\n        /* \"#utility.yul\":7783:7792   */\n      dup13\n        /* \"#utility.yul\":7779:7801   */\n      add\n        /* \"#utility.yul\":7758:7811   */\n      tag_311\n      jump\t// in\n    tag_438:\n        /* \"#utility.yul\":7748:7811   */\n      swap6\n      pop\n        /* \"#utility.yul\":7703:7821   */\n      pop\n        /* \"#utility.yul\":7860:7863   */\n      0x80\n        /* \"#utility.yul\":7887:7940   */\n      tag_439\n        /* \"#utility.yul\":7932:7939   */\n      dup12\n        /* \"#utility.yul\":7923:7929   */\n      dup3\n        /* \"#utility.yul\":7912:7921   */\n      dup13\n        /* \"#utility.yul\":7908:7930   */\n      add\n        /* \"#utility.yul\":7887:7940   */\n      tag_311\n      jump\t// in\n    tag_439:\n        /* \"#utility.yul\":7877:7940   */\n      swap5\n      pop\n        /* \"#utility.yul\":7831:7950   */\n      pop\n        /* \"#utility.yul\":7989:7992   */\n      0xa0\n        /* \"#utility.yul\":8016:8069   */\n      tag_440\n        /* \"#utility.yul\":8061:8068   */\n      dup12\n        /* \"#utility.yul\":8052:8058   */\n      dup3\n        /* \"#utility.yul\":8041:8050   */\n      dup13\n        /* \"#utility.yul\":8037:8059   */\n      add\n        /* \"#utility.yul\":8016:8069   */\n      tag_311\n      jump\t// in\n    tag_440:\n        /* \"#utility.yul\":8006:8069   */\n      swap4\n      pop\n        /* \"#utility.yul\":7960:8079   */\n      pop\n        /* \"#utility.yul\":8118:8121   */\n      0xc0\n        /* \"#utility.yul\":8145:8198   */\n      tag_441\n        /* \"#utility.yul\":8190:8197   */\n      dup12\n        /* \"#utility.yul\":8181:8187   */\n      dup3\n        /* \"#utility.yul\":8170:8179   */\n      dup13\n        /* \"#utility.yul\":8166:8188   */\n      add\n        /* \"#utility.yul\":8145:8198   */\n      tag_317\n      jump\t// in\n    tag_441:\n        /* \"#utility.yul\":8135:8198   */\n      swap3\n      pop\n        /* \"#utility.yul\":8089:8208   */\n      pop\n        /* \"#utility.yul\":8247:8250   */\n      0xe0\n        /* \"#utility.yul\":8274:8327   */\n      tag_442\n        /* \"#utility.yul\":8319:8326   */\n      dup12\n        /* \"#utility.yul\":8310:8316   */\n      dup3\n        /* \"#utility.yul\":8299:8308   */\n      dup13\n        /* \"#utility.yul\":8295:8317   */\n      add\n        /* \"#utility.yul\":8274:8327   */\n      tag_311\n      jump\t// in\n    tag_442:\n        /* \"#utility.yul\":8264:8327   */\n      swap2\n      pop\n        /* \"#utility.yul\":8218:8337   */\n      pop\n        /* \"#utility.yul\":6995:8344   */\n      swap3\n      swap6\n      swap9\n      pop\n      swap3\n      swap6\n      swap9\n      swap1\n      swap4\n      swap7\n      pop\n      jump\t// out\n        /* \"#utility.yul\":8350:8792   */\n    tag_71:\n        /* \"#utility.yul\":8499:8503   */\n      0x00\n        /* \"#utility.yul\":8537:8539   */\n      0x60\n        /* \"#utility.yul\":8526:8535   */\n      dup3\n        /* \"#utility.yul\":8522:8540   */\n      add\n        /* \"#utility.yul\":8514:8540   */\n      swap1\n      pop\n        /* \"#utility.yul\":8550:8621   */\n      tag_444\n        /* \"#utility.yul\":8618:8619   */\n      0x00\n        /* \"#utility.yul\":8607:8616   */\n      dup4\n        /* \"#utility.yul\":8603:8620   */\n      add\n        /* \"#utility.yul\":8594:8600   */\n      dup7\n        /* \"#utility.yul\":8550:8621   */\n      tag_303\n      jump\t// in\n    tag_444:\n        /* \"#utility.yul\":8631:8703   */\n      tag_445\n        /* \"#utility.yul\":8699:8701   */\n      0x20\n        /* \"#utility.yul\":8688:8697   */\n      dup4\n        /* \"#utility.yul\":8684:8702   */\n      add\n        /* \"#utility.yul\":8675:8681   */\n      dup6\n        /* \"#utility.yul\":8631:8703   */\n      tag_303\n      jump\t// in\n    tag_445:\n        /* \"#utility.yul\":8713:8785   */\n      tag_446\n        /* \"#utility.yul\":8781:8783   */\n      0x40\n        /* \"#utility.yul\":8770:8779   */\n      dup4\n        /* \"#utility.yul\":8766:8784   */\n      add\n        /* \"#utility.yul\":8757:8763   */\n      dup5\n        /* \"#utility.yul\":8713:8785   */\n      tag_303\n      jump\t// in\n    tag_446:\n        /* \"#utility.yul\":8350:8792   */\n      swap5\n      swap4\n      pop\n      pop\n      pop\n      pop\n      jump\t// out\n        /* \"#utility.yul\":8798:8967   */\n    tag_318:\n        /* \"#utility.yul\":8882:8893   */\n      0x00\n        /* \"#utility.yul\":8916:8922   */\n      dup3\n        /* \"#utility.yul\":8911:8914   */\n      dup3\n        /* \"#utility.yul\":8904:8923   */\n      mstore\n        /* \"#utility.yul\":8956:8960   */\n      0x20\n        /* \"#utility.yul\":8951:8954   */\n      dup3\n        /* \"#utility.yul\":8947:8961   */\n      add\n        /* \"#utility.yul\":8932:8961   */\n      swap1\n      pop\n        /* \"#utility.yul\":8798:8967   */\n      swap3\n      swap2\n      pop\n      pop\n      jump\t// out\n        /* \"#utility.yul\":8973:9142   */\n    tag_319:\n        /* \"#utility.yul\":9113:9134   */\n      0x5472616e73616374696f6e206578706972656400000000000000000000000000\n        /* \"#utility.yul\":9109:9110   */\n      0x00\n        /* \"#utility.yul\":9101:9107   */\n      dup3\n        /* \"#utility.yul\":9097:9111   */\n      add\n        /* \"#utility.yul\":9090:9135   */\n      mstore\n        /* \"#utility.yul\":8973:9142   */\n      pop\n      jump\t// out\n        /* \"#utility.yul\":9148:9514   */\n    tag_320:\n        /* \"#utility.yul\":9290:9293   */\n      0x00\n        /* \"#utility.yul\":9311:9378   */\n      tag_450\n        /* \"#utility.yul\":9375:9377   */\n      0x13\n        /* \"#utility.yul\":9370:9373   */\n      dup4\n        /* \"#utility.yul\":9311:9378   */\n      tag_318\n      jump\t// in\n    tag_450:\n        /* \"#utility.yul\":9304:9378   */\n      swap2\n      pop\n        /* \"#utility.yul\":9387:9480   */\n      tag_451\n        /* \"#utility.yul\":9476:9479   */\n      dup3\n        /* \"#utility.yul\":9387:9480   */\n      tag_319\n      jump\t// in\n    tag_451:\n        /* \"#utility.yul\":9505:9507   */\n      0x20\n        /* \"#utility.yul\":9500:9503   */\n      dup3\n        /* \"#utility.yul\":9496:9508   */\n      add\n        /* \"#utility.yul\":9489:9508   */\n      swap1\n      pop\n        /* \"#utility.yul\":9148:9514   */\n      swap2\n      swap1\n      pop\n      jump\t// out\n        /* \"#utility.yul\":9520:9939   */\n    tag_76:\n        /* \"#utility.yul\":9686:9690   */\n      0x00\n        /* \"#utility.yul\":9724:9726   */\n      0x20\n        /* \"#utility.yul\":9713:9722   */\n      dup3\n        /* \"#utility.yul\":9709:9727   */\n      add\n        /* \"#utility.yul\":9701:9727   */\n      swap1\n      pop\n        /* \"#utility.yul\":9773:9782   */\n      dup2\n        /* \"#utility.yul\":9767:9771   */\n      dup2\n        /* \"#utility.yul\":9763:9783   */\n      sub\n        /* \"#utility.yul\":9759:9760   */\n      0x00\n        /* \"#utility.yul\":9748:9757   */\n      dup4\n        /* \"#utility.yul\":9744:9761   */\n      add\n        /* \"#utility.yul\":9737:9784   */\n      mstore\n        /* \"#utility.yul\":9801:9932   */\n      tag_453\n        /* \"#utility.yul\":9927:9931   */\n      dup2\n        /* \"#utility.yul\":9801:9932   */\n      tag_320\n      jump\t// in\n    tag_453:\n        /* \"#utility.yul\":9793:9932   */\n      swap1\n      pop\n        /* \"#utility.yul\":9520:9939   */\n      swap2\n      swap1\n      pop\n      jump\t// out\n        /* \"#utility.yul\":9945:10108   */\n    tag_321:\n        /* \"#utility.yul\":10085:10100   */\n      0x496e76616c696420696e70757400000000000000000000000000000000000000\n        /* \"#utility.yul\":10081:10082   */\n      0x00\n        /* \"#utility.yul\":10073:10079   */\n      dup3\n        /* \"#utility.yul\":10069:10083   */\n      add\n        /* \"#utility.yul\":10062:10101   */\n      mstore\n        /* \"#utility.yul\":9945:10108   */\n      pop\n      jump\t// out\n        /* \"#utility.yul\":10114:10480   */\n    tag_322:\n        /* \"#utility.yul\":10256:10259   */\n      0x00\n        /* \"#utility.yul\":10277:10344   */\n      tag_456\n        /* \"#utility.yul\":10341:10343   */\n      0x0d\n        /* \"#utility.yul\":10336:10339   */\n      dup4\n        /* \"#utility.yul\":10277:10344   */\n      tag_318\n      jump\t// in\n    tag_456:\n        /* \"#utility.yul\":10270:10344   */\n      swap2\n      pop\n        /* \"#utility.yul\":10353:10446   */\n      tag_457\n        /* \"#utility.yul\":10442:10445   */\n      dup3\n        /* \"#utility.yul\":10353:10446   */\n      tag_321\n      jump\t// in\n    tag_457:\n        /* \"#utility.yul\":10471:10473   */\n      0x20\n        /* \"#utility.yul\":10466:10469   */\n      dup3\n        /* \"#utility.yul\":10462:10474   */\n      add\n        /* \"#utility.yul\":10455:10474   */\n      swap1\n      pop\n        /* \"#utility.yul\":10114:10480   */\n      swap2\n      swap1\n      pop\n      jump\t// out\n        /* \"#utility.yul\":10486:10905   */\n    tag_79:\n        /* \"#utility.yul\":10652:10656   */\n      0x00\n        /* \"#utility.yul\":10690:10692   */\n      0x20\n        /* \"#utility.yul\":10679:10688   */\n      dup3\n        /* \"#utility.yul\":10675:10693   */\n      add\n        /* \"#utility.yul\":10667:10693   */\n      swap1\n      pop\n        /* \"#utility.yul\":10739:10748   */\n      dup2\n        /* \"#utility.yul\":10733:10737   */\n      dup2\n        /* \"#utility.yul\":10729:10749   */\n      sub\n        /* \"#utility.yul\":10725:10726   */\n      0x00\n        /* \"#utility.yul\":10714:10723   */\n      dup4\n        /* \"#utility.yul\":10710:10727   */\n      add\n        /* \"#utility.yul\":10703:10750   */\n      mstore\n        /* \"#utility.yul\":10767:10898   */\n      tag_459\n        /* \"#utility.yul\":10893:10897   */\n      dup2\n        /* \"#utility.yul\":10767:10898   */\n      tag_322\n      jump\t// in\n    tag_459:\n        /* \"#utility.yul\":10759:10898   */\n      swap1\n      pop\n        /* \"#utility.yul\":10486:10905   */\n      swap2\n      swap1\n      pop\n      jump\t// out\n        /* \"#utility.yul\":10911:11073   */\n    tag_323:\n        /* \"#utility.yul\":11051:11065   */\n      0x496e76616c696420706174680000000000000000000000000000000000000000\n        /* \"#utility.yul\":11047:11048   */\n      0x00\n        /* \"#utility.yul\":11039:11045   */\n      dup3\n        /* \"#utility.yul\":11035:11049   */\n      add\n        /* \"#utility.yul\":11028:11066   */\n      mstore\n        /* \"#utility.yul\":10911:11073   */\n      pop\n      jump\t// out\n        /* \"#utility.yul\":11079:11445   */\n    tag_324:\n        /* \"#utility.yul\":11221:11224   */\n      0x00\n        /* \"#utility.yul\":11242:11309   */\n      tag_462\n        /* \"#utility.yul\":11306:11308   */\n      0x0c\n        /* \"#utility.yul\":11301:11304   */\n      dup4\n        /* \"#utility.yul\":11242:11309   */\n      tag_318\n      jump\t// in\n    tag_462:\n        /* \"#utility.yul\":11235:11309   */\n      swap2\n      pop\n        /* \"#utility.yul\":11318:11411   */\n      tag_463\n        /* \"#utility.yul\":11407:11410   */\n      dup3\n        /* \"#utility.yul\":11318:11411   */\n      tag_323\n      jump\t// in\n    tag_463:\n        /* \"#utility.yul\":11436:11438   */\n      0x20\n        /* \"#utility.yul\":11431:11434   */\n      dup3\n        /* \"#utility.yul\":11427:11439   */\n      add\n        /* \"#utility.yul\":11420:11439   */\n      swap1\n      pop\n        /* \"#utility.yul\":11079:11445   */\n      swap2\n      swap1\n      pop\n      jump\t// out\n        /* \"#utility.yul\":11451:11870   */\n    tag_82:\n        /* \"#utility.yul\":11617:11621   */\n      0x00\n        /* \"#utility.yul\":11655:11657   */\n      0x20\n        /* \"#utility.yul\":11644:11653   */\n      dup3\n        /* \"#utility.yul\":11640:11658   */\n      add\n        /* \"#utility.yul\":11632:11658   */\n      swap1\n      pop\n        /* \"#utility.yul\":11704:11713   */\n      dup2\n        /* \"#utility.yul\":11698:11702   */\n      dup2\n        /* \"#utility.yul\":11694:11714   */\n      sub\n        /* \"#utility.yul\":11690:11691   */\n      0x00\n        /* \"#utility.yul\":11679:11688   */\n      dup4\n        /* \"#utility.yul\":11675:11692   */\n      add\n        /* \"#utility.yul\":11668:11715   */\n      mstore\n        /* \"#utility.yul\":11732:11863   */\n      tag_465\n        /* \"#utility.yul\":11858:11862   */\n      dup2\n        /* \"#utility.yul\":11732:11863   */\n      tag_324\n      jump\t// in\n    tag_465:\n        /* \"#utility.yul\":11724:11863   */\n      swap1\n      pop\n        /* \"#utility.yul\":11451:11870   */\n      swap2\n      swap1\n      pop\n      jump\t// out\n        /* \"#utility.yul\":11876:12038   */\n    tag_325:\n        /* \"#utility.yul\":12016:12030   */\n      0x5a65726f20616464726573730000000000000000000000000000000000000000\n        /* \"#utility.yul\":12012:12013   */\n      0x00\n        /* \"#utility.yul\":12004:12010   */\n      dup3\n        /* \"#utility.yul\":12000:12014   */\n      add\n        /* \"#utility.yul\":11993:12031   */\n      mstore\n        /* \"#utility.yul\":11876:12038   */\n      pop\n      jump\t// out\n        /* \"#utility.yul\":12044:12410   */\n    tag_326:\n        /* \"#utility.yul\":12186:12189   */\n      0x00\n        /* \"#utility.yul\":12207:12274   */\n      tag_468\n        /* \"#utility.yul\":12271:12273   */\n      0x0c\n        /* \"#utility.yul\":12266:12269   */\n      dup4\n        /* \"#utility.yul\":12207:12274   */\n      tag_318\n      jump\t// in\n    tag_468:\n        /* \"#utility.yul\":12200:12274   */\n      swap2\n      pop\n        /* \"#utility.yul\":12283:12376   */\n      tag_469\n        /* \"#utility.yul\":12372:12375   */\n      dup3\n        /* \"#utility.yul\":12283:12376   */\n      tag_325\n      jump\t// in\n    tag_469:\n        /* \"#utility.yul\":12401:12403   */\n      0x20\n        /* \"#utility.yul\":12396:12399   */\n      dup3\n        /* \"#utility.yul\":12392:12404   */\n      add\n        /* \"#utility.yul\":12385:12404   */\n      swap1\n      pop\n        /* \"#utility.yul\":12044:12410   */\n      swap2\n      swap1\n      pop\n      jump\t// out\n        /* \"#utility.yul\":12416:12835   */\n    tag_85:\n        /* \"#utility.yul\":12582:12586   */\n      0x00\n        /* \"#utility.yul\":12620:12622   */\n      0x20\n        /* \"#utility.yul\":12609:12618   */\n      dup3\n        /* \"#utility.yul\":12605:12623   */\n      add\n        /* \"#utility.yul\":12597:12623   */\n      swap1\n      pop\n        /* \"#utility.yul\":12669:12678   */\n      dup2\n        /* \"#utility.yul\":12663:12667   */\n      dup2\n        /* \"#utility.yul\":12659:12679   */\n      sub\n        /* \"#utility.yul\":12655:12656   */\n      0x00\n        /* \"#utility.yul\":12644:12653   */\n      dup4\n        /* \"#utility.yul\":12640:12657   */\n      add\n        /* \"#utility.yul\":12633:12680   */\n      mstore\n        /* \"#utility.yul\":12697:12828   */\n      tag_471\n        /* \"#utility.yul\":12823:12827   */\n      dup2\n        /* \"#utility.yul\":12697:12828   */\n      tag_326\n      jump\t// in\n    tag_471:\n        /* \"#utility.yul\":12689:12828   */\n      swap1\n      pop\n        /* \"#utility.yul\":12416:12835   */\n      swap2\n      swap1\n      pop\n      jump\t// out\n        /* \"#utility.yul\":12841:13021   */\n    tag_88:\n        /* \"#utility.yul\":12889:12966   */\n      0x4e487b7100000000000000000000000000000000000000000000000000000000\n        /* \"#utility.yul\":12886:12887   */\n      0x00\n        /* \"#utility.yul\":12879:12967   */\n      mstore\n        /* \"#utility.yul\":12986:12990   */\n      0x32\n        /* \"#utility.yul\":12983:12984   */\n      0x04\n        /* \"#utility.yul\":12976:12991   */\n      mstore\n        /* \"#utility.yul\":13010:13014   */\n      0x24\n        /* \"#utility.yul\":13007:13008   */\n      0x00\n        /* \"#utility.yul\":13000:13015   */\n      revert\n        /* \"#utility.yul\":13027:13190   */\n    tag_327:\n        /* \"#utility.yul\":13167:13182   */\n      0x496e76616c696420746f6b656e00000000000000000000000000000000000000\n        /* \"#utility.yul\":13163:13164   */\n      0x00\n        /* \"#utility.yul\":13155:13161   */\n      dup3\n        /* \"#utility.yul\":13151:13165   */\n      add\n        /* \"#utility.yul\":13144:13183   */\n      mstore\n        /* \"#utility.yul\":13027:13190   */\n      pop\n      jump\t// out\n        /* \"#utility.yul\":13196:13562   */\n    tag_328:\n        /* \"#utility.yul\":13338:13341   */\n      0x00\n        /* \"#utility.yul\":13359:13426   */\n      tag_475\n        /* \"#utility.yul\":13423:13425   */\n      0x0d\n        /* \"#utility.yul\":13418:13421   */\n      dup4\n        /* \"#utility.yul\":13359:13426   */\n      tag_318\n      jump\t// in\n    tag_475:\n        /* \"#utility.yul\":13352:13426   */\n      swap2\n      pop\n        /* \"#utility.yul\":13435:13528   */\n      tag_476\n        /* \"#utility.yul\":13524:13527   */\n      dup3\n        /* \"#utility.yul\":13435:13528   */\n      tag_327\n      jump\t// in\n    tag_476:\n        /* \"#utility.yul\":13553:13555   */\n      0x20\n        /* \"#utility.yul\":13548:13551   */\n      dup3\n        /* \"#utility.yul\":13544:13556   */\n      add\n        /* \"#utility.yul\":13537:13556   */\n      swap1\n      pop\n        /* \"#utility.yul\":13196:13562   */\n      swap2\n      swap1\n      pop\n      jump\t// out\n        /* \"#utility.yul\":13568:13987   */\n    tag_96:\n        /* \"#utility.yul\":13734:13738   */\n      0x00\n        /* \"#utility.yul\":13772:13774   */\n      0x20\n        /* \"#utility.yul\":13761:13770   */\n      dup3\n        /* \"#utility.yul\":13757:13775   */\n      add\n        /* \"#utility.yul\":13749:13775   */\n      swap1\n      pop\n        /* \"#utility.yul\":13821:13830   */\n      dup2\n        /* \"#utility.yul\":13815:13819   */\n      dup2\n        /* \"#utility.yul\":13811:13831   */\n      sub\n        /* \"#utility.yul\":13807:13808   */\n      0x00\n        /* \"#utility.yul\":13796:13805   */\n      dup4\n        /* \"#utility.yul\":13792:13809   */\n      add\n        /* \"#utility.yul\":13785:13832   */\n      mstore\n        /* \"#utility.yul\":13849:13980   */\n      tag_478\n        /* \"#utility.yul\":13975:13979   */\n      dup2\n        /* \"#utility.yul\":13849:13980   */\n      tag_328\n      jump\t// in\n    tag_478:\n        /* \"#utility.yul\":13841:13980   */\n      swap1\n      pop\n        /* \"#utility.yul\":13568:13987   */\n      swap2\n      swap1\n      pop\n      jump\t// out\n        /* \"#utility.yul\":13993:14154   */\n    tag_329:\n        /* \"#utility.yul\":14133:14146   */\n      0x53616d6520746f6b656e73000000000000000000000000000000000000000000\n        /* \"#utility.yul\":14129:14130   */\n      0x00\n        /* \"#utility.yul\":14121:14127   */\n      dup3\n        /* \"#utility.yul\":14117:14131   */\n      add\n        /* \"#utility.yul\":14110:14147   */\n      mstore\n        /* \"#utility.yul\":13993:14154   */\n      pop\n      jump\t// out\n        /* \"#utility.yul\":14160:14526   */\n    tag_330:\n        /* \"#utility.yul\":14302:14305   */\n      0x00\n        /* \"#utility.yul\":14323:14390   */\n      tag_481\n        /* \"#utility.yul\":14387:14389   */\n      0x0b\n        /* \"#utility.yul\":14382:14385   */\n      dup4\n        /* \"#utility.yul\":14323:14390   */\n      tag_318\n      jump\t// in\n    tag_481:\n        /* \"#utility.yul\":14316:14390   */\n      swap2\n      pop\n        /* \"#utility.yul\":14399:14492   */\n      tag_482\n        /* \"#utility.yul\":14488:14491   */\n      dup3\n        /* \"#utility.yul\":14399:14492   */\n      tag_329\n      jump\t// in\n    tag_482:\n        /* \"#utility.yul\":14517:14519   */\n      0x20\n        /* \"#utility.yul\":14512:14515   */\n      dup3\n        /* \"#utility.yul\":14508:14520   */\n      add\n        /* \"#utility.yul\":14501:14520   */\n      swap1\n      pop\n        /* \"#utility.yul\":14160:14526   */\n      swap2\n      swap1\n      pop\n      jump\t// out\n        /* \"#utility.yul\":14532:14951   */\n    tag_102:\n        /* \"#utility.yul\":14698:14702   */\n      0x00\n        /* \"#utility.yul\":14736:14738   */\n      0x20\n        /* \"#utility.yul\":14725:14734   */\n      dup3\n        /* \"#utility.yul\":14721:14739   */\n      add\n        /* \"#utility.yul\":14713:14739   */\n      swap1\n      pop\n        /* \"#utility.yul\":14785:14794   */\n      dup2\n        /* \"#utility.yul\":14779:14783   */\n      dup2\n        /* \"#utility.yul\":14775:14795   */\n      sub\n        /* \"#utility.yul\":14771:14772   */\n      0x00\n        /* \"#utility.yul\":14760:14769   */\n      dup4\n        /* \"#utility.yul\":14756:14773   */\n      add\n        /* \"#utility.yul\":14749:14796   */\n      mstore\n        /* \"#utility.yul\":14813:14944   */\n      tag_484\n        /* \"#utility.yul\":14939:14943   */\n      dup2\n        /* \"#utility.yul\":14813:14944   */\n      tag_330\n      jump\t// in\n    tag_484:\n        /* \"#utility.yul\":14805:14944   */\n      swap1\n      pop\n        /* \"#utility.yul\":14532:14951   */\n      swap2\n      swap1\n      pop\n      jump\t// out\n        /* \"#utility.yul\":14957:15126   */\n    tag_331:\n        /* \"#utility.yul\":15097:15118   */\n      0x496e73756666696369656e74206f757470757400000000000000000000000000\n        /* \"#utility.yul\":15093:15094   */\n      0x00\n        /* \"#utility.yul\":15085:15091   */\n      dup3\n        /* \"#utility.yul\":15081:15095   */\n      add\n        /* \"#utility.yul\":15074:15119   */\n      mstore\n        /* \"#utility.yul\":14957:15126   */\n      pop\n      jump\t// out\n        /* \"#utility.yul\":15132:15498   */\n    tag_332:\n        /* \"#utility.yul\":15274:15277   */\n      0x00\n        /* \"#utility.yul\":15295:15362   */\n      tag_487\n        /* \"#utility.yul\":15359:15361   */\n      0x13\n        /* \"#utility.yul\":15354:15357   */\n      dup4\n        /* \"#utility.yul\":15295:15362   */\n      tag_318\n      jump\t// in\n    tag_487:\n        /* \"#utility.yul\":15288:15362   */\n      swap2\n      pop\n        /* \"#utility.yul\":15371:15464   */\n      tag_488\n        /* \"#utility.yul\":15460:15463   */\n      dup3\n        /* \"#utility.yul\":15371:15464   */\n      tag_331\n      jump\t// in\n    tag_488:\n        /* \"#utility.yul\":15489:15491   */\n      0x20\n        /* \"#utility.yul\":15484:15487   */\n      dup3\n        /* \"#utility.yul\":15480:15492   */\n      add\n        /* \"#utility.yul\":15473:15492   */\n      swap1\n      pop\n        /* \"#utility.yul\":15132:15498   */\n      swap2\n      swap1\n      pop\n      jump\t// out\n        /* \"#utility.yul\":15504:15923   */\n    tag_111:\n        /* \"#utility.yul\":15670:15674   */\n      0x00\n        /* \"#utility.yul\":15708:15710   */\n      0x20\n        /* \"#utility.yul\":15697:15706   */\n      dup3\n        /* \"#utility.yul\":15693:15711   */\n      add\n        /* \"#utility.yul\":15685:15711   */\n      swap1\n      pop\n        /* \"#utility.yul\":15757:15766   */\n      dup2\n        /* \"#utility.yul\":15751:15755   */\n      dup2\n        /* \"#utility.yul\":15747:15767   */\n      sub\n        /* \"#utility.yul\":15743:15744   */\n      0x00\n        /* \"#utility.yul\":15732:15741   */\n      dup4\n        /* \"#utility.yul\":15728:15745   */\n      add\n        /* \"#utility.yul\":15721:15768   */\n      mstore\n        /* \"#utility.yul\":15785:15916   */\n      tag_490\n        /* \"#utility.yul\":15911:15915   */\n      dup2\n        /* \"#utility.yul\":15785:15916   */\n      tag_332\n      jump\t// in\n    tag_490:\n        /* \"#utility.yul\":15777:15916   */\n      swap1\n      pop\n        /* \"#utility.yul\":15504:15923   */\n      swap2\n      swap1\n      pop\n      jump\t// out\n        /* \"#utility.yul\":15929:16371   */\n    tag_113:\n        /* \"#utility.yul\":16078:16082   */\n      0x00\n        /* \"#utility.yul\":16116:16118   */\n      0x60\n        /* \"#utility.yul\":16105:16114   */\n      dup3\n        /* \"#utility.yul\":16101:16119   */\n      add\n        /* \"#utility.yul\":16093:16119   */\n      swap1\n      pop\n        /* \"#utility.yul\":16129:16200   */\n      tag_492\n        /* \"#utility.yul\":16197:16198   */\n      0x00\n        /* \"#utility.yul\":16186:16195   */\n      dup4\n        /* \"#utility.yul\":16182:16199   */\n      add\n        /* \"#utility.yul\":16173:16179   */\n      dup7\n        /* \"#utility.yul\":16129:16200   */\n      tag_306\n      jump\t// in\n    tag_492:\n        /* \"#utility.yul\":16210:16282   */\n      tag_493\n        /* \"#utility.yul\":16278:16280   */\n      0x20\n        /* \"#utility.yul\":16267:16276   */\n      dup4\n        /* \"#utility.yul\":16263:16281   */\n      add\n        /* \"#utility.yul\":16254:16260   */\n      dup6\n        /* \"#utility.yul\":16210:16282   */\n      tag_306\n      jump\t// in\n    tag_493:\n        /* \"#utility.yul\":16292:16364   */\n      tag_494\n        /* \"#utility.yul\":16360:16362   */\n      0x40\n        /* \"#utility.yul\":16349:16358   */\n      dup4\n        /* \"#utility.yul\":16345:16363   */\n      add\n        /* \"#utility.yul\":16336:16342   */\n      dup5\n        /* \"#utility.yul\":16292:16364   */\n      tag_303\n      jump\t// in\n    tag_494:\n        /* \"#utility.yul\":15929:16371   */\n      swap5\n      swap4\n      pop\n      pop\n      pop\n      pop\n      jump\t// out\n        /* \"#utility.yul\":16377:16467   */\n    tag_333:\n        /* \"#utility.yul\":16411:16418   */\n      0x00\n        /* \"#utility.yul\":16454:16459   */\n      dup2\n        /* \"#utility.yul\":16447:16460   */\n      iszero\n        /* \"#utility.yul\":16440:16461   */\n      iszero\n        /* \"#utility.yul\":16429:16461   */\n      swap1\n      pop\n        /* \"#utility.yul\":16377:16467   */\n      swap2\n      swap1\n      pop\n      jump\t// out\n        /* \"#utility.yul\":16473:16589   */\n    tag_334:\n        /* \"#utility.yul\":16543:16564   */\n      tag_497\n        /* \"#utility.yul\":16558:16563   */\n      dup2\n        /* \"#utility.yul\":16543:16564   */\n      tag_333\n      jump\t// in\n    tag_497:\n        /* \"#utility.yul\":16536:16541   */\n      dup2\n        /* \"#utility.yul\":16533:16565   */\n      eq\n        /* \"#utility.yul\":16523:16583   */\n      tag_498\n      jumpi\n        /* \"#utility.yul\":16579:16580   */\n      0x00\n        /* \"#utility.yul\":16576:16577   */\n      0x00\n        /* \"#utility.yul\":16569:16581   */\n      revert\n        /* \"#utility.yul\":16523:16583   */\n    tag_498:\n        /* \"#utility.yul\":16473:16589   */\n      pop\n      jump\t// out\n        /* \"#utility.yul\":16595:16732   */\n    tag_335:\n        /* \"#utility.yul\":16649:16654   */\n      0x00\n        /* \"#utility.yul\":16680:16686   */\n      dup2\n        /* \"#utility.yul\":16674:16687   */\n      mload\n        /* \"#utility.yul\":16665:16687   */\n      swap1\n      pop\n        /* \"#utility.yul\":16696:16726   */\n      tag_500\n        /* \"#utility.yul\":16720:16725   */\n      dup2\n        /* \"#utility.yul\":16696:16726   */\n      tag_334\n      jump\t// in\n    tag_500:\n        /* \"#utility.yul\":16595:16732   */\n      swap3\n      swap2\n      pop\n      pop\n      jump\t// out\n        /* \"#utility.yul\":16738:17083   */\n    tag_117:\n        /* \"#utility.yul\":16805:16811   */\n      0x00\n        /* \"#utility.yul\":16854:16856   */\n      0x20\n        /* \"#utility.yul\":16842:16851   */\n      dup3\n        /* \"#utility.yul\":16833:16840   */\n      dup5\n        /* \"#utility.yul\":16829:16852   */\n      sub\n        /* \"#utility.yul\":16825:16857   */\n      slt\n        /* \"#utility.yul\":16822:16941   */\n      iszero\n      tag_502\n      jumpi\n        /* \"#utility.yul\":16860:16939   */\n      tag_503\n      tag_308\n      jump\t// in\n    tag_503:\n        /* \"#utility.yul\":16822:16941   */\n    tag_502:\n        /* \"#utility.yul\":16980:16981   */\n      0x00\n        /* \"#utility.yul\":17005:17066   */\n      tag_504\n        /* \"#utility.yul\":17058:17065   */\n      dup5\n        /* \"#utility.yul\":17049:17055   */\n      dup3\n        /* \"#utility.yul\":17038:17047   */\n      dup6\n        /* \"#utility.yul\":17034:17056   */\n      add\n        /* \"#utility.yul\":17005:17066   */\n      tag_335\n      jump\t// in\n    tag_504:\n        /* \"#utility.yul\":16995:17066   */\n      swap2\n      pop\n        /* \"#utility.yul\":16951:17076   */\n      pop\n        /* \"#utility.yul\":16738:17083   */\n      swap3\n      swap2\n      pop\n      pop\n      jump\t// out\n        /* \"#utility.yul\":17089:17421   */\n    tag_119:\n        /* \"#utility.yul\":17210:17214   */\n      0x00\n        /* \"#utility.yul\":17248:17250   */\n      0x40\n        /* \"#utility.yul\":17237:17246   */\n      dup3\n        /* \"#utility.yul\":17233:17251   */\n      add\n        /* \"#utility.yul\":17225:17251   */\n      swap1\n      pop\n        /* \"#utility.yul\":17261:17332   */\n      tag_506\n        /* \"#utility.yul\":17329:17330   */\n      0x00\n        /* \"#utility.yul\":17318:17327   */\n      dup4\n        /* \"#utility.yul\":17314:17331   */\n      add\n        /* \"#utility.yul\":17305:17311   */\n      dup6\n        /* \"#utility.yul\":17261:17332   */\n      tag_306\n      jump\t// in\n    tag_506:\n        /* \"#utility.yul\":17342:17414   */\n      tag_507\n        /* \"#utility.yul\":17410:17412   */\n      0x20\n        /* \"#utility.yul\":17399:17408   */\n      dup4\n        /* \"#utility.yul\":17395:17413   */\n      add\n        /* \"#utility.yul\":17386:17392   */\n      dup5\n        /* \"#utility.yul\":17342:17414   */\n      tag_303\n      jump\t// in\n    tag_507:\n        /* \"#utility.yul\":17089:17421   */\n      swap4\n      swap3\n      pop\n      pop\n      pop\n      jump\t// out\n        /* \"#utility.yul\":17427:17607   */\n    tag_336:\n        /* \"#utility.yul\":17475:17552   */\n      0x4e487b7100000000000000000000000000000000000000000000000000000000\n        /* \"#utility.yul\":17472:17473   */\n      0x00\n        /* \"#utility.yul\":17465:17553   */\n      mstore\n        /* \"#utility.yul\":17572:17576   */\n      0x11\n        /* \"#utility.yul\":17569:17570   */\n      0x04\n        /* \"#utility.yul\":17562:17577   */\n      mstore\n        /* \"#utility.yul\":17596:17600   */\n      0x24\n        /* \"#utility.yul\":17593:17594   */\n      0x00\n        /* \"#utility.yul\":17586:17601   */\n      revert\n        /* \"#utility.yul\":17613:17804   */\n    tag_125:\n        /* \"#utility.yul\":17653:17656   */\n      0x00\n        /* \"#utility.yul\":17672:17692   */\n      tag_510\n        /* \"#utility.yul\":17690:17691   */\n      dup3\n        /* \"#utility.yul\":17672:17692   */\n      tag_302\n      jump\t// in\n    tag_510:\n        /* \"#utility.yul\":17667:17692   */\n      swap2\n      pop\n        /* \"#utility.yul\":17706:17726   */\n      tag_511\n        /* \"#utility.yul\":17724:17725   */\n      dup4\n        /* \"#utility.yul\":17706:17726   */\n      tag_302\n      jump\t// in\n    tag_511:\n        /* \"#utility.yul\":17701:17726   */\n      swap3\n      pop\n        /* \"#utility.yul\":17749:17750   */\n      dup3\n        /* \"#utility.yul\":17746:17747   */\n      dup3\n        /* \"#utility.yul\":17742:17751   */\n      add\n        /* \"#utility.yul\":17735:17751   */\n      swap1\n      pop\n        /* \"#utility.yul\":17770:17773   */\n      dup1\n        /* \"#utility.yul\":17767:17768   */\n      dup3\n        /* \"#utility.yul\":17764:17774   */\n      gt\n        /* \"#utility.yul\":17761:17797   */\n      iszero\n      tag_512\n      jumpi\n        /* \"#utility.yul\":17777:17795   */\n      tag_513\n      tag_336\n      jump\t// in\n    tag_513:\n        /* \"#utility.yul\":17761:17797   */\n    tag_512:\n        /* \"#utility.yul\":17613:17804   */\n      swap3\n      swap2\n      pop\n      pop\n      jump\t// out\n        /* \"#utility.yul\":17810:18004   */\n    tag_127:\n        /* \"#utility.yul\":17850:17854   */\n      0x00\n        /* \"#utility.yul\":17870:17890   */\n      tag_515\n        /* \"#utility.yul\":17888:17889   */\n      dup3\n        /* \"#utility.yul\":17870:17890   */\n      tag_302\n      jump\t// in\n    tag_515:\n        /* \"#utility.yul\":17865:17890   */\n      swap2\n      pop\n        /* \"#utility.yul\":17904:17924   */\n      tag_516\n        /* \"#utility.yul\":17922:17923   */\n      dup4\n        /* \"#utility.yul\":17904:17924   */\n      tag_302\n      jump\t// in\n    tag_516:\n        /* \"#utility.yul\":17899:17924   */\n      swap3\n      pop\n        /* \"#utility.yul\":17948:17949   */\n      dup3\n        /* \"#utility.yul\":17945:17946   */\n      dup3\n        /* \"#utility.yul\":17941:17950   */\n      sub\n        /* \"#utility.yul\":17933:17950   */\n      swap1\n      pop\n        /* \"#utility.yul\":17972:17973   */\n      dup2\n        /* \"#utility.yul\":17966:17970   */\n      dup2\n        /* \"#utility.yul\":17963:17974   */\n      gt\n        /* \"#utility.yul\":17960:17997   */\n      iszero\n      tag_517\n      jumpi\n        /* \"#utility.yul\":17977:17995   */\n      tag_518\n      tag_336\n      jump\t// in\n    tag_518:\n        /* \"#utility.yul\":17960:17997   */\n    tag_517:\n        /* \"#utility.yul\":17810:18004   */\n      swap3\n      swap2\n      pop\n      pop\n      jump\t// out\n        /* \"#utility.yul\":18010:18563   */\n    tag_132:\n        /* \"#utility.yul\":18187:18191   */\n      0x00\n        /* \"#utility.yul\":18225:18228   */\n      0x80\n        /* \"#utility.yul\":18214:18223   */\n      dup3\n        /* \"#utility.yul\":18210:18229   */\n      add\n        /* \"#utility.yul\":18202:18229   */\n      swap1\n      pop\n        /* \"#utility.yul\":18239:18310   */\n      tag_520\n        /* \"#utility.yul\":18307:18308   */\n      0x00\n        /* \"#utility.yul\":18296:18305   */\n      dup4\n        /* \"#utility.yul\":18292:18309   */\n      add\n        /* \"#utility.yul\":18283:18289   */\n      dup8\n        /* \"#utility.yul\":18239:18310   */\n      tag_306\n      jump\t// in\n    tag_520:\n        /* \"#utility.yul\":18320:18392   */\n      tag_521\n        /* \"#utility.yul\":18388:18390   */\n      0x20\n        /* \"#utility.yul\":18377:18386   */\n      dup4\n        /* \"#utility.yul\":18373:18391   */\n      add\n        /* \"#utility.yul\":18364:18370   */\n      dup7\n        /* \"#utility.yul\":18320:18392   */\n      tag_306\n      jump\t// in\n    tag_521:\n        /* \"#utility.yul\":18402:18474   */\n      tag_522\n        /* \"#utility.yul\":18470:18472   */\n      0x40\n        /* \"#utility.yul\":18459:18468   */\n      dup4\n        /* \"#utility.yul\":18455:18473   */\n      add\n        /* \"#utility.yul\":18446:18452   */\n      dup6\n        /* \"#utility.yul\":18402:18474   */\n      tag_303\n      jump\t// in\n    tag_522:\n        /* \"#utility.yul\":18484:18556   */\n      tag_523\n        /* \"#utility.yul\":18552:18554   */\n      0x60\n        /* \"#utility.yul\":18541:18550   */\n      dup4\n        /* \"#utility.yul\":18537:18555   */\n      add\n        /* \"#utility.yul\":18528:18534   */\n      dup5\n        /* \"#utility.yul\":18484:18556   */\n      tag_303\n      jump\t// in\n    tag_523:\n        /* \"#utility.yul\":18010:18563   */\n      swap6\n      swap5\n      pop\n      pop\n      pop\n      pop\n      pop\n      jump\t// out\n        /* \"#utility.yul\":18569:18738   */\n    tag_337:\n        /* \"#utility.yul\":18709:18730   */\n      0x416c726561647920696e697469616c697a656400000000000000000000000000\n        /* \"#utility.yul\":18705:18706   */\n      0x00\n        /* \"#utility.yul\":18697:18703   */\n      dup3\n        /* \"#utility.yul\":18693:18707   */\n      add\n        /* \"#utility.yul\":18686:18731   */\n      mstore\n        /* \"#utility.yul\":18569:18738   */\n      pop\n      jump\t// out\n        /* \"#utility.yul\":18744:19110   */\n    tag_338:\n        /* \"#utility.yul\":18886:18889   */\n      0x00\n        /* \"#utility.yul\":18907:18974   */\n      tag_526\n        /* \"#utility.yul\":18971:18973   */\n      0x13\n        /* \"#utility.yul\":18966:18969   */\n      dup4\n        /* \"#utility.yul\":18907:18974   */\n      tag_318\n      jump\t// in\n    tag_526:\n        /* \"#utility.yul\":18900:18974   */\n      swap2\n      pop\n        /* \"#utility.yul\":18983:19076   */\n      tag_527\n        /* \"#utility.yul\":19072:19075   */\n      dup3\n        /* \"#utility.yul\":18983:19076   */\n      tag_337\n      jump\t// in\n    tag_527:\n        /* \"#utility.yul\":19101:19103   */\n      0x20\n        /* \"#utility.yul\":19096:19099   */\n      dup3\n        /* \"#utility.yul\":19092:19104   */\n      add\n        /* \"#utility.yul\":19085:19104   */\n      swap1\n      pop\n        /* \"#utility.yul\":18744:19110   */\n      swap2\n      swap1\n      pop\n      jump\t// out\n        /* \"#utility.yul\":19116:19535   */\n    tag_136:\n        /* \"#utility.yul\":19282:19286   */\n      0x00\n        /* \"#utility.yul\":19320:19322   */\n      0x20\n        /* \"#utility.yul\":19309:19318   */\n      dup3\n        /* \"#utility.yul\":19305:19323   */\n      add\n        /* \"#utility.yul\":19297:19323   */\n      swap1\n      pop\n        /* \"#utility.yul\":19369:19378   */\n      dup2\n        /* \"#utility.yul\":19363:19367   */\n      dup2\n        /* \"#utility.yul\":19359:19379   */\n      sub\n        /* \"#utility.yul\":19355:19356   */\n      0x00\n        /* \"#utility.yul\":19344:19353   */\n      dup4\n        /* \"#utility.yul\":19340:19357   */\n      add\n        /* \"#utility.yul\":19333:19380   */\n      mstore\n        /* \"#utility.yul\":19397:19528   */\n      tag_529\n        /* \"#utility.yul\":19523:19527   */\n      dup2\n        /* \"#utility.yul\":19397:19528   */\n      tag_338\n      jump\t// in\n    tag_529:\n        /* \"#utility.yul\":19389:19528   */\n      swap1\n      pop\n        /* \"#utility.yul\":19116:19535   */\n      swap2\n      swap1\n      pop\n      jump\t// out\n        /* \"#utility.yul\":19541:19707   */\n    tag_339:\n        /* \"#utility.yul\":19681:19699   */\n      0x4964656e746963616c20746f6b656e7300000000000000000000000000000000\n        /* \"#utility.yul\":19677:19678   */\n      0x00\n        /* \"#utility.yul\":19669:19675   */\n      dup3\n        /* \"#utility.yul\":19665:19679   */\n      add\n        /* \"#utility.yul\":19658:19700   */\n      mstore\n        /* \"#utility.yul\":19541:19707   */\n      pop\n      jump\t// out\n        /* \"#utility.yul\":19713:20079   */\n    tag_340:\n        /* \"#utility.yul\":19855:19858   */\n      0x00\n        /* \"#utility.yul\":19876:19943   */\n      tag_532\n        /* \"#utility.yul\":19940:19942   */\n      0x10\n        /* \"#utility.yul\":19935:19938   */\n      dup4\n        /* \"#utility.yul\":19876:19943   */\n      tag_318\n      jump\t// in\n    tag_532:\n        /* \"#utility.yul\":19869:19943   */\n      swap2\n      pop\n        /* \"#utility.yul\":19952:20045   */\n      tag_533\n        /* \"#utility.yul\":20041:20044   */\n      dup3\n        /* \"#utility.yul\":19952:20045   */\n      tag_339\n      jump\t// in\n    tag_533:\n        /* \"#utility.yul\":20070:20072   */\n      0x20\n        /* \"#utility.yul\":20065:20068   */\n      dup3\n        /* \"#utility.yul\":20061:20073   */\n      add\n        /* \"#utility.yul\":20054:20073   */\n      swap1\n      pop\n        /* \"#utility.yul\":19713:20079   */\n      swap2\n      swap1\n      pop\n      jump\t// out\n        /* \"#utility.yul\":20085:20504   */\n    tag_139:\n        /* \"#utility.yul\":20251:20255   */\n      0x00\n        /* \"#utility.yul\":20289:20291   */\n      0x20\n        /* \"#utility.yul\":20278:20287   */\n      dup3\n        /* \"#utility.yul\":20274:20292   */\n      add\n        /* \"#utility.yul\":20266:20292   */\n      swap1\n      pop\n        /* \"#utility.yul\":20338:20347   */\n      dup2\n        /* \"#utility.yul\":20332:20336   */\n      dup2\n        /* \"#utility.yul\":20328:20348   */\n      sub\n        /* \"#utility.yul\":20324:20325   */\n      0x00\n        /* \"#utility.yul\":20313:20322   */\n      dup4\n        /* \"#utility.yul\":20309:20326   */\n      add\n        /* \"#utility.yul\":20302:20349   */\n      mstore\n        /* \"#utility.yul\":20366:20497   */\n      tag_535\n        /* \"#utility.yul\":20492:20496   */\n      dup2\n        /* \"#utility.yul\":20366:20497   */\n      tag_340\n      jump\t// in\n    tag_535:\n        /* \"#utility.yul\":20358:20497   */\n      swap1\n      pop\n        /* \"#utility.yul\":20085:20504   */\n      swap2\n      swap1\n      pop\n      jump\t// out\n        /* \"#utility.yul\":20510:20672   */\n    tag_341:\n        /* \"#utility.yul\":20650:20664   */\n      0x4e6f206c69717569646974790000000000000000000000000000000000000000\n        /* \"#utility.yul\":20646:20647   */\n      0x00\n        /* \"#utility.yul\":20638:20644   */\n      dup3\n        /* \"#utility.yul\":20634:20648   */\n      add\n        /* \"#utility.yul\":20627:20665   */\n      mstore\n        /* \"#utility.yul\":20510:20672   */\n      pop\n      jump\t// out\n        /* \"#utility.yul\":20678:21044   */\n    tag_342:\n        /* \"#utility.yul\":20820:20823   */\n      0x00\n        /* \"#utility.yul\":20841:20908   */\n      tag_538\n        /* \"#utility.yul\":20905:20907   */\n      0x0c\n        /* \"#utility.yul\":20900:20903   */\n      dup4\n        /* \"#utility.yul\":20841:20908   */\n      tag_318\n      jump\t// in\n    tag_538:\n        /* \"#utility.yul\":20834:20908   */\n      swap2\n      pop\n        /* \"#utility.yul\":20917:21010   */\n      tag_539\n        /* \"#utility.yul\":21006:21009   */\n      dup3\n        /* \"#utility.yul\":20917:21010   */\n      tag_341\n      jump\t// in\n    tag_539:\n        /* \"#utility.yul\":21035:21037   */\n      0x20\n        /* \"#utility.yul\":21030:21033   */\n      dup3\n        /* \"#utility.yul\":21026:21038   */\n      add\n        /* \"#utility.yul\":21019:21038   */\n      swap1\n      pop\n        /* \"#utility.yul\":20678:21044   */\n      swap2\n      swap1\n      pop\n      jump\t// out\n        /* \"#utility.yul\":21050:21469   */\n    tag_157:\n        /* \"#utility.yul\":21216:21220   */\n      0x00\n        /* \"#utility.yul\":21254:21256   */\n      0x20\n        /* \"#utility.yul\":21243:21252   */\n      dup3\n        /* \"#utility.yul\":21239:21257   */\n      add\n        /* \"#utility.yul\":21231:21257   */\n      swap1\n      pop\n        /* \"#utility.yul\":21303:21312   */\n      dup2\n        /* \"#utility.yul\":21297:21301   */\n      dup2\n        /* \"#utility.yul\":21293:21313   */\n      sub\n        /* \"#utility.yul\":21289:21290   */\n      0x00\n        /* \"#utility.yul\":21278:21287   */\n      dup4\n        /* \"#utility.yul\":21274:21291   */\n      add\n        /* \"#utility.yul\":21267:21314   */\n      mstore\n        /* \"#utility.yul\":21331:21462   */\n      tag_541\n        /* \"#utility.yul\":21457:21461   */\n      dup2\n        /* \"#utility.yul\":21331:21462   */\n      tag_342\n      jump\t// in\n    tag_541:\n        /* \"#utility.yul\":21323:21462   */\n      swap1\n      pop\n        /* \"#utility.yul\":21050:21469   */\n      swap2\n      swap1\n      pop\n      jump\t// out\n        /* \"#utility.yul\":21475:21885   */\n    tag_163:\n        /* \"#utility.yul\":21515:21522   */\n      0x00\n        /* \"#utility.yul\":21538:21558   */\n      tag_543\n        /* \"#utility.yul\":21556:21557   */\n      dup3\n        /* \"#utility.yul\":21538:21558   */\n      tag_302\n      jump\t// in\n    tag_543:\n        /* \"#utility.yul\":21533:21558   */\n      swap2\n      pop\n        /* \"#utility.yul\":21572:21592   */\n      tag_544\n        /* \"#utility.yul\":21590:21591   */\n      dup4\n        /* \"#utility.yul\":21572:21592   */\n      tag_302\n      jump\t// in\n    tag_544:\n        /* \"#utility.yul\":21567:21592   */\n      swap3\n      pop\n        /* \"#utility.yul\":21627:21628   */\n      dup3\n        /* \"#utility.yul\":21624:21625   */\n      dup3\n        /* \"#utility.yul\":21620:21629   */\n      mul\n        /* \"#utility.yul\":21649:21679   */\n      tag_545\n        /* \"#utility.yul\":21667:21678   */\n      dup2\n        /* \"#utility.yul\":21649:21679   */\n      tag_302\n      jump\t// in\n    tag_545:\n        /* \"#utility.yul\":21638:21679   */\n      swap2\n      pop\n        /* \"#utility.yul\":21828:21829   */\n      dup3\n        /* \"#utility.yul\":21819:21826   */\n      dup3\n        /* \"#utility.yul\":21815:21830   */\n      div\n        /* \"#utility.yul\":21812:21813   */\n      dup5\n        /* \"#utility.yul\":21809:21831   */\n      eq\n        /* \"#utility.yul\":21789:21790   */\n      dup4\n        /* \"#utility.yul\":21782:21791   */\n      iszero\n        /* \"#utility.yul\":21762:21845   */\n      or\n        /* \"#utility.yul\":21739:21878   */\n      tag_546\n      jumpi\n        /* \"#utility.yul\":21858:21876   */\n      tag_547\n      tag_336\n      jump\t// in\n    tag_547:\n        /* \"#utility.yul\":21739:21878   */\n    tag_546:\n        /* \"#utility.yul\":21523:21885   */\n      pop\n        /* \"#utility.yul\":21475:21885   */\n      swap3\n      swap2\n      pop\n      pop\n      jump\t// out\n        /* \"#utility.yul\":21891:22071   */\n    tag_343:\n        /* \"#utility.yul\":21939:22016   */\n      0x4e487b7100000000000000000000000000000000000000000000000000000000\n        /* \"#utility.yul\":21936:21937   */\n      0x00\n        /* \"#utility.yul\":21929:22017   */\n      mstore\n        /* \"#utility.yul\":22036:22040   */\n      0x12\n        /* \"#utility.yul\":22033:22034   */\n      0x04\n        /* \"#utility.yul\":22026:22041   */\n      mstore\n        /* \"#utility.yul\":22060:22064   */\n      0x24\n        /* \"#utility.yul\":22057:22058   */\n      0x00\n        /* \"#utility.yul\":22050:22065   */\n      revert\n        /* \"#utility.yul\":22077:22262   */\n    tag_166:\n        /* \"#utility.yul\":22117:22118   */\n      0x00\n        /* \"#utility.yul\":22134:22154   */\n      tag_550\n        /* \"#utility.yul\":22152:22153   */\n      dup3\n        /* \"#utility.yul\":22134:22154   */\n      tag_302\n      jump\t// in\n    tag_550:\n        /* \"#utility.yul\":22129:22154   */\n      swap2\n      pop\n        /* \"#utility.yul\":22168:22188   */\n      tag_551\n        /* \"#utility.yul\":22186:22187   */\n      dup4\n        /* \"#utility.yul\":22168:22188   */\n      tag_302\n      jump\t// in\n    tag_551:\n        /* \"#utility.yul\":22163:22188   */\n      swap3\n      pop\n        /* \"#utility.yul\":22207:22208   */\n      dup3\n        /* \"#utility.yul\":22197:22232   */\n      tag_552\n      jumpi\n        /* \"#utility.yul\":22212:22230   */\n      tag_553\n      tag_343\n      jump\t// in\n    tag_553:\n        /* \"#utility.yul\":22197:22232   */\n    tag_552:\n        /* \"#utility.yul\":22254:22255   */\n      dup3\n        /* \"#utility.yul\":22251:22252   */\n      dup3\n        /* \"#utility.yul\":22247:22256   */\n      div\n        /* \"#utility.yul\":22242:22256   */\n      swap1\n      pop\n        /* \"#utility.yul\":22077:22262   */\n      swap3\n      swap2\n      pop\n      pop\n      jump\t// out\n        /* \"#utility.yul\":22268:22432   */\n    tag_344:\n        /* \"#utility.yul\":22408:22424   */\n      0x496e76616c696420746f6b656e73000000000000000000000000000000000000\n        /* \"#utility.yul\":22404:22405   */\n      0x00\n        /* \"#utility.yul\":22396:22402   */\n      dup3\n        /* \"#utility.yul\":22392:22406   */\n      add\n        /* \"#utility.yul\":22385:22425   */\n      mstore\n        /* \"#utility.yul\":22268:22432   */\n      pop\n      jump\t// out\n        /* \"#utility.yul\":22438:22804   */\n    tag_345:\n        /* \"#utility.yul\":22580:22583   */\n      0x00\n        /* \"#utility.yul\":22601:22668   */\n      tag_556\n        /* \"#utility.yul\":22665:22667   */\n      0x0e\n        /* \"#utility.yul\":22660:22663   */\n      dup4\n        /* \"#utility.yul\":22601:22668   */\n      tag_318\n      jump\t// in\n    tag_556:\n        /* \"#utility.yul\":22594:22668   */\n      swap2\n      pop\n        /* \"#utility.yul\":22677:22770   */\n      tag_557\n        /* \"#utility.yul\":22766:22769   */\n      dup3\n        /* \"#utility.yul\":22677:22770   */\n      tag_344\n      jump\t// in\n    tag_557:\n        /* \"#utility.yul\":22795:22797   */\n      0x20\n        /* \"#utility.yul\":22790:22793   */\n      dup3\n        /* \"#utility.yul\":22786:22798   */\n      add\n        /* \"#utility.yul\":22779:22798   */\n      swap1\n      pop\n        /* \"#utility.yul\":22438:22804   */\n      swap2\n      swap1\n      pop\n      jump\t// out\n        /* \"#utility.yul\":22810:23229   */\n    tag_171:\n        /* \"#utility.yul\":22976:22980   */\n      0x00\n        /* \"#utility.yul\":23014:23016   */\n      0x20\n        /* \"#utility.yul\":23003:23012   */\n      dup3\n        /* \"#utility.yul\":22999:23017   */\n      add\n        /* \"#utility.yul\":22991:23017   */\n      swap1\n      pop\n        /* \"#utility.yul\":23063:23072   */\n      dup2\n        /* \"#utility.yul\":23057:23061   */\n      dup2\n        /* \"#utility.yul\":23053:23073   */\n      sub\n        /* \"#utility.yul\":23049:23050   */\n      0x00\n        /* \"#utility.yul\":23038:23047   */\n      dup4\n        /* \"#utility.yul\":23034:23051   */\n      add\n        /* \"#utility.yul\":23027:23074   */\n      mstore\n        /* \"#utility.yul\":23091:23222   */\n      tag_559\n        /* \"#utility.yul\":23217:23221   */\n      dup2\n        /* \"#utility.yul\":23091:23222   */\n      tag_345\n      jump\t// in\n    tag_559:\n        /* \"#utility.yul\":23083:23222   */\n      swap1\n      pop\n        /* \"#utility.yul\":22810:23229   */\n      swap2\n      swap1\n      pop\n      jump\t// out\n        /* \"#utility.yul\":23235:23399   */\n    tag_346:\n        /* \"#utility.yul\":23375:23391   */\n      0x496e76616c696420616d6f756e74000000000000000000000000000000000000\n        /* \"#utility.yul\":23371:23372   */\n      0x00\n        /* \"#utility.yul\":23363:23369   */\n      dup3\n        /* \"#utility.yul\":23359:23373   */\n      add\n        /* \"#utility.yul\":23352:23392   */\n      mstore\n        /* \"#utility.yul\":23235:23399   */\n      pop\n      jump\t// out\n        /* \"#utility.yul\":23405:23771   */\n    tag_347:\n        /* \"#utility.yul\":23547:23550   */\n      0x00\n        /* \"#utility.yul\":23568:23635   */\n      tag_562\n        /* \"#utility.yul\":23632:23634   */\n      0x0e\n        /* \"#utility.yul\":23627:23630   */\n      dup4\n        /* \"#utility.yul\":23568:23635   */\n      tag_318\n      jump\t// in\n    tag_562:\n        /* \"#utility.yul\":23561:23635   */\n      swap2\n      pop\n        /* \"#utility.yul\":23644:23737   */\n      tag_563\n        /* \"#utility.yul\":23733:23736   */\n      dup3\n        /* \"#utility.yul\":23644:23737   */\n      tag_346\n      jump\t// in\n    tag_563:\n        /* \"#utility.yul\":23762:23764   */\n      0x20\n        /* \"#utility.yul\":23757:23760   */\n      dup3\n        /* \"#utility.yul\":23753:23765   */\n      add\n        /* \"#utility.yul\":23746:23765   */\n      swap1\n      pop\n        /* \"#utility.yul\":23405:23771   */\n      swap2\n      swap1\n      pop\n      jump\t// out\n        /* \"#utility.yul\":23777:24196   */\n    tag_189:\n        /* \"#utility.yul\":23943:23947   */\n      0x00\n        /* \"#utility.yul\":23981:23983   */\n      0x20\n        /* \"#utility.yul\":23970:23979   */\n      dup3\n        /* \"#utility.yul\":23966:23984   */\n      add\n        /* \"#utility.yul\":23958:23984   */\n      swap1\n      pop\n        /* \"#utility.yul\":24030:24039   */\n      dup2\n        /* \"#utility.yul\":24024:24028   */\n      dup2\n        /* \"#utility.yul\":24020:24040   */\n      sub\n        /* \"#utility.yul\":24016:24017   */\n      0x00\n        /* \"#utility.yul\":24005:24014   */\n      dup4\n        /* \"#utility.yul\":24001:24018   */\n      add\n        /* \"#utility.yul\":23994:24041   */\n      mstore\n        /* \"#utility.yul\":24058:24189   */\n      tag_565\n        /* \"#utility.yul\":24184:24188   */\n      dup2\n        /* \"#utility.yul\":24058:24189   */\n      tag_347\n      jump\t// in\n    tag_565:\n        /* \"#utility.yul\":24050:24189   */\n      swap1\n      pop\n        /* \"#utility.yul\":23777:24196   */\n      swap2\n      swap1\n      pop\n      jump\t// out\n        /* \"#utility.yul\":24202:24372   */\n    tag_348:\n        /* \"#utility.yul\":24342:24364   */\n      0x496e73756666696369656e742062616c616e6365000000000000000000000000\n        /* \"#utility.yul\":24338:24339   */\n      0x00\n        /* \"#utility.yul\":24330:24336   */\n      dup3\n        /* \"#utility.yul\":24326:24340   */\n      add\n        /* \"#utility.yul\":24319:24365   */\n      mstore\n        /* \"#utility.yul\":24202:24372   */\n      pop\n      jump\t// out\n        /* \"#utility.yul\":24378:24744   */\n    tag_349:\n        /* \"#utility.yul\":24520:24523   */\n      0x00\n        /* \"#utility.yul\":24541:24608   */\n      tag_568\n        /* \"#utility.yul\":24605:24607   */\n      0x14\n        /* \"#utility.yul\":24600:24603   */\n      dup4\n        /* \"#utility.yul\":24541:24608   */\n      tag_318\n      jump\t// in\n    tag_568:\n        /* \"#utility.yul\":24534:24608   */\n      swap2\n      pop\n        /* \"#utility.yul\":24617:24710   */\n      tag_569\n        /* \"#utility.yul\":24706:24709   */\n      dup3\n        /* \"#utility.yul\":24617:24710   */\n      tag_348\n      jump\t// in\n    tag_569:\n        /* \"#utility.yul\":24735:24737   */\n      0x20\n        /* \"#utility.yul\":24730:24733   */\n      dup3\n        /* \"#utility.yul\":24726:24738   */\n      add\n        /* \"#utility.yul\":24719:24738   */\n      swap1\n      pop\n        /* \"#utility.yul\":24378:24744   */\n      swap2\n      swap1\n      pop\n      jump\t// out\n        /* \"#utility.yul\":24750:25169   */\n    tag_192:\n        /* \"#utility.yul\":24916:24920   */\n      0x00\n        /* \"#utility.yul\":24954:24956   */\n      0x20\n        /* \"#utility.yul\":24943:24952   */\n      dup3\n        /* \"#utility.yul\":24939:24957   */\n      add\n        /* \"#utility.yul\":24931:24957   */\n      swap1\n      pop\n        /* \"#utility.yul\":25003:25012   */\n      dup2\n        /* \"#utility.yul\":24997:25001   */\n      dup2\n        /* \"#utility.yul\":24993:25013   */\n      sub\n        /* \"#utility.yul\":24989:24990   */\n      0x00\n        /* \"#utility.yul\":24978:24987   */\n      dup4\n        /* \"#utility.yul\":24974:24991   */\n      add\n        /* \"#utility.yul\":24967:25014   */\n      mstore\n        /* \"#utility.yul\":25031:25162   */\n      tag_571\n        /* \"#utility.yul\":25157:25161   */\n      dup2\n        /* \"#utility.yul\":25031:25162   */\n      tag_349\n      jump\t// in\n    tag_571:\n        /* \"#utility.yul\":25023:25162   */\n      swap1\n      pop\n        /* \"#utility.yul\":24750:25169   */\n      swap2\n      swap1\n      pop\n      jump\t// out\n        /* \"#utility.yul\":25175:25346   */\n    tag_350:\n        /* \"#utility.yul\":25315:25338   */\n      0x496e73756666696369656e74204120616d6f756e740000000000000000000000\n        /* \"#utility.yul\":25311:25312   */\n      0x00\n        /* \"#utility.yul\":25303:25309   */\n      dup3\n        /* \"#utility.yul\":25299:25313   */\n      add\n        /* \"#utility.yul\":25292:25339   */\n      mstore\n        /* \"#utility.yul\":25175:25346   */\n      pop\n      jump\t// out\n        /* \"#utility.yul\":25352:25718   */\n    tag_351:\n        /* \"#utility.yul\":25494:25497   */\n      0x00\n        /* \"#utility.yul\":25515:25582   */\n      tag_574\n        /* \"#utility.yul\":25579:25581   */\n      0x15\n        /* \"#utility.yul\":25574:25577   */\n      dup4\n        /* \"#utility.yul\":25515:25582   */\n      tag_318\n      jump\t// in\n    tag_574:\n        /* \"#utility.yul\":25508:25582   */\n      swap2\n      pop\n        /* \"#utility.yul\":25591:25684   */\n      tag_575\n        /* \"#utility.yul\":25680:25683   */\n      dup3\n        /* \"#utility.yul\":25591:25684   */\n      tag_350\n      jump\t// in\n    tag_575:\n        /* \"#utility.yul\":25709:25711   */\n      0x20\n        /* \"#utility.yul\":25704:25707   */\n      dup3\n        /* \"#utility.yul\":25700:25712   */\n      add\n        /* \"#utility.yul\":25693:25712   */\n      swap1\n      pop\n        /* \"#utility.yul\":25352:25718   */\n      swap2\n      swap1\n      pop\n      jump\t// out\n        /* \"#utility.yul\":25724:26143   */\n    tag_201:\n        /* \"#utility.yul\":25890:25894   */\n      0x00\n        /* \"#utility.yul\":25928:25930   */\n      0x20\n        /* \"#utility.yul\":25917:25926   */\n      dup3\n        /* \"#utility.yul\":25913:25931   */\n      add\n        /* \"#utility.yul\":25905:25931   */\n      swap1\n      pop\n        /* \"#utility.yul\":25977:25986   */\n      dup2\n        /* \"#utility.yul\":25971:25975   */\n      dup2\n        /* \"#utility.yul\":25967:25987   */\n      sub\n        /* \"#utility.yul\":25963:25964   */\n      0x00\n        /* \"#utility.yul\":25952:25961   */\n      dup4\n        /* \"#utility.yul\":25948:25965   */\n      add\n        /* \"#utility.yul\":25941:25988   */\n      mstore\n        /* \"#utility.yul\":26005:26136   */\n      tag_577\n        /* \"#utility.yul\":26131:26135   */\n      dup2\n        /* \"#utility.yul\":26005:26136   */\n      tag_351\n      jump\t// in\n    tag_577:\n        /* \"#utility.yul\":25997:26136   */\n      swap1\n      pop\n        /* \"#utility.yul\":25724:26143   */\n      swap2\n      swap1\n      pop\n      jump\t// out\n        /* \"#utility.yul\":26149:26320   */\n    tag_352:\n        /* \"#utility.yul\":26289:26312   */\n      0x496e73756666696369656e74204220616d6f756e740000000000000000000000\n        /* \"#utility.yul\":26285:26286   */\n      0x00\n        /* \"#utility.yul\":26277:26283   */\n      dup3\n        /* \"#utility.yul\":26273:26287   */\n      add\n        /* \"#utility.yul\":26266:26313   */\n      mstore\n        /* \"#utility.yul\":26149:26320   */\n      pop\n      jump\t// out\n        /* \"#utility.yul\":26326:26692   */\n    tag_353:\n        /* \"#utility.yul\":26468:26471   */\n      0x00\n        /* \"#utility.yul\":26489:26556   */\n      tag_580\n        /* \"#utility.yul\":26553:26555   */\n      0x15\n        /* \"#utility.yul\":26548:26551   */\n      dup4\n        /* \"#utility.yul\":26489:26556   */\n      tag_318\n      jump\t// in\n    tag_580:\n        /* \"#utility.yul\":26482:26556   */\n      swap2\n      pop\n        /* \"#utility.yul\":26565:26658   */\n      tag_581\n        /* \"#utility.yul\":26654:26657   */\n      dup3\n        /* \"#utility.yul\":26565:26658   */\n      tag_352\n      jump\t// in\n    tag_581:\n        /* \"#utility.yul\":26683:26685   */\n      0x20\n        /* \"#utility.yul\":26678:26681   */\n      dup3\n        /* \"#utility.yul\":26674:26686   */\n      add\n        /* \"#utility.yul\":26667:26686   */\n      swap1\n      pop\n        /* \"#utility.yul\":26326:26692   */\n      swap2\n      swap1\n      pop\n      jump\t// out\n        /* \"#utility.yul\":26698:27117   */\n    tag_204:\n        /* \"#utility.yul\":26864:26868   */\n      0x00\n        /* \"#utility.yul\":26902:26904   */\n      0x20\n        /* \"#utility.yul\":26891:26900   */\n      dup3\n        /* \"#utility.yul\":26887:26905   */\n      add\n        /* \"#utility.yul\":26879:26905   */\n      swap1\n      pop\n        /* \"#utility.yul\":26951:26960   */\n      dup2\n        /* \"#utility.yul\":26945:26949   */\n      dup2\n        /* \"#utility.yul\":26941:26961   */\n      sub\n        /* \"#utility.yul\":26937:26938   */\n      0x00\n        /* \"#utility.yul\":26926:26935   */\n      dup4\n        /* \"#utility.yul\":26922:26939   */\n      add\n        /* \"#utility.yul\":26915:26962   */\n      mstore\n        /* \"#utility.yul\":26979:27110   */\n      tag_583\n        /* \"#utility.yul\":27105:27109   */\n      dup2\n        /* \"#utility.yul\":26979:27110   */\n      tag_353\n      jump\t// in\n    tag_583:\n        /* \"#utility.yul\":26971:27110   */\n      swap1\n      pop\n        /* \"#utility.yul\":26698:27117   */\n      swap2\n      swap1\n      pop\n      jump\t// out\n        /* \"#utility.yul\":27123:27295   */\n    tag_354:\n        /* \"#utility.yul\":27263:27287   */\n      0x496e73756666696369656e74206c697175696469747900000000000000000000\n        /* \"#utility.yul\":27259:27260   */\n      0x00\n        /* \"#utility.yul\":27251:27257   */\n      dup3\n        /* \"#utility.yul\":27247:27261   */\n      add\n        /* \"#utility.yul\":27240:27288   */\n      mstore\n        /* \"#utility.yul\":27123:27295   */\n      pop\n      jump\t// out\n        /* \"#utility.yul\":27301:27667   */\n    tag_355:\n        /* \"#utility.yul\":27443:27446   */\n      0x00\n        /* \"#utility.yul\":27464:27531   */\n      tag_586\n        /* \"#utility.yul\":27528:27530   */\n      0x16\n        /* \"#utility.yul\":27523:27526   */\n      dup4\n        /* \"#utility.yul\":27464:27531   */\n      tag_318\n      jump\t// in\n    tag_586:\n        /* \"#utility.yul\":27457:27531   */\n      swap2\n      pop\n        /* \"#utility.yul\":27540:27633   */\n      tag_587\n        /* \"#utility.yul\":27629:27632   */\n      dup3\n        /* \"#utility.yul\":27540:27633   */\n      tag_354\n      jump\t// in\n    tag_587:\n        /* \"#utility.yul\":27658:27660   */\n      0x20\n        /* \"#utility.yul\":27653:27656   */\n      dup3\n        /* \"#utility.yul\":27649:27661   */\n      add\n        /* \"#utility.yul\":27642:27661   */\n      swap1\n      pop\n        /* \"#utility.yul\":27301:27667   */\n      swap2\n      swap1\n      pop\n      jump\t// out\n        /* \"#utility.yul\":27673:28092   */\n    tag_257:\n        /* \"#utility.yul\":27839:27843   */\n      0x00\n        /* \"#utility.yul\":27877:27879   */\n      0x20\n        /* \"#utility.yul\":27866:27875   */\n      dup3\n        /* \"#utility.yul\":27862:27880   */\n      add\n        /* \"#utility.yul\":27854:27880   */\n      swap1\n      pop\n        /* \"#utility.yul\":27926:27935   */\n      dup2\n        /* \"#utility.yul\":27920:27924   */\n      dup2\n        /* \"#utility.yul\":27916:27936   */\n      sub\n        /* \"#utility.yul\":27912:27913   */\n      0x00\n        /* \"#utility.yul\":27901:27910   */\n      dup4\n        /* \"#utility.yul\":27897:27914   */\n      add\n        /* \"#utility.yul\":27890:27937   */\n      mstore\n        /* \"#utility.yul\":27954:28085   */\n      tag_589\n        /* \"#utility.yul\":28080:28084   */\n      dup2\n        /* \"#utility.yul\":27954:28085   */\n      tag_355\n      jump\t// in\n    tag_589:\n        /* \"#utility.yul\":27946:28085   */\n      swap1\n      pop\n        /* \"#utility.yul\":27673:28092   */\n      swap2\n      swap1\n      pop\n      jump\t// out\n        /* \"#utility.yul\":28098:28264   */\n    tag_356:\n        /* \"#utility.yul\":28238:28256   */\n      0x496e76616c696420726573657276657300000000000000000000000000000000\n        /* \"#utility.yul\":28234:28235   */\n      0x00\n        /* \"#utility.yul\":28226:28232   */\n      dup3\n        /* \"#utility.yul\":28222:28236   */\n      add\n        /* \"#utility.yul\":28215:28257   */\n      mstore\n        /* \"#utility.yul\":28098:28264   */\n      pop\n      jump\t// out\n        /* \"#utility.yul\":28270:28636   */\n    tag_357:\n        /* \"#utility.yul\":28412:28415   */\n      0x00\n        /* \"#utility.yul\":28433:28500   */\n      tag_592\n        /* \"#utility.yul\":28497:28499   */\n      0x10\n        /* \"#utility.yul\":28492:28495   */\n      dup4\n        /* \"#utility.yul\":28433:28500   */\n      tag_318\n      jump\t// in\n    tag_592:\n        /* \"#utility.yul\":28426:28500   */\n      swap2\n      pop\n        /* \"#utility.yul\":28509:28602   */\n      tag_593\n        /* \"#utility.yul\":28598:28601   */\n      dup3\n        /* \"#utility.yul\":28509:28602   */\n      tag_356\n      jump\t// in\n    tag_593:\n        /* \"#utility.yul\":28627:28629   */\n      0x20\n        /* \"#utility.yul\":28622:28625   */\n      dup3\n        /* \"#utility.yul\":28618:28630   */\n      add\n        /* \"#utility.yul\":28611:28630   */\n      swap1\n      pop\n        /* \"#utility.yul\":28270:28636   */\n      swap2\n      swap1\n      pop\n      jump\t// out\n        /* \"#utility.yul\":28642:29061   */\n    tag_269:\n        /* \"#utility.yul\":28808:28812   */\n      0x00\n        /* \"#utility.yul\":28846:28848   */\n      0x20\n        /* \"#utility.yul\":28835:28844   */\n      dup3\n        /* \"#utility.yul\":28831:28849   */\n      add\n        /* \"#utility.yul\":28823:28849   */\n      swap1\n      pop\n        /* \"#utility.yul\":28895:28904   */\n      dup2\n        /* \"#utility.yul\":28889:28893   */\n      dup2\n        /* \"#utility.yul\":28885:28905   */\n      sub\n        /* \"#utility.yul\":28881:28882   */\n      0x00\n        /* \"#utility.yul\":28870:28879   */\n      dup4\n        /* \"#utility.yul\":28866:28883   */\n      add\n        /* \"#utility.yul\":28859:28906   */\n      mstore\n        /* \"#utility.yul\":28923:29054   */\n      tag_595\n        /* \"#utility.yul\":29049:29053   */\n      dup2\n        /* \"#utility.yul\":28923:29054   */\n      tag_357\n      jump\t// in\n    tag_595:\n        /* \"#utility.yul\":28915:29054   */\n      swap1\n      pop\n        /* \"#utility.yul\":28642:29061   */\n      swap2\n      swap1\n      pop\n      jump\t// out\n\n    auxdata: 0xa26469706673582212204453af49f381a5189b023f6e379040c6a8ffb3e292c148c7ef2cec3248f27bad64736f6c634300081e0033\n}\n",
				"bytecode": {
					"linkReferences": {},
					"object": "6080604052348015600e575f5ffd5b50612e498061001c5f395ff3fe608060405234801561000f575f5ffd5b50600436106100cd575f3560e01c80634aa066521161008a578063ac41865a11610064578063ac41865a14610200578063baa2abde14610230578063dc5fa6c514610261578063e8e337001461027f576100cd565b80634aa06652146101825780635f64b55b146101b257806370a08231146101d0576100cd565b80630902f1ac146100d15780630fc63d10146100f057806318160ddd1461010e57806319e36f3b1461012c57806338ed17391461014a578063485cc95514610166575b5f5ffd5b6100d96102b1565b6040516100e7929190612097565b60405180910390f35b6100f86102c1565b60405161010591906120fd565b60405180910390f35b6101166102e5565b6040516101239190612116565b60405180910390f35b6101346102eb565b6040516101419190612116565b60405180910390f35b610164600480360381019061015f91906121ec565b6102f1565b005b610180600480360381019061017b9190612282565b6109e2565b005b61019c600480360381019061019791906122c0565b610c08565b6040516101a99190612116565b60405180910390f35b6101ba610fcf565b6040516101c791906120fd565b60405180910390f35b6101ea60048036038101906101e59190612310565b610ff4565b6040516101f79190612116565b60405180910390f35b61021a60048036038101906102159190612282565b611009565b6040516102279190612116565b60405180910390f35b61024a6004803603810190610245919061233b565b6111ea565b604051610258929190612097565b60405180910390f35b610269611737565b6040516102769190612116565b60405180910390f35b610299600480360381019061029491906123d8565b61173d565b6040516102a893929190612489565b60405180910390f35b5f5f600254915060035490509091565b5f5f9054906101000a900473ffffffffffffffffffffffffffffffffffffffff1681565b60045481565b60035481565b80421115610334576040517f08c379a000000000000000000000000000000000000000000000000000000000815260040161032b90612518565b60405180910390fd5b5f8611610376576040517f08c379a000000000000000000000000000000000000000000000000000000000815260040161036d90612580565b60405180910390fd5b600284849050146103bc576040517f08c379a00000000000000000000000000000000000000000000000000000000081526004016103b3906125e8565b60405180910390fd5b5f73ffffffffffffffffffffffffffffffffffffffff168273ffffffffffffffffffffffffffffffffffffffff160361042a576040517f08c379a000000000000000000000000000000000000000000000000000000000815260040161042190612650565b60405180910390fd5b5f84845f81811061043e5761043d61266e565b5b90506020020160208101906104539190612310565b90505f8585600181811061046a5761046961266e565b5b905060200201602081019061047f9190612310565b90505f5f9054906101000a900473ffffffffffffffffffffffffffffffffffffffff1673ffffffffffffffffffffffffffffffffffffffff168273ffffffffffffffffffffffffffffffffffffffff161480610527575060015f9054906101000a900473ffffffffffffffffffffffffffffffffffffffff1673ffffffffffffffffffffffffffffffffffffffff168273ffffffffffffffffffffffffffffffffffffffff16145b610566576040517f08c379a000000000000000000000000000000000000000000000000000000000815260040161055d906126e5565b60405180910390fd5b5f5f9054906101000a900473ffffffffffffffffffffffffffffffffffffffff1673ffffffffffffffffffffffffffffffffffffffff168173ffffffffffffffffffffffffffffffffffffffff16148061060c575060015f9054906101000a900473ffffffffffffffffffffffffffffffffffffffff1673ffffffffffffffffffffffffffffffffffffffff168173ffffffffffffffffffffffffffffffffffffffff16145b61064b576040517f08c379a0000000000000000000000000000000000000000000000000000000008152600401610642906126e5565b60405180910390fd5b8073ffffffffffffffffffffffffffffffffffffffff168273ffffffffffffffffffffffffffffffffffffffff16036106b9576040517f08c379a00000000000000000000000000000000000000000000000000000000081526004016106b09061274d565b60405180910390fd5b5f5f5f9054906101000a900473ffffffffffffffffffffffffffffffffffffffff1673ffffffffffffffffffffffffffffffffffffffff168373ffffffffffffffffffffffffffffffffffffffff161461071557600354610719565b6002545b90505f5f5f9054906101000a900473ffffffffffffffffffffffffffffffffffffffff1673ffffffffffffffffffffffffffffffffffffffff168473ffffffffffffffffffffffffffffffffffffffff16146107775760025461077b565b6003545b90505f6107898b8484611e08565b9050898110156107ce576040517f08c379a00000000000000000000000000000000000000000000000000000000081526004016107c5906127b5565b60405180910390fd5b8473ffffffffffffffffffffffffffffffffffffffff166323b872dd33308e6040518463ffffffff1660e01b815260040161080b939291906127d3565b6020604051808303815f875af1158015610827573d5f5f3e3d5ffd5b505050506040513d601f19601f8201168201806040525081019061084b919061283d565b508373ffffffffffffffffffffffffffffffffffffffff1663a9059cbb88836040518363ffffffff1660e01b8152600401610887929190612868565b6020604051808303815f875af11580156108a3573d5f5f3e3d5ffd5b505050506040513d601f19601f820116820180604052508101906108c7919061283d565b505f5f9054906101000a900473ffffffffffffffffffffffffffffffffffffffff1673ffffffffffffffffffffffffffffffffffffffff168573ffffffffffffffffffffffffffffffffffffffff1603610950578a60025f82825461092c91906128bc565b925050819055508060035f82825461094491906128ef565b92505081905550610981565b8a60035f82825461096191906128bc565b925050819055508060025f82825461097991906128ef565b925050819055505b3373ffffffffffffffffffffffffffffffffffffffff167fcd3829a3813dc3cdd188fd3d01dcf3268c16be2fdd2dd21d0665418816e4606286868e856040516109cd9493929190612922565b60405180910390a25050505050505050505050565b5f73ffffffffffffffffffffffffffffffffffffffff165f5f9054906101000a900473ffffffffffffffffffffffffffffffffffffffff1673ffffffffffffffffffffffffffffffffffffffff1614610a70576040517f08c379a0000000000000000000000000000000000000000000000000000000008152600401610a67906129af565b60405180910390fd5b8073ffffffffffffffffffffffffffffffffffffffff168273ffffffffffffffffffffffffffffffffffffffff1603610ade576040517f08c379a0000000000000000000000000000000000000000000000000000000008152600401610ad590612a17565b60405180910390fd5b5f73ffffffffffffffffffffffffffffffffffffffff168273ffffffffffffffffffffffffffffffffffffffff1614158015610b4657505f73ffffffffffffffffffffffffffffffffffffffff168173ffffffffffffffffffffffffffffffffffffffff1614155b610b85576040517f08c379a0000000000000000000000000000000000000000000000000000000008152600401610b7c90612650565b60405180910390fd5b815f5f6101000a81548173ffffffffffffffffffffffffffffffffffffffff021916908373ffffffffffffffffffffffffffffffffffffffff1602179055508060015f6101000a81548173ffffffffffffffffffffffffffffffffffffffff021916908373ffffffffffffffffffffffffffffffffffffffff1602179055505050565b5f5f8211610c4b576040517f08c379a0000000000000000000000000000000000000000000000000000000008152600401610c4290612580565b60405180910390fd5b5f5f9054906101000a900473ffffffffffffffffffffffffffffffffffffffff1673ffffffffffffffffffffffffffffffffffffffff168473ffffffffffffffffffffffffffffffffffffffff161480610cf1575060015f9054906101000a900473ffffffffffffffffffffffffffffffffffffffff1673ffffffffffffffffffffffffffffffffffffffff168473ffffffffffffffffffffffffffffffffffffffff16145b610d30576040517f08c379a0000000000000000000000000000000000000000000000000000000008152600401610d27906126e5565b60405180910390fd5b5f5f9054906101000a900473ffffffffffffffffffffffffffffffffffffffff1673ffffffffffffffffffffffffffffffffffffffff168373ffffffffffffffffffffffffffffffffffffffff161480610dd6575060015f9054906101000a900473ffffffffffffffffffffffffffffffffffffffff1673ffffffffffffffffffffffffffffffffffffffff168373ffffffffffffffffffffffffffffffffffffffff16145b610e15576040517f08c379a0000000000000000000000000000000000000000000000000000000008152600401610e0c906126e5565b60405180910390fd5b8273ffffffffffffffffffffffffffffffffffffffff168473ffffffffffffffffffffffffffffffffffffffff1603610e83576040517f08c379a0000000000000000000000000000000000000000000000000000000008152600401610e7a9061274d565b60405180910390fd5b5f600254118015610e9557505f600354115b610ed4576040517f08c379a0000000000000000000000000000000000000000000000000000000008152600401610ecb90612a7f565b60405180910390fd5b5f5f5f9054906101000a900473ffffffffffffffffffffffffffffffffffffffff1673ffffffffffffffffffffffffffffffffffffffff168573ffffffffffffffffffffffffffffffffffffffff1614610f3057600354610f34565b6002545b90505f5f5f9054906101000a900473ffffffffffffffffffffffffffffffffffffffff1673ffffffffffffffffffffffffffffffffffffffff168673ffffffffffffffffffffffffffffffffffffffff1614610f9257600254610f96565b6003545b90505f8185610fa59190612a9d565b90505f8584610fb491906128bc565b90508082610fc29190612b0b565b9450505050509392505050565b60015f9054906101000a900473ffffffffffffffffffffffffffffffffffffffff1681565b6005602052805f5260405f205f915090505481565b5f5f5f9054906101000a900473ffffffffffffffffffffffffffffffffffffffff1673ffffffffffffffffffffffffffffffffffffffff168373ffffffffffffffffffffffffffffffffffffffff161480156110b1575060015f9054906101000a900473ffffffffffffffffffffffffffffffffffffffff1673ffffffffffffffffffffffffffffffffffffffff168273ffffffffffffffffffffffffffffffffffffffff16145b6110f0576040517f08c379a00000000000000000000000000000000000000000000000000000000081526004016110e790612b85565b60405180910390fd5b5f60025411801561110257505f600354115b611141576040517f08c379a000000000000000000000000000000000000000000000000000000000815260040161113890612a7f565b60405180910390fd5b5f5f9054906101000a900473ffffffffffffffffffffffffffffffffffffffff1673ffffffffffffffffffffffffffffffffffffffff168373ffffffffffffffffffffffffffffffffffffffff16036111be57600254670de0b6b3a76400006003546111ad9190612a9d565b6111b79190612b0b565b90506111e4565b600354670de0b6b3a76400006002546111d79190612a9d565b6111e19190612b0b565b90505b92915050565b5f5f8242111561122f576040517f08c379a000000000000000000000000000000000000000000000000000000000815260040161122690612518565b60405180910390fd5b5f5f9054906101000a900473ffffffffffffffffffffffffffffffffffffffff1673ffffffffffffffffffffffffffffffffffffffff168973ffffffffffffffffffffffffffffffffffffffff161480156112d6575060015f9054906101000a900473ffffffffffffffffffffffffffffffffffffffff1673ffffffffffffffffffffffffffffffffffffffff168873ffffffffffffffffffffffffffffffffffffffff16145b611315576040517f08c379a000000000000000000000000000000000000000000000000000000000815260040161130c90612b85565b60405180910390fd5b5f8711611357576040517f08c379a000000000000000000000000000000000000000000000000000000000815260040161134e90612bed565b60405180910390fd5b8660055f3373ffffffffffffffffffffffffffffffffffffffff1673ffffffffffffffffffffffffffffffffffffffff1681526020019081526020015f205410156113d7576040517f08c379a00000000000000000000000000000000000000000000000000000000081526004016113ce90612c55565b60405180910390fd5b5f73ffffffffffffffffffffffffffffffffffffffff168473ffffffffffffffffffffffffffffffffffffffff1603611445576040517f08c379a000000000000000000000000000000000000000000000000000000000815260040161143c90612650565b60405180910390fd5b600454600254886114569190612a9d565b6114609190612b0b565b9150600454600354886114739190612a9d565b61147d9190612b0b565b9050858210156114c2576040517f08c379a00000000000000000000000000000000000000000000000000000000081526004016114b990612cbd565b60405180910390fd5b84811015611505576040517f08c379a00000000000000000000000000000000000000000000000000000000081526004016114fc90612d25565b60405180910390fd5b8660055f3373ffffffffffffffffffffffffffffffffffffffff1673ffffffffffffffffffffffffffffffffffffffff1681526020019081526020015f205f82825461155191906128ef565b925050819055508660045f82825461156991906128ef565b925050819055508160025f82825461158191906128ef565b925050819055508060035f82825461159991906128ef565b925050819055505f5f9054906101000a900473ffffffffffffffffffffffffffffffffffffffff1673ffffffffffffffffffffffffffffffffffffffff1663a9059cbb85846040518363ffffffff1660e01b81526004016115fb929190612868565b6020604051808303815f875af1158015611617573d5f5f3e3d5ffd5b505050506040513d601f19601f8201168201806040525081019061163b919061283d565b5060015f9054906101000a900473ffffffffffffffffffffffffffffffffffffffff1673ffffffffffffffffffffffffffffffffffffffff1663a9059cbb85836040518363ffffffff1660e01b8152600401611698929190612868565b6020604051808303815f875af11580156116b4573d5f5f3e3d5ffd5b505050506040513d601f19601f820116820180604052508101906116d8919061283d565b508373ffffffffffffffffffffffffffffffffffffffff167f1dc8bb69df2b8e91fbdcbfcf93d951b3f0000f085a95fe3f7946d6161439245d83838a60405161172393929190612489565b60405180910390a297509795505050505050565b60025481565b5f5f5f83421115611783576040517f08c379a000000000000000000000000000000000000000000000000000000000815260040161177a90612518565b60405180910390fd5b5f73ffffffffffffffffffffffffffffffffffffffff168573ffffffffffffffffffffffffffffffffffffffff16036117f1576040517f08c379a00000000000000000000000000000000000000000000000000000000081526004016117e890612650565b60405180910390fd5b5f73ffffffffffffffffffffffffffffffffffffffff165f5f9054906101000a900473ffffffffffffffffffffffffffffffffffffffff1673ffffffffffffffffffffffffffffffffffffffff16036119dd578973ffffffffffffffffffffffffffffffffffffffff168b73ffffffffffffffffffffffffffffffffffffffff16036118b2576040517f08c379a00000000000000000000000000000000000000000000000000000000081526004016118a990612a17565b60405180910390fd5b5f73ffffffffffffffffffffffffffffffffffffffff168b73ffffffffffffffffffffffffffffffffffffffff161415801561191a57505f73ffffffffffffffffffffffffffffffffffffffff168a73ffffffffffffffffffffffffffffffffffffffff1614155b611959576040517f08c379a000000000000000000000000000000000000000000000000000000000815260040161195090612650565b60405180910390fd5b8a5f5f6101000a81548173ffffffffffffffffffffffffffffffffffffffff021916908373ffffffffffffffffffffffffffffffffffffffff1602179055508960015f6101000a81548173ffffffffffffffffffffffffffffffffffffffff021916908373ffffffffffffffffffffffffffffffffffffffff160217905550611ac4565b5f5f9054906101000a900473ffffffffffffffffffffffffffffffffffffffff1673ffffffffffffffffffffffffffffffffffffffff168b73ffffffffffffffffffffffffffffffffffffffff16148015611a84575060015f9054906101000a900473ffffffffffffffffffffffffffffffffffffffff1673ffffffffffffffffffffffffffffffffffffffff168a73ffffffffffffffffffffffffffffffffffffffff16145b611ac3576040517f08c379a0000000000000000000000000000000000000000000000000000000008152600401611aba90612b85565b60405180910390fd5b5b611ad089898989611ecd565b80935081945050505f5f9054906101000a900473ffffffffffffffffffffffffffffffffffffffff1673ffffffffffffffffffffffffffffffffffffffff166323b872dd3330866040518463ffffffff1660e01b8152600401611b35939291906127d3565b6020604051808303815f875af1158015611b51573d5f5f3e3d5ffd5b505050506040513d601f19601f82011682018060405250810190611b75919061283d565b5060015f9054906101000a900473ffffffffffffffffffffffffffffffffffffffff1673ffffffffffffffffffffffffffffffffffffffff166323b872dd3330856040518463ffffffff1660e01b8152600401611bd4939291906127d3565b6020604051808303815f875af1158015611bf0573d5f5f3e3d5ffd5b505050506040513d601f19601f82011682018060405250810190611c14919061283d565b505f60045403611c8a576103e8611c358385611c309190612a9d565b611ff0565b611c3f91906128ef565b90506103e860055f5f73ffffffffffffffffffffffffffffffffffffffff1673ffffffffffffffffffffffffffffffffffffffff1681526020019081526020015f2081905550611ccb565b611cc860025460045485611c9e9190612a9d565b611ca89190612b0b565b60035460045485611cb99190612a9d565b611cc39190612b0b565b612067565b90505b5f8111611d0d576040517f08c379a0000000000000000000000000000000000000000000000000000000008152600401611d0490612d8d565b60405180910390fd5b8060055f8773ffffffffffffffffffffffffffffffffffffffff1673ffffffffffffffffffffffffffffffffffffffff1681526020019081526020015f205f828254611d5991906128bc565b925050819055508060045f828254611d7191906128bc565b925050819055508260025f828254611d8991906128bc565b925050819055508160035f828254611da191906128bc565b925050819055508473ffffffffffffffffffffffffffffffffffffffff167f64b83944e79c3ce8d4c297411de637c3e102d064677aac0c163976ebdcd6f50e848484604051611df293929190612489565b60405180910390a2985098509895505050505050565b5f5f8411611e4b576040517f08c379a0000000000000000000000000000000000000000000000000000000008152600401611e4290612580565b60405180910390fd5b5f83118015611e5957505f82115b611e98576040517f08c379a0000000000000000000000000000000000000000000000000000000008152600401611e8f90612df5565b60405180910390fd5b5f8285611ea59190612a9d565b90505f8585611eb491906128bc565b90508082611ec29190612b0b565b925050509392505050565b5f5f5f600254148015611ee157505f600354145b15611ef55785858092508193505050611fe7565b5f60025460035488611f079190612a9d565b611f119190612b0b565b9050858111611f6c5783811015611f5d576040517f08c379a0000000000000000000000000000000000000000000000000000000008152600401611f5490612d25565b60405180910390fd5b86818093508194505050611fe5565b5f60035460025488611f7e9190612a9d565b611f889190612b0b565b9050878111158015611f9a5750858110155b611fd9576040517f08c379a0000000000000000000000000000000000000000000000000000000008152600401611fd090612cbd565b60405180910390fd5b80878094508195505050505b505b94509492505050565b5f6003821115612055578190505f600160028461200d9190612b0b565b61201791906128bc565b90505b8181101561204f5780915060028182856120349190612b0b565b61203e91906128bc565b6120489190612b0b565b905061201a565b50612062565b5f821461206157600190505b5b919050565b5f8183106120755781612077565b825b905092915050565b5f819050919050565b6120918161207f565b82525050565b5f6040820190506120aa5f830185612088565b6120b76020830184612088565b9392505050565b5f73ffffffffffffffffffffffffffffffffffffffff82169050919050565b5f6120e7826120be565b9050919050565b6120f7816120dd565b82525050565b5f6020820190506121105f8301846120ee565b92915050565b5f6020820190506121295f830184612088565b92915050565b5f5ffd5b5f5ffd5b6121408161207f565b811461214a575f5ffd5b50565b5f8135905061215b81612137565b92915050565b5f5ffd5b5f5ffd5b5f5ffd5b5f5f83601f84011261218257612181612161565b5b8235905067ffffffffffffffff81111561219f5761219e612165565b5b6020830191508360208202830111156121bb576121ba612169565b5b9250929050565b6121cb816120dd565b81146121d5575f5ffd5b50565b5f813590506121e6816121c2565b92915050565b5f5f5f5f5f5f60a087890312156122065761220561212f565b5b5f61221389828a0161214d565b965050602061222489828a0161214d565b955050604087013567ffffffffffffffff81111561224557612244612133565b5b61225189828a0161216d565b9450945050606061226489828a016121d8565b925050608061227589828a0161214d565b9150509295509295509295565b5f5f604083850312156122985761229761212f565b5b5f6122a5858286016121d8565b92505060206122b6858286016121d8565b9150509250929050565b5f5f5f606084860312156122d7576122d661212f565b5b5f6122e4868287016121d8565b93505060206122f5868287016121d8565b92505060406123068682870161214d565b9150509250925092565b5f602082840312156123255761232461212f565b5b5f612332848285016121d8565b91505092915050565b5f5f5f5f5f5f5f60e0888a0312156123565761235561212f565b5b5f6123638a828b016121d8565b97505060206123748a828b016121d8565b96505060406123858a828b0161214d565b95505060606123968a828b0161214d565b94505060806123a78a828b0161214d565b93505060a06123b88a828b016121d8565b92505060c06123c98a828b0161214d565b91505092959891949750929550565b5f5f5f5f5f5f5f5f610100898b0312156123f5576123f461212f565b5b5f6124028b828c016121d8565b98505060206124138b828c016121d8565b97505060406124248b828c0161214d565b96505060606124358b828c0161214d565b95505060806124468b828c0161214d565b94505060a06124578b828c0161214d565b93505060c06124688b828c016121d8565b92505060e06124798b828c0161214d565b9150509295985092959890939650565b5f60608201905061249c5f830186612088565b6124a96020830185612088565b6124b66040830184612088565b949350505050565b5f82825260208201905092915050565b7f5472616e73616374696f6e2065787069726564000000000000000000000000005f82015250565b5f6125026013836124be565b915061250d826124ce565b602082019050919050565b5f6020820190508181035f83015261252f816124f6565b9050919050565b7f496e76616c696420696e707574000000000000000000000000000000000000005f82015250565b5f61256a600d836124be565b915061257582612536565b602082019050919050565b5f6020820190508181035f8301526125978161255e565b9050919050565b7f496e76616c6964207061746800000000000000000000000000000000000000005f82015250565b5f6125d2600c836124be565b91506125dd8261259e565b602082019050919050565b5f6020820190508181035f8301526125ff816125c6565b9050919050565b7f5a65726f206164647265737300000000000000000000000000000000000000005f82015250565b5f61263a600c836124be565b915061264582612606565b602082019050919050565b5f6020820190508181035f8301526126678161262e565b9050919050565b7f4e487b71000000000000000000000000000000000000000000000000000000005f52603260045260245ffd5b7f496e76616c696420746f6b656e000000000000000000000000000000000000005f82015250565b5f6126cf600d836124be565b91506126da8261269b565b602082019050919050565b5f6020820190508181035f8301526126fc816126c3565b9050919050565b7f53616d6520746f6b656e730000000000000000000000000000000000000000005f82015250565b5f612737600b836124be565b915061274282612703565b602082019050919050565b5f6020820190508181035f8301526127648161272b565b9050919050565b7f496e73756666696369656e74206f7574707574000000000000000000000000005f82015250565b5f61279f6013836124be565b91506127aa8261276b565b602082019050919050565b5f6020820190508181035f8301526127cc81612793565b9050919050565b5f6060820190506127e65f8301866120ee565b6127f360208301856120ee565b6128006040830184612088565b949350505050565b5f8115159050919050565b61281c81612808565b8114612826575f5ffd5b50565b5f8151905061283781612813565b92915050565b5f602082840312156128525761285161212f565b5b5f61285f84828501612829565b91505092915050565b5f60408201905061287b5f8301856120ee565b6128886020830184612088565b9392505050565b7f4e487b71000000000000000000000000000000000000000000000000000000005f52601160045260245ffd5b5f6128c68261207f565b91506128d18361207f565b92508282019050808211156128e9576128e861288f565b5b92915050565b5f6128f98261207f565b91506129048361207f565b925082820390508181111561291c5761291b61288f565b5b92915050565b5f6080820190506129355f8301876120ee565b61294260208301866120ee565b61294f6040830185612088565b61295c6060830184612088565b95945050505050565b7f416c726561647920696e697469616c697a6564000000000000000000000000005f82015250565b5f6129996013836124be565b91506129a482612965565b602082019050919050565b5f6020820190508181035f8301526129c68161298d565b9050919050565b7f4964656e746963616c20746f6b656e73000000000000000000000000000000005f82015250565b5f612a016010836124be565b9150612a0c826129cd565b602082019050919050565b5f6020820190508181035f830152612a2e816129f5565b9050919050565b7f4e6f206c697175696469747900000000000000000000000000000000000000005f82015250565b5f612a69600c836124be565b9150612a7482612a35565b602082019050919050565b5f6020820190508181035f830152612a9681612a5d565b9050919050565b5f612aa78261207f565b9150612ab28361207f565b9250828202612ac08161207f565b91508282048414831517612ad757612ad661288f565b5b5092915050565b7f4e487b71000000000000000000000000000000000000000000000000000000005f52601260045260245ffd5b5f612b158261207f565b9150612b208361207f565b925082612b3057612b2f612ade565b5b828204905092915050565b7f496e76616c696420746f6b656e730000000000000000000000000000000000005f82015250565b5f612b6f600e836124be565b9150612b7a82612b3b565b602082019050919050565b5f6020820190508181035f830152612b9c81612b63565b9050919050565b7f496e76616c696420616d6f756e740000000000000000000000000000000000005f82015250565b5f612bd7600e836124be565b9150612be282612ba3565b602082019050919050565b5f6020820190508181035f830152612c0481612bcb565b9050919050565b7f496e73756666696369656e742062616c616e63650000000000000000000000005f82015250565b5f612c3f6014836124be565b9150612c4a82612c0b565b602082019050919050565b5f6020820190508181035f830152612c6c81612c33565b9050919050565b7f496e73756666696369656e74204120616d6f756e7400000000000000000000005f82015250565b5f612ca76015836124be565b9150612cb282612c73565b602082019050919050565b5f6020820190508181035f830152612cd481612c9b565b9050919050565b7f496e73756666696369656e74204220616d6f756e7400000000000000000000005f82015250565b5f612d0f6015836124be565b9150612d1a82612cdb565b602082019050919050565b5f6020820190508181035f830152612d3c81612d03565b9050919050565b7f496e73756666696369656e74206c6971756964697479000000000000000000005f82015250565b5f612d776016836124be565b9150612d8282612d43565b602082019050919050565b5f6020820190508181035f830152612da481612d6b565b9050919050565b7f496e76616c6964207265736572766573000000000000000000000000000000005f82015250565b5f612ddf6010836124be565b9150612dea82612dab565b602082019050919050565b5f6020820190508181035f830152612e0c81612dd3565b905091905056fea26469706673582212204453af49f381a5189b023f6e379040c6a8ffb3e292c148c7ef2cec3248f27bad64736f6c634300081e0033",
					"opcodes": "PUSH1 0x80 PUSH1 0x40 MSTORE CALLVALUE DUP1 ISZERO PUSH1 0xE JUMPI PUSH0 PUSH0 REVERT JUMPDEST POP PUSH2 0x2E49 DUP1 PUSH2 0x1C PUSH0 CODECOPY PUSH0 RETURN INVALID PUSH1 0x80 PUSH1 0x40 MSTORE CALLVALUE DUP1 ISZERO PUSH2 0xF JUMPI PUSH0 PUSH0 REVERT JUMPDEST POP PUSH1 0x4 CALLDATASIZE LT PUSH2 0xCD JUMPI PUSH0 CALLDATALOAD PUSH1 0xE0 SHR DUP1 PUSH4 0x4AA06652 GT PUSH2 0x8A JUMPI DUP1 PUSH4 0xAC41865A GT PUSH2 0x64 JUMPI DUP1 PUSH4 0xAC41865A EQ PUSH2 0x200 JUMPI DUP1 PUSH4 0xBAA2ABDE EQ PUSH2 0x230 JUMPI DUP1 PUSH4 0xDC5FA6C5 EQ PUSH2 0x261 JUMPI DUP1 PUSH4 0xE8E33700 EQ PUSH2 0x27F JUMPI PUSH2 0xCD JUMP JUMPDEST DUP1 PUSH4 0x4AA06652 EQ PUSH2 0x182 JUMPI DUP1 PUSH4 0x5F64B55B EQ PUSH2 0x1B2 JUMPI DUP1 PUSH4 0x70A08231 EQ PUSH2 0x1D0 JUMPI PUSH2 0xCD JUMP JUMPDEST DUP1 PUSH4 0x902F1AC EQ PUSH2 0xD1 JUMPI DUP1 PUSH4 0xFC63D10 EQ PUSH2 0xF0 JUMPI DUP1 PUSH4 0x18160DDD EQ PUSH2 0x10E JUMPI DUP1 PUSH4 0x19E36F3B EQ PUSH2 0x12C JUMPI DUP1 PUSH4 0x38ED1739 EQ PUSH2 0x14A JUMPI DUP1 PUSH4 0x485CC955 EQ PUSH2 0x166 JUMPI JUMPDEST PUSH0 PUSH0 REVERT JUMPDEST PUSH2 0xD9 PUSH2 0x2B1 JUMP JUMPDEST PUSH1 0x40 MLOAD PUSH2 0xE7 SWAP3 SWAP2 SWAP1 PUSH2 0x2097 JUMP JUMPDEST PUSH1 0x40 MLOAD DUP1 SWAP2 SUB SWAP1 RETURN JUMPDEST PUSH2 0xF8 PUSH2 0x2C1 JUMP JUMPDEST PUSH1 0x40 MLOAD PUSH2 0x105 SWAP2 SWAP1 PUSH2 0x20FD JUMP JUMPDEST PUSH1 0x40 MLOAD DUP1 SWAP2 SUB SWAP1 RETURN JUMPDEST PUSH2 0x116 PUSH2 0x2E5 JUMP JUMPDEST PUSH1 0x40 MLOAD PUSH2 0x123 SWAP2 SWAP1 PUSH2 0x2116 JUMP JUMPDEST PUSH1 0x40 MLOAD DUP1 SWAP2 SUB SWAP1 RETURN JUMPDEST PUSH2 0x134 PUSH2 0x2EB JUMP JUMPDEST PUSH1 0x40 MLOAD PUSH2 0x141 SWAP2 SWAP1 PUSH2 0x2116 JUMP JUMPDEST PUSH1 0x40 MLOAD DUP1 SWAP2 SUB SWAP1 RETURN JUMPDEST PUSH2 0x164 PUSH1 0x4 DUP1 CALLDATASIZE SUB DUP2 ADD SWAP1 PUSH2 0x15F SWAP2 SWAP1 PUSH2 0x21EC JUMP JUMPDEST PUSH2 0x2F1 JUMP JUMPDEST STOP JUMPDEST PUSH2 0x180 PUSH1 0x4 DUP1 CALLDATASIZE SUB DUP2 ADD SWAP1 PUSH2 0x17B SWAP2 SWAP1 PUSH2 0x2282 JUMP JUMPDEST PUSH2 0x9E2 JUMP JUMPDEST STOP JUMPDEST PUSH2 0x19C PUSH1 0x4 DUP1 CALLDATASIZE SUB DUP2 ADD SWAP1 PUSH2 0x197 SWAP2 SWAP1 PUSH2 0x22C0 JUMP JUMPDEST PUSH2 0xC08 JUMP JUMPDEST PUSH1 0x40 MLOAD PUSH2 0x1A9 SWAP2 SWAP1 PUSH2 0x2116 JUMP JUMPDEST PUSH1 0x40 MLOAD DUP1 SWAP2 SUB SWAP1 RETURN JUMPDEST PUSH2 0x1BA PUSH2 0xFCF JUMP JUMPDEST PUSH1 0x40 MLOAD PUSH2 0x1C7 SWAP2 SWAP1 PUSH2 0x20FD JUMP JUMPDEST PUSH1 0x40 MLOAD DUP1 SWAP2 SUB SWAP1 RETURN JUMPDEST PUSH2 0x1EA PUSH1 0x4 DUP1 CALLDATASIZE SUB DUP2 ADD SWAP1 PUSH2 0x1E5 SWAP2 SWAP1 PUSH2 0x2310 JUMP JUMPDEST PUSH2 0xFF4 JUMP JUMPDEST PUSH1 0x40 MLOAD PUSH2 0x1F7 SWAP2 SWAP1 PUSH2 0x2116 JUMP JUMPDEST PUSH1 0x40 MLOAD DUP1 SWAP2 SUB SWAP1 RETURN JUMPDEST PUSH2 0x21A PUSH1 0x4 DUP1 CALLDATASIZE SUB DUP2 ADD SWAP1 PUSH2 0x215 SWAP2 SWAP1 PUSH2 0x2282 JUMP JUMPDEST PUSH2 0x1009 JUMP JUMPDEST PUSH1 0x40 MLOAD PUSH2 0x227 SWAP2 SWAP1 PUSH2 0x2116 JUMP JUMPDEST PUSH1 0x40 MLOAD DUP1 SWAP2 SUB SWAP1 RETURN JUMPDEST PUSH2 0x24A PUSH1 0x4 DUP1 CALLDATASIZE SUB DUP2 ADD SWAP1 PUSH2 0x245 SWAP2 SWAP1 PUSH2 0x233B JUMP JUMPDEST PUSH2 0x11EA JUMP JUMPDEST PUSH1 0x40 MLOAD PUSH2 0x258 SWAP3 SWAP2 SWAP1 PUSH2 0x2097 JUMP JUMPDEST PUSH1 0x40 MLOAD DUP1 SWAP2 SUB SWAP1 RETURN JUMPDEST PUSH2 0x269 PUSH2 0x1737 JUMP JUMPDEST PUSH1 0x40 MLOAD PUSH2 0x276 SWAP2 SWAP1 PUSH2 0x2116 JUMP JUMPDEST PUSH1 0x40 MLOAD DUP1 SWAP2 SUB SWAP1 RETURN JUMPDEST PUSH2 0x299 PUSH1 0x4 DUP1 CALLDATASIZE SUB DUP2 ADD SWAP1 PUSH2 0x294 SWAP2 SWAP1 PUSH2 0x23D8 JUMP JUMPDEST PUSH2 0x173D JUMP JUMPDEST PUSH1 0x40 MLOAD PUSH2 0x2A8 SWAP4 SWAP3 SWAP2 SWAP1 PUSH2 0x2489 JUMP JUMPDEST PUSH1 0x40 MLOAD DUP1 SWAP2 SUB SWAP1 RETURN JUMPDEST PUSH0 PUSH0 PUSH1 0x2 SLOAD SWAP2 POP PUSH1 0x3 SLOAD SWAP1 POP SWAP1 SWAP2 JUMP JUMPDEST PUSH0 PUSH0 SWAP1 SLOAD SWAP1 PUSH2 0x100 EXP SWAP1 DIV PUSH20 0xFFFFFFFFFFFFFFFFFFFFFFFFFFFFFFFFFFFFFFFF AND DUP2 JUMP JUMPDEST PUSH1 0x4 SLOAD DUP2 JUMP JUMPDEST PUSH1 0x3 SLOAD DUP2 JUMP JUMPDEST DUP1 TIMESTAMP GT ISZERO PUSH2 0x334 JUMPI PUSH1 0x40 MLOAD PUSH32 0x8C379A000000000000000000000000000000000000000000000000000000000 DUP2 MSTORE PUSH1 0x4 ADD PUSH2 0x32B SWAP1 PUSH2 0x2518 JUMP JUMPDEST PUSH1 0x40 MLOAD DUP1 SWAP2 SUB SWAP1 REVERT JUMPDEST PUSH0 DUP7 GT PUSH2 0x376 JUMPI PUSH1 0x40 MLOAD PUSH32 0x8C379A000000000000000000000000000000000000000000000000000000000 DUP2 MSTORE PUSH1 0x4 ADD PUSH2 0x36D SWAP1 PUSH2 0x2580 JUMP JUMPDEST PUSH1 0x40 MLOAD DUP1 SWAP2 SUB SWAP1 REVERT JUMPDEST PUSH1 0x2 DUP5 DUP5 SWAP1 POP EQ PUSH2 0x3BC JUMPI PUSH1 0x40 MLOAD PUSH32 0x8C379A000000000000000000000000000000000000000000000000000000000 DUP2 MSTORE PUSH1 0x4 ADD PUSH2 0x3B3 SWAP1 PUSH2 0x25E8 JUMP JUMPDEST PUSH1 0x40 MLOAD DUP1 SWAP2 SUB SWAP1 REVERT JUMPDEST PUSH0 PUSH20 0xFFFFFFFFFFFFFFFFFFFFFFFFFFFFFFFFFFFFFFFF AND DUP3 PUSH20 0xFFFFFFFFFFFFFFFFFFFFFFFFFFFFFFFFFFFFFFFF AND SUB PUSH2 0x42A JUMPI PUSH1 0x40 MLOAD PUSH32 0x8C379A000000000000000000000000000000000000000000000000000000000 DUP2 MSTORE PUSH1 0x4 ADD PUSH2 0x421 SWAP1 PUSH2 0x2650 JUMP JUMPDEST PUSH1 0x40 MLOAD DUP1 SWAP2 SUB SWAP1 REVERT JUMPDEST PUSH0 DUP5 DUP5 PUSH0 DUP2 DUP2 LT PUSH2 0x43E JUMPI PUSH2 0x43D PUSH2 0x266E JUMP JUMPDEST JUMPDEST SWAP1 POP PUSH1 0x20 MUL ADD PUSH1 0x20 DUP2 ADD SWAP1 PUSH2 0x453 SWAP2 SWAP1 PUSH2 0x2310 JUMP JUMPDEST SWAP1 POP PUSH0 DUP6 DUP6 PUSH1 0x1 DUP2 DUP2 LT PUSH2 0x46A JUMPI PUSH2 0x469 PUSH2 0x266E JUMP JUMPDEST JUMPDEST SWAP1 POP PUSH1 0x20 MUL ADD PUSH1 0x20 DUP2 ADD SWAP1 PUSH2 0x47F SWAP2 SWAP1 PUSH2 0x2310 JUMP JUMPDEST SWAP1 POP PUSH0 PUSH0 SWAP1 SLOAD SWAP1 PUSH2 0x100 EXP SWAP1 DIV PUSH20 0xFFFFFFFFFFFFFFFFFFFFFFFFFFFFFFFFFFFFFFFF AND PUSH20 0xFFFFFFFFFFFFFFFFFFFFFFFFFFFFFFFFFFFFFFFF AND DUP3 PUSH20 0xFFFFFFFFFFFFFFFFFFFFFFFFFFFFFFFFFFFFFFFF AND EQ DUP1 PUSH2 0x527 JUMPI POP PUSH1 0x1 PUSH0 SWAP1 SLOAD SWAP1 PUSH2 0x100 EXP SWAP1 DIV PUSH20 0xFFFFFFFFFFFFFFFFFFFFFFFFFFFFFFFFFFFFFFFF AND PUSH20 0xFFFFFFFFFFFFFFFFFFFFFFFFFFFFFFFFFFFFFFFF AND DUP3 PUSH20 0xFFFFFFFFFFFFFFFFFFFFFFFFFFFFFFFFFFFFFFFF AND EQ JUMPDEST PUSH2 0x566 JUMPI PUSH1 0x40 MLOAD PUSH32 0x8C379A000000000000000000000000000000000000000000000000000000000 DUP2 MSTORE PUSH1 0x4 ADD PUSH2 0x55D SWAP1 PUSH2 0x26E5 JUMP JUMPDEST PUSH1 0x40 MLOAD DUP1 SWAP2 SUB SWAP1 REVERT JUMPDEST PUSH0 PUSH0 SWAP1 SLOAD SWAP1 PUSH2 0x100 EXP SWAP1 DIV PUSH20 0xFFFFFFFFFFFFFFFFFFFFFFFFFFFFFFFFFFFFFFFF AND PUSH20 0xFFFFFFFFFFFFFFFFFFFFFFFFFFFFFFFFFFFFFFFF AND DUP2 PUSH20 0xFFFFFFFFFFFFFFFFFFFFFFFFFFFFFFFFFFFFFFFF AND EQ DUP1 PUSH2 0x60C JUMPI POP PUSH1 0x1 PUSH0 SWAP1 SLOAD SWAP1 PUSH2 0x100 EXP SWAP1 DIV PUSH20 0xFFFFFFFFFFFFFFFFFFFFFFFFFFFFFFFFFFFFFFFF AND PUSH20 0xFFFFFFFFFFFFFFFFFFFFFFFFFFFFFFFFFFFFFFFF AND DUP2 PUSH20 0xFFFFFFFFFFFFFFFFFFFFFFFFFFFFFFFFFFFFFFFF AND EQ JUMPDEST PUSH2 0x64B JUMPI PUSH1 0x40 MLOAD PUSH32 0x8C379A000000000000000000000000000000000000000000000000000000000 DUP2 MSTORE PUSH1 0x4 ADD PUSH2 0x642 SWAP1 PUSH2 0x26E5 JUMP JUMPDEST PUSH1 0x40 MLOAD DUP1 SWAP2 SUB SWAP1 REVERT JUMPDEST DUP1 PUSH20 0xFFFFFFFFFFFFFFFFFFFFFFFFFFFFFFFFFFFFFFFF AND DUP3 PUSH20 0xFFFFFFFFFFFFFFFFFFFFFFFFFFFFFFFFFFFFFFFF AND SUB PUSH2 0x6B9 JUMPI PUSH1 0x40 MLOAD PUSH32 0x8C379A000000000000000000000000000000000000000000000000000000000 DUP2 MSTORE PUSH1 0x4 ADD PUSH2 0x6B0 SWAP1 PUSH2 0x274D JUMP JUMPDEST PUSH1 0x40 MLOAD DUP1 SWAP2 SUB SWAP1 REVERT JUMPDEST PUSH0 PUSH0 PUSH0 SWAP1 SLOAD SWAP1 PUSH2 0x100 EXP SWAP1 DIV PUSH20 0xFFFFFFFFFFFFFFFFFFFFFFFFFFFFFFFFFFFFFFFF AND PUSH20 0xFFFFFFFFFFFFFFFFFFFFFFFFFFFFFFFFFFFFFFFF AND DUP4 PUSH20 0xFFFFFFFFFFFFFFFFFFFFFFFFFFFFFFFFFFFFFFFF AND EQ PUSH2 0x715 JUMPI PUSH1 0x3 SLOAD PUSH2 0x719 JUMP JUMPDEST PUSH1 0x2 SLOAD JUMPDEST SWAP1 POP PUSH0 PUSH0 PUSH0 SWAP1 SLOAD SWAP1 PUSH2 0x100 EXP SWAP1 DIV PUSH20 0xFFFFFFFFFFFFFFFFFFFFFFFFFFFFFFFFFFFFFFFF AND PUSH20 0xFFFFFFFFFFFFFFFFFFFFFFFFFFFFFFFFFFFFFFFF AND DUP5 PUSH20 0xFFFFFFFFFFFFFFFFFFFFFFFFFFFFFFFFFFFFFFFF AND EQ PUSH2 0x777 JUMPI PUSH1 0x2 SLOAD PUSH2 0x77B JUMP JUMPDEST PUSH1 0x3 SLOAD JUMPDEST SWAP1 POP PUSH0 PUSH2 0x789 DUP12 DUP5 DUP5 PUSH2 0x1E08 JUMP JUMPDEST SWAP1 POP DUP10 DUP2 LT ISZERO PUSH2 0x7CE JUMPI PUSH1 0x40 MLOAD PUSH32 0x8C379A000000000000000000000000000000000000000000000000000000000 DUP2 MSTORE PUSH1 0x4 ADD PUSH2 0x7C5 SWAP1 PUSH2 0x27B5 JUMP JUMPDEST PUSH1 0x40 MLOAD DUP1 SWAP2 SUB SWAP1 REVERT JUMPDEST DUP5 PUSH20 0xFFFFFFFFFFFFFFFFFFFFFFFFFFFFFFFFFFFFFFFF AND PUSH4 0x23B872DD CALLER ADDRESS DUP15 PUSH1 0x40 MLOAD DUP5 PUSH4 0xFFFFFFFF AND PUSH1 0xE0 SHL DUP2 MSTORE PUSH1 0x4 ADD PUSH2 0x80B SWAP4 SWAP3 SWAP2 SWAP1 PUSH2 0x27D3 JUMP JUMPDEST PUSH1 0x20 PUSH1 0x40 MLOAD DUP1 DUP4 SUB DUP2 PUSH0 DUP8 GAS CALL ISZERO DUP1 ISZERO PUSH2 0x827 JUMPI RETURNDATASIZE PUSH0 PUSH0 RETURNDATACOPY RETURNDATASIZE PUSH0 REVERT JUMPDEST POP POP POP POP PUSH1 0x40 MLOAD RETURNDATASIZE PUSH1 0x1F NOT PUSH1 0x1F DUP3 ADD AND DUP3 ADD DUP1 PUSH1 0x40 MSTORE POP DUP2 ADD SWAP1 PUSH2 0x84B SWAP2 SWAP1 PUSH2 0x283D JUMP JUMPDEST POP DUP4 PUSH20 0xFFFFFFFFFFFFFFFFFFFFFFFFFFFFFFFFFFFFFFFF AND PUSH4 0xA9059CBB DUP9 DUP4 PUSH1 0x40 MLOAD DUP4 PUSH4 0xFFFFFFFF AND PUSH1 0xE0 SHL DUP2 MSTORE PUSH1 0x4 ADD PUSH2 0x887 SWAP3 SWAP2 SWAP1 PUSH2 0x2868 JUMP JUMPDEST PUSH1 0x20 PUSH1 0x40 MLOAD DUP1 DUP4 SUB DUP2 PUSH0 DUP8 GAS CALL ISZERO DUP1 ISZERO PUSH2 0x8A3 JUMPI RETURNDATASIZE PUSH0 PUSH0 RETURNDATACOPY RETURNDATASIZE PUSH0 REVERT JUMPDEST POP POP POP POP PUSH1 0x40 MLOAD RETURNDATASIZE PUSH1 0x1F NOT PUSH1 0x1F DUP3 ADD AND DUP3 ADD DUP1 PUSH1 0x40 MSTORE POP DUP2 ADD SWAP1 PUSH2 0x8C7 SWAP2 SWAP1 PUSH2 0x283D JUMP JUMPDEST POP PUSH0 PUSH0 SWAP1 SLOAD SWAP1 PUSH2 0x100 EXP SWAP1 DIV PUSH20 0xFFFFFFFFFFFFFFFFFFFFFFFFFFFFFFFFFFFFFFFF AND PUSH20 0xFFFFFFFFFFFFFFFFFFFFFFFFFFFFFFFFFFFFFFFF AND DUP6 PUSH20 0xFFFFFFFFFFFFFFFFFFFFFFFFFFFFFFFFFFFFFFFF AND SUB PUSH2 0x950 JUMPI DUP11 PUSH1 0x2 PUSH0 DUP3 DUP3 SLOAD PUSH2 0x92C SWAP2 SWAP1 PUSH2 0x28BC JUMP JUMPDEST SWAP3 POP POP DUP2 SWAP1 SSTORE POP DUP1 PUSH1 0x3 PUSH0 DUP3 DUP3 SLOAD PUSH2 0x944 SWAP2 SWAP1 PUSH2 0x28EF JUMP JUMPDEST SWAP3 POP POP DUP2 SWAP1 SSTORE POP PUSH2 0x981 JUMP JUMPDEST DUP11 PUSH1 0x3 PUSH0 DUP3 DUP3 SLOAD PUSH2 0x961 SWAP2 SWAP1 PUSH2 0x28BC JUMP JUMPDEST SWAP3 POP POP DUP2 SWAP1 SSTORE POP DUP1 PUSH1 0x2 PUSH0 DUP3 DUP3 SLOAD PUSH2 0x979 SWAP2 SWAP1 PUSH2 0x28EF JUMP JUMPDEST SWAP3 POP POP DUP2 SWAP1 SSTORE POP JUMPDEST CALLER PUSH20 0xFFFFFFFFFFFFFFFFFFFFFFFFFFFFFFFFFFFFFFFF AND PUSH32 0xCD3829A3813DC3CDD188FD3D01DCF3268C16BE2FDD2DD21D0665418816E46062 DUP7 DUP7 DUP15 DUP6 PUSH1 0x40 MLOAD PUSH2 0x9CD SWAP5 SWAP4 SWAP3 SWAP2 SWAP1 PUSH2 0x2922 JUMP JUMPDEST PUSH1 0x40 MLOAD DUP1 SWAP2 SUB SWAP1 LOG2 POP POP POP POP POP POP POP POP POP POP POP JUMP JUMPDEST PUSH0 PUSH20 0xFFFFFFFFFFFFFFFFFFFFFFFFFFFFFFFFFFFFFFFF AND PUSH0 PUSH0 SWAP1 SLOAD SWAP1 PUSH2 0x100 EXP SWAP1 DIV PUSH20 0xFFFFFFFFFFFFFFFFFFFFFFFFFFFFFFFFFFFFFFFF AND PUSH20 0xFFFFFFFFFFFFFFFFFFFFFFFFFFFFFFFFFFFFFFFF AND EQ PUSH2 0xA70 JUMPI PUSH1 0x40 MLOAD PUSH32 0x8C379A000000000000000000000000000000000000000000000000000000000 DUP2 MSTORE PUSH1 0x4 ADD PUSH2 0xA67 SWAP1 PUSH2 0x29AF JUMP JUMPDEST PUSH1 0x40 MLOAD DUP1 SWAP2 SUB SWAP1 REVERT JUMPDEST DUP1 PUSH20 0xFFFFFFFFFFFFFFFFFFFFFFFFFFFFFFFFFFFFFFFF AND DUP3 PUSH20 0xFFFFFFFFFFFFFFFFFFFFFFFFFFFFFFFFFFFFFFFF AND SUB PUSH2 0xADE JUMPI PUSH1 0x40 MLOAD PUSH32 0x8C379A000000000000000000000000000000000000000000000000000000000 DUP2 MSTORE PUSH1 0x4 ADD PUSH2 0xAD5 SWAP1 PUSH2 0x2A17 JUMP JUMPDEST PUSH1 0x40 MLOAD DUP1 SWAP2 SUB SWAP1 REVERT JUMPDEST PUSH0 PUSH20 0xFFFFFFFFFFFFFFFFFFFFFFFFFFFFFFFFFFFFFFFF AND DUP3 PUSH20 0xFFFFFFFFFFFFFFFFFFFFFFFFFFFFFFFFFFFFFFFF AND EQ ISZERO DUP1 ISZERO PUSH2 0xB46 JUMPI POP PUSH0 PUSH20 0xFFFFFFFFFFFFFFFFFFFFFFFFFFFFFFFFFFFFFFFF AND DUP2 PUSH20 0xFFFFFFFFFFFFFFFFFFFFFFFFFFFFFFFFFFFFFFFF AND EQ ISZERO JUMPDEST PUSH2 0xB85 JUMPI PUSH1 0x40 MLOAD PUSH32 0x8C379A000000000000000000000000000000000000000000000000000000000 DUP2 MSTORE PUSH1 0x4 ADD PUSH2 0xB7C SWAP1 PUSH2 0x2650 JUMP JUMPDEST PUSH1 0x40 MLOAD DUP1 SWAP2 SUB SWAP1 REVERT JUMPDEST DUP2 PUSH0 PUSH0 PUSH2 0x100 EXP DUP2 SLOAD DUP2 PUSH20 0xFFFFFFFFFFFFFFFFFFFFFFFFFFFFFFFFFFFFFFFF MUL NOT AND SWAP1 DUP4 PUSH20 0xFFFFFFFFFFFFFFFFFFFFFFFFFFFFFFFFFFFFFFFF AND MUL OR SWAP1 SSTORE POP DUP1 PUSH1 0x1 PUSH0 PUSH2 0x100 EXP DUP2 SLOAD DUP2 PUSH20 0xFFFFFFFFFFFFFFFFFFFFFFFFFFFFFFFFFFFFFFFF MUL NOT AND SWAP1 DUP4 PUSH20 0xFFFFFFFFFFFFFFFFFFFFFFFFFFFFFFFFFFFFFFFF AND MUL OR SWAP1 SSTORE POP POP POP JUMP JUMPDEST PUSH0 PUSH0 DUP3 GT PUSH2 0xC4B JUMPI PUSH1 0x40 MLOAD PUSH32 0x8C379A000000000000000000000000000000000000000000000000000000000 DUP2 MSTORE PUSH1 0x4 ADD PUSH2 0xC42 SWAP1 PUSH2 0x2580 JUMP JUMPDEST PUSH1 0x40 MLOAD DUP1 SWAP2 SUB SWAP1 REVERT JUMPDEST PUSH0 PUSH0 SWAP1 SLOAD SWAP1 PUSH2 0x100 EXP SWAP1 DIV PUSH20 0xFFFFFFFFFFFFFFFFFFFFFFFFFFFFFFFFFFFFFFFF AND PUSH20 0xFFFFFFFFFFFFFFFFFFFFFFFFFFFFFFFFFFFFFFFF AND DUP5 PUSH20 0xFFFFFFFFFFFFFFFFFFFFFFFFFFFFFFFFFFFFFFFF AND EQ DUP1 PUSH2 0xCF1 JUMPI POP PUSH1 0x1 PUSH0 SWAP1 SLOAD SWAP1 PUSH2 0x100 EXP SWAP1 DIV PUSH20 0xFFFFFFFFFFFFFFFFFFFFFFFFFFFFFFFFFFFFFFFF AND PUSH20 0xFFFFFFFFFFFFFFFFFFFFFFFFFFFFFFFFFFFFFFFF AND DUP5 PUSH20 0xFFFFFFFFFFFFFFFFFFFFFFFFFFFFFFFFFFFFFFFF AND EQ JUMPDEST PUSH2 0xD30 JUMPI PUSH1 0x40 MLOAD PUSH32 0x8C379A000000000000000000000000000000000000000000000000000000000 DUP2 MSTORE PUSH1 0x4 ADD PUSH2 0xD27 SWAP1 PUSH2 0x26E5 JUMP JUMPDEST PUSH1 0x40 MLOAD DUP1 SWAP2 SUB SWAP1 REVERT JUMPDEST PUSH0 PUSH0 SWAP1 SLOAD SWAP1 PUSH2 0x100 EXP SWAP1 DIV PUSH20 0xFFFFFFFFFFFFFFFFFFFFFFFFFFFFFFFFFFFFFFFF AND PUSH20 0xFFFFFFFFFFFFFFFFFFFFFFFFFFFFFFFFFFFFFFFF AND DUP4 PUSH20 0xFFFFFFFFFFFFFFFFFFFFFFFFFFFFFFFFFFFFFFFF AND EQ DUP1 PUSH2 0xDD6 JUMPI POP PUSH1 0x1 PUSH0 SWAP1 SLOAD SWAP1 PUSH2 0x100 EXP SWAP1 DIV PUSH20 0xFFFFFFFFFFFFFFFFFFFFFFFFFFFFFFFFFFFFFFFF AND PUSH20 0xFFFFFFFFFFFFFFFFFFFFFFFFFFFFFFFFFFFFFFFF AND DUP4 PUSH20 0xFFFFFFFFFFFFFFFFFFFFFFFFFFFFFFFFFFFFFFFF AND EQ JUMPDEST PUSH2 0xE15 JUMPI PUSH1 0x40 MLOAD PUSH32 0x8C379A000000000000000000000000000000000000000000000000000000000 DUP2 MSTORE PUSH1 0x4 ADD PUSH2 0xE0C SWAP1 PUSH2 0x26E5 JUMP JUMPDEST PUSH1 0x40 MLOAD DUP1 SWAP2 SUB SWAP1 REVERT JUMPDEST DUP3 PUSH20 0xFFFFFFFFFFFFFFFFFFFFFFFFFFFFFFFFFFFFFFFF AND DUP5 PUSH20 0xFFFFFFFFFFFFFFFFFFFFFFFFFFFFFFFFFFFFFFFF AND SUB PUSH2 0xE83 JUMPI PUSH1 0x40 MLOAD PUSH32 0x8C379A000000000000000000000000000000000000000000000000000000000 DUP2 MSTORE PUSH1 0x4 ADD PUSH2 0xE7A SWAP1 PUSH2 0x274D JUMP JUMPDEST PUSH1 0x40 MLOAD DUP1 SWAP2 SUB SWAP1 REVERT JUMPDEST PUSH0 PUSH1 0x2 SLOAD GT DUP1 ISZERO PUSH2 0xE95 JUMPI POP PUSH0 PUSH1 0x3 SLOAD GT JUMPDEST PUSH2 0xED4 JUMPI PUSH1 0x40 MLOAD PUSH32 0x8C379A000000000000000000000000000000000000000000000000000000000 DUP2 MSTORE PUSH1 0x4 ADD PUSH2 0xECB SWAP1 PUSH2 0x2A7F JUMP JUMPDEST PUSH1 0x40 MLOAD DUP1 SWAP2 SUB SWAP1 REVERT JUMPDEST PUSH0 PUSH0 PUSH0 SWAP1 SLOAD SWAP1 PUSH2 0x100 EXP SWAP1 DIV PUSH20 0xFFFFFFFFFFFFFFFFFFFFFFFFFFFFFFFFFFFFFFFF AND PUSH20 0xFFFFFFFFFFFFFFFFFFFFFFFFFFFFFFFFFFFFFFFF AND DUP6 PUSH20 0xFFFFFFFFFFFFFFFFFFFFFFFFFFFFFFFFFFFFFFFF AND EQ PUSH2 0xF30 JUMPI PUSH1 0x3 SLOAD PUSH2 0xF34 JUMP JUMPDEST PUSH1 0x2 SLOAD JUMPDEST SWAP1 POP PUSH0 PUSH0 PUSH0 SWAP1 SLOAD SWAP1 PUSH2 0x100 EXP SWAP1 DIV PUSH20 0xFFFFFFFFFFFFFFFFFFFFFFFFFFFFFFFFFFFFFFFF AND PUSH20 0xFFFFFFFFFFFFFFFFFFFFFFFFFFFFFFFFFFFFFFFF AND DUP7 PUSH20 0xFFFFFFFFFFFFFFFFFFFFFFFFFFFFFFFFFFFFFFFF AND EQ PUSH2 0xF92 JUMPI PUSH1 0x2 SLOAD PUSH2 0xF96 JUMP JUMPDEST PUSH1 0x3 SLOAD JUMPDEST SWAP1 POP PUSH0 DUP2 DUP6 PUSH2 0xFA5 SWAP2 SWAP1 PUSH2 0x2A9D JUMP JUMPDEST SWAP1 POP PUSH0 DUP6 DUP5 PUSH2 0xFB4 SWAP2 SWAP1 PUSH2 0x28BC JUMP JUMPDEST SWAP1 POP DUP1 DUP3 PUSH2 0xFC2 SWAP2 SWAP1 PUSH2 0x2B0B JUMP JUMPDEST SWAP5 POP POP POP POP POP SWAP4 SWAP3 POP POP POP JUMP JUMPDEST PUSH1 0x1 PUSH0 SWAP1 SLOAD SWAP1 PUSH2 0x100 EXP SWAP1 DIV PUSH20 0xFFFFFFFFFFFFFFFFFFFFFFFFFFFFFFFFFFFFFFFF AND DUP2 JUMP JUMPDEST PUSH1 0x5 PUSH1 0x20 MSTORE DUP1 PUSH0 MSTORE PUSH1 0x40 PUSH0 KECCAK256 PUSH0 SWAP2 POP SWAP1 POP SLOAD DUP2 JUMP JUMPDEST PUSH0 PUSH0 PUSH0 SWAP1 SLOAD SWAP1 PUSH2 0x100 EXP SWAP1 DIV PUSH20 0xFFFFFFFFFFFFFFFFFFFFFFFFFFFFFFFFFFFFFFFF AND PUSH20 0xFFFFFFFFFFFFFFFFFFFFFFFFFFFFFFFFFFFFFFFF AND DUP4 PUSH20 0xFFFFFFFFFFFFFFFFFFFFFFFFFFFFFFFFFFFFFFFF AND EQ DUP1 ISZERO PUSH2 0x10B1 JUMPI POP PUSH1 0x1 PUSH0 SWAP1 SLOAD SWAP1 PUSH2 0x100 EXP SWAP1 DIV PUSH20 0xFFFFFFFFFFFFFFFFFFFFFFFFFFFFFFFFFFFFFFFF AND PUSH20 0xFFFFFFFFFFFFFFFFFFFFFFFFFFFFFFFFFFFFFFFF AND DUP3 PUSH20 0xFFFFFFFFFFFFFFFFFFFFFFFFFFFFFFFFFFFFFFFF AND EQ JUMPDEST PUSH2 0x10F0 JUMPI PUSH1 0x40 MLOAD PUSH32 0x8C379A000000000000000000000000000000000000000000000000000000000 DUP2 MSTORE PUSH1 0x4 ADD PUSH2 0x10E7 SWAP1 PUSH2 0x2B85 JUMP JUMPDEST PUSH1 0x40 MLOAD DUP1 SWAP2 SUB SWAP1 REVERT JUMPDEST PUSH0 PUSH1 0x2 SLOAD GT DUP1 ISZERO PUSH2 0x1102 JUMPI POP PUSH0 PUSH1 0x3 SLOAD GT JUMPDEST PUSH2 0x1141 JUMPI PUSH1 0x40 MLOAD PUSH32 0x8C379A000000000000000000000000000000000000000000000000000000000 DUP2 MSTORE PUSH1 0x4 ADD PUSH2 0x1138 SWAP1 PUSH2 0x2A7F JUMP JUMPDEST PUSH1 0x40 MLOAD DUP1 SWAP2 SUB SWAP1 REVERT JUMPDEST PUSH0 PUSH0 SWAP1 SLOAD SWAP1 PUSH2 0x100 EXP SWAP1 DIV PUSH20 0xFFFFFFFFFFFFFFFFFFFFFFFFFFFFFFFFFFFFFFFF AND PUSH20 0xFFFFFFFFFFFFFFFFFFFFFFFFFFFFFFFFFFFFFFFF AND DUP4 PUSH20 0xFFFFFFFFFFFFFFFFFFFFFFFFFFFFFFFFFFFFFFFF AND SUB PUSH2 0x11BE JUMPI PUSH1 0x2 SLOAD PUSH8 0xDE0B6B3A7640000 PUSH1 0x3 SLOAD PUSH2 0x11AD SWAP2 SWAP1 PUSH2 0x2A9D JUMP JUMPDEST PUSH2 0x11B7 SWAP2 SWAP1 PUSH2 0x2B0B JUMP JUMPDEST SWAP1 POP PUSH2 0x11E4 JUMP JUMPDEST PUSH1 0x3 SLOAD PUSH8 0xDE0B6B3A7640000 PUSH1 0x2 SLOAD PUSH2 0x11D7 SWAP2 SWAP1 PUSH2 0x2A9D JUMP JUMPDEST PUSH2 0x11E1 SWAP2 SWAP1 PUSH2 0x2B0B JUMP JUMPDEST SWAP1 POP JUMPDEST SWAP3 SWAP2 POP POP JUMP JUMPDEST PUSH0 PUSH0 DUP3 TIMESTAMP GT ISZERO PUSH2 0x122F JUMPI PUSH1 0x40 MLOAD PUSH32 0x8C379A000000000000000000000000000000000000000000000000000000000 DUP2 MSTORE PUSH1 0x4 ADD PUSH2 0x1226 SWAP1 PUSH2 0x2518 JUMP JUMPDEST PUSH1 0x40 MLOAD DUP1 SWAP2 SUB SWAP1 REVERT JUMPDEST PUSH0 PUSH0 SWAP1 SLOAD SWAP1 PUSH2 0x100 EXP SWAP1 DIV PUSH20 0xFFFFFFFFFFFFFFFFFFFFFFFFFFFFFFFFFFFFFFFF AND PUSH20 0xFFFFFFFFFFFFFFFFFFFFFFFFFFFFFFFFFFFFFFFF AND DUP10 PUSH20 0xFFFFFFFFFFFFFFFFFFFFFFFFFFFFFFFFFFFFFFFF AND EQ DUP1 ISZERO PUSH2 0x12D6 JUMPI POP PUSH1 0x1 PUSH0 SWAP1 SLOAD SWAP1 PUSH2 0x100 EXP SWAP1 DIV PUSH20 0xFFFFFFFFFFFFFFFFFFFFFFFFFFFFFFFFFFFFFFFF AND PUSH20 0xFFFFFFFFFFFFFFFFFFFFFFFFFFFFFFFFFFFFFFFF AND DUP9 PUSH20 0xFFFFFFFFFFFFFFFFFFFFFFFFFFFFFFFFFFFFFFFF AND EQ JUMPDEST PUSH2 0x1315 JUMPI PUSH1 0x40 MLOAD PUSH32 0x8C379A000000000000000000000000000000000000000000000000000000000 DUP2 MSTORE PUSH1 0x4 ADD PUSH2 0x130C SWAP1 PUSH2 0x2B85 JUMP JUMPDEST PUSH1 0x40 MLOAD DUP1 SWAP2 SUB SWAP1 REVERT JUMPDEST PUSH0 DUP8 GT PUSH2 0x1357 JUMPI PUSH1 0x40 MLOAD PUSH32 0x8C379A000000000000000000000000000000000000000000000000000000000 DUP2 MSTORE PUSH1 0x4 ADD PUSH2 0x134E SWAP1 PUSH2 0x2BED JUMP JUMPDEST PUSH1 0x40 MLOAD DUP1 SWAP2 SUB SWAP1 REVERT JUMPDEST DUP7 PUSH1 0x5 PUSH0 CALLER PUSH20 0xFFFFFFFFFFFFFFFFFFFFFFFFFFFFFFFFFFFFFFFF AND PUSH20 0xFFFFFFFFFFFFFFFFFFFFFFFFFFFFFFFFFFFFFFFF AND DUP2 MSTORE PUSH1 0x20 ADD SWAP1 DUP2 MSTORE PUSH1 0x20 ADD PUSH0 KECCAK256 SLOAD LT ISZERO PUSH2 0x13D7 JUMPI PUSH1 0x40 MLOAD PUSH32 0x8C379A000000000000000000000000000000000000000000000000000000000 DUP2 MSTORE PUSH1 0x4 ADD PUSH2 0x13CE SWAP1 PUSH2 0x2C55 JUMP JUMPDEST PUSH1 0x40 MLOAD DUP1 SWAP2 SUB SWAP1 REVERT JUMPDEST PUSH0 PUSH20 0xFFFFFFFFFFFFFFFFFFFFFFFFFFFFFFFFFFFFFFFF AND DUP5 PUSH20 0xFFFFFFFFFFFFFFFFFFFFFFFFFFFFFFFFFFFFFFFF AND SUB PUSH2 0x1445 JUMPI PUSH1 0x40 MLOAD PUSH32 0x8C379A000000000000000000000000000000000000000000000000000000000 DUP2 MSTORE PUSH1 0x4 ADD PUSH2 0x143C SWAP1 PUSH2 0x2650 JUMP JUMPDEST PUSH1 0x40 MLOAD DUP1 SWAP2 SUB SWAP1 REVERT JUMPDEST PUSH1 0x4 SLOAD PUSH1 0x2 SLOAD DUP9 PUSH2 0x1456 SWAP2 SWAP1 PUSH2 0x2A9D JUMP JUMPDEST PUSH2 0x1460 SWAP2 SWAP1 PUSH2 0x2B0B JUMP JUMPDEST SWAP2 POP PUSH1 0x4 SLOAD PUSH1 0x3 SLOAD DUP9 PUSH2 0x1473 SWAP2 SWAP1 PUSH2 0x2A9D JUMP JUMPDEST PUSH2 0x147D SWAP2 SWAP1 PUSH2 0x2B0B JUMP JUMPDEST SWAP1 POP DUP6 DUP3 LT ISZERO PUSH2 0x14C2 JUMPI PUSH1 0x40 MLOAD PUSH32 0x8C379A000000000000000000000000000000000000000000000000000000000 DUP2 MSTORE PUSH1 0x4 ADD PUSH2 0x14B9 SWAP1 PUSH2 0x2CBD JUMP JUMPDEST PUSH1 0x40 MLOAD DUP1 SWAP2 SUB SWAP1 REVERT JUMPDEST DUP5 DUP2 LT ISZERO PUSH2 0x1505 JUMPI PUSH1 0x40 MLOAD PUSH32 0x8C379A000000000000000000000000000000000000000000000000000000000 DUP2 MSTORE PUSH1 0x4 ADD PUSH2 0x14FC SWAP1 PUSH2 0x2D25 JUMP JUMPDEST PUSH1 0x40 MLOAD DUP1 SWAP2 SUB SWAP1 REVERT JUMPDEST DUP7 PUSH1 0x5 PUSH0 CALLER PUSH20 0xFFFFFFFFFFFFFFFFFFFFFFFFFFFFFFFFFFFFFFFF AND PUSH20 0xFFFFFFFFFFFFFFFFFFFFFFFFFFFFFFFFFFFFFFFF AND DUP2 MSTORE PUSH1 0x20 ADD SWAP1 DUP2 MSTORE PUSH1 0x20 ADD PUSH0 KECCAK256 PUSH0 DUP3 DUP3 SLOAD PUSH2 0x1551 SWAP2 SWAP1 PUSH2 0x28EF JUMP JUMPDEST SWAP3 POP POP DUP2 SWAP1 SSTORE POP DUP7 PUSH1 0x4 PUSH0 DUP3 DUP3 SLOAD PUSH2 0x1569 SWAP2 SWAP1 PUSH2 0x28EF JUMP JUMPDEST SWAP3 POP POP DUP2 SWAP1 SSTORE POP DUP2 PUSH1 0x2 PUSH0 DUP3 DUP3 SLOAD PUSH2 0x1581 SWAP2 SWAP1 PUSH2 0x28EF JUMP JUMPDEST SWAP3 POP POP DUP2 SWAP1 SSTORE POP DUP1 PUSH1 0x3 PUSH0 DUP3 DUP3 SLOAD PUSH2 0x1599 SWAP2 SWAP1 PUSH2 0x28EF JUMP JUMPDEST SWAP3 POP POP DUP2 SWAP1 SSTORE POP PUSH0 PUSH0 SWAP1 SLOAD SWAP1 PUSH2 0x100 EXP SWAP1 DIV PUSH20 0xFFFFFFFFFFFFFFFFFFFFFFFFFFFFFFFFFFFFFFFF AND PUSH20 0xFFFFFFFFFFFFFFFFFFFFFFFFFFFFFFFFFFFFFFFF AND PUSH4 0xA9059CBB DUP6 DUP5 PUSH1 0x40 MLOAD DUP4 PUSH4 0xFFFFFFFF AND PUSH1 0xE0 SHL DUP2 MSTORE PUSH1 0x4 ADD PUSH2 0x15FB SWAP3 SWAP2 SWAP1 PUSH2 0x2868 JUMP JUMPDEST PUSH1 0x20 PUSH1 0x40 MLOAD DUP1 DUP4 SUB DUP2 PUSH0 DUP8 GAS CALL ISZERO DUP1 ISZERO PUSH2 0x1617 JUMPI RETURNDATASIZE PUSH0 PUSH0 RETURNDATACOPY RETURNDATASIZE PUSH0 REVERT JUMPDEST POP POP POP POP PUSH1 0x40 MLOAD RETURNDATASIZE PUSH1 0x1F NOT PUSH1 0x1F DUP3 ADD AND DUP3 ADD DUP1 PUSH1 0x40 MSTORE POP DUP2 ADD SWAP1 PUSH2 0x163B SWAP2 SWAP1 PUSH2 0x283D JUMP JUMPDEST POP PUSH1 0x1 PUSH0 SWAP1 SLOAD SWAP1 PUSH2 0x100 EXP SWAP1 DIV PUSH20 0xFFFFFFFFFFFFFFFFFFFFFFFFFFFFFFFFFFFFFFFF AND PUSH20 0xFFFFFFFFFFFFFFFFFFFFFFFFFFFFFFFFFFFFFFFF AND PUSH4 0xA9059CBB DUP6 DUP4 PUSH1 0x40 MLOAD DUP4 PUSH4 0xFFFFFFFF AND PUSH1 0xE0 SHL DUP2 MSTORE PUSH1 0x4 ADD PUSH2 0x1698 SWAP3 SWAP2 SWAP1 PUSH2 0x2868 JUMP JUMPDEST PUSH1 0x20 PUSH1 0x40 MLOAD DUP1 DUP4 SUB DUP2 PUSH0 DUP8 GAS CALL ISZERO DUP1 ISZERO PUSH2 0x16B4 JUMPI RETURNDATASIZE PUSH0 PUSH0 RETURNDATACOPY RETURNDATASIZE PUSH0 REVERT JUMPDEST POP POP POP POP PUSH1 0x40 MLOAD RETURNDATASIZE PUSH1 0x1F NOT PUSH1 0x1F DUP3 ADD AND DUP3 ADD DUP1 PUSH1 0x40 MSTORE POP DUP2 ADD SWAP1 PUSH2 0x16D8 SWAP2 SWAP1 PUSH2 0x283D JUMP JUMPDEST POP DUP4 PUSH20 0xFFFFFFFFFFFFFFFFFFFFFFFFFFFFFFFFFFFFFFFF AND PUSH32 0x1DC8BB69DF2B8E91FBDCBFCF93D951B3F0000F085A95FE3F7946D6161439245D DUP4 DUP4 DUP11 PUSH1 0x40 MLOAD PUSH2 0x1723 SWAP4 SWAP3 SWAP2 SWAP1 PUSH2 0x2489 JUMP JUMPDEST PUSH1 0x40 MLOAD DUP1 SWAP2 SUB SWAP1 LOG2 SWAP8 POP SWAP8 SWAP6 POP POP POP POP POP POP JUMP JUMPDEST PUSH1 0x2 SLOAD DUP2 JUMP JUMPDEST PUSH0 PUSH0 PUSH0 DUP4 TIMESTAMP GT ISZERO PUSH2 0x1783 JUMPI PUSH1 0x40 MLOAD PUSH32 0x8C379A000000000000000000000000000000000000000000000000000000000 DUP2 MSTORE PUSH1 0x4 ADD PUSH2 0x177A SWAP1 PUSH2 0x2518 JUMP JUMPDEST PUSH1 0x40 MLOAD DUP1 SWAP2 SUB SWAP1 REVERT JUMPDEST PUSH0 PUSH20 0xFFFFFFFFFFFFFFFFFFFFFFFFFFFFFFFFFFFFFFFF AND DUP6 PUSH20 0xFFFFFFFFFFFFFFFFFFFFFFFFFFFFFFFFFFFFFFFF AND SUB PUSH2 0x17F1 JUMPI PUSH1 0x40 MLOAD PUSH32 0x8C379A000000000000000000000000000000000000000000000000000000000 DUP2 MSTORE PUSH1 0x4 ADD PUSH2 0x17E8 SWAP1 PUSH2 0x2650 JUMP JUMPDEST PUSH1 0x40 MLOAD DUP1 SWAP2 SUB SWAP1 REVERT JUMPDEST PUSH0 PUSH20 0xFFFFFFFFFFFFFFFFFFFFFFFFFFFFFFFFFFFFFFFF AND PUSH0 PUSH0 SWAP1 SLOAD SWAP1 PUSH2 0x100 EXP SWAP1 DIV PUSH20 0xFFFFFFFFFFFFFFFFFFFFFFFFFFFFFFFFFFFFFFFF AND PUSH20 0xFFFFFFFFFFFFFFFFFFFFFFFFFFFFFFFFFFFFFFFF AND SUB PUSH2 0x19DD JUMPI DUP10 PUSH20 0xFFFFFFFFFFFFFFFFFFFFFFFFFFFFFFFFFFFFFFFF AND DUP12 PUSH20 0xFFFFFFFFFFFFFFFFFFFFFFFFFFFFFFFFFFFFFFFF AND SUB PUSH2 0x18B2 JUMPI PUSH1 0x40 MLOAD PUSH32 0x8C379A000000000000000000000000000000000000000000000000000000000 DUP2 MSTORE PUSH1 0x4 ADD PUSH2 0x18A9 SWAP1 PUSH2 0x2A17 JUMP JUMPDEST PUSH1 0x40 MLOAD DUP1 SWAP2 SUB SWAP1 REVERT JUMPDEST PUSH0 PUSH20 0xFFFFFFFFFFFFFFFFFFFFFFFFFFFFFFFFFFFFFFFF AND DUP12 PUSH20 0xFFFFFFFFFFFFFFFFFFFFFFFFFFFFFFFFFFFFFFFF AND EQ ISZERO DUP1 ISZERO PUSH2 0x191A JUMPI POP PUSH0 PUSH20 0xFFFFFFFFFFFFFFFFFFFFFFFFFFFFFFFFFFFFFFFF AND DUP11 PUSH20 0xFFFFFFFFFFFFFFFFFFFFFFFFFFFFFFFFFFFFFFFF AND EQ ISZERO JUMPDEST PUSH2 0x1959 JUMPI PUSH1 0x40 MLOAD PUSH32 0x8C379A000000000000000000000000000000000000000000000000000000000 DUP2 MSTORE PUSH1 0x4 ADD PUSH2 0x1950 SWAP1 PUSH2 0x2650 JUMP JUMPDEST PUSH1 0x40 MLOAD DUP1 SWAP2 SUB SWAP1 REVERT JUMPDEST DUP11 PUSH0 PUSH0 PUSH2 0x100 EXP DUP2 SLOAD DUP2 PUSH20 0xFFFFFFFFFFFFFFFFFFFFFFFFFFFFFFFFFFFFFFFF MUL NOT AND SWAP1 DUP4 PUSH20 0xFFFFFFFFFFFFFFFFFFFFFFFFFFFFFFFFFFFFFFFF AND MUL OR SWAP1 SSTORE POP DUP10 PUSH1 0x1 PUSH0 PUSH2 0x100 EXP DUP2 SLOAD DUP2 PUSH20 0xFFFFFFFFFFFFFFFFFFFFFFFFFFFFFFFFFFFFFFFF MUL NOT AND SWAP1 DUP4 PUSH20 0xFFFFFFFFFFFFFFFFFFFFFFFFFFFFFFFFFFFFFFFF AND MUL OR SWAP1 SSTORE POP PUSH2 0x1AC4 JUMP JUMPDEST PUSH0 PUSH0 SWAP1 SLOAD SWAP1 PUSH2 0x100 EXP SWAP1 DIV PUSH20 0xFFFFFFFFFFFFFFFFFFFFFFFFFFFFFFFFFFFFFFFF AND PUSH20 0xFFFFFFFFFFFFFFFFFFFFFFFFFFFFFFFFFFFFFFFF AND DUP12 PUSH20 0xFFFFFFFFFFFFFFFFFFFFFFFFFFFFFFFFFFFFFFFF AND EQ DUP1 ISZERO PUSH2 0x1A84 JUMPI POP PUSH1 0x1 PUSH0 SWAP1 SLOAD SWAP1 PUSH2 0x100 EXP SWAP1 DIV PUSH20 0xFFFFFFFFFFFFFFFFFFFFFFFFFFFFFFFFFFFFFFFF AND PUSH20 0xFFFFFFFFFFFFFFFFFFFFFFFFFFFFFFFFFFFFFFFF AND DUP11 PUSH20 0xFFFFFFFFFFFFFFFFFFFFFFFFFFFFFFFFFFFFFFFF AND EQ JUMPDEST PUSH2 0x1AC3 JUMPI PUSH1 0x40 MLOAD PUSH32 0x8C379A000000000000000000000000000000000000000000000000000000000 DUP2 MSTORE PUSH1 0x4 ADD PUSH2 0x1ABA SWAP1 PUSH2 0x2B85 JUMP JUMPDEST PUSH1 0x40 MLOAD DUP1 SWAP2 SUB SWAP1 REVERT JUMPDEST JUMPDEST PUSH2 0x1AD0 DUP10 DUP10 DUP10 DUP10 PUSH2 0x1ECD JUMP JUMPDEST DUP1 SWAP4 POP DUP2 SWAP5 POP POP POP PUSH0 PUSH0 SWAP1 SLOAD SWAP1 PUSH2 0x100 EXP SWAP1 DIV PUSH20 0xFFFFFFFFFFFFFFFFFFFFFFFFFFFFFFFFFFFFFFFF AND PUSH20 0xFFFFFFFFFFFFFFFFFFFFFFFFFFFFFFFFFFFFFFFF AND PUSH4 0x23B872DD CALLER ADDRESS DUP7 PUSH1 0x40 MLOAD DUP5 PUSH4 0xFFFFFFFF AND PUSH1 0xE0 SHL DUP2 MSTORE PUSH1 0x4 ADD PUSH2 0x1B35 SWAP4 SWAP3 SWAP2 SWAP1 PUSH2 0x27D3 JUMP JUMPDEST PUSH1 0x20 PUSH1 0x40 MLOAD DUP1 DUP4 SUB DUP2 PUSH0 DUP8 GAS CALL ISZERO DUP1 ISZERO PUSH2 0x1B51 JUMPI RETURNDATASIZE PUSH0 PUSH0 RETURNDATACOPY RETURNDATASIZE PUSH0 REVERT JUMPDEST POP POP POP POP PUSH1 0x40 MLOAD RETURNDATASIZE PUSH1 0x1F NOT PUSH1 0x1F DUP3 ADD AND DUP3 ADD DUP1 PUSH1 0x40 MSTORE POP DUP2 ADD SWAP1 PUSH2 0x1B75 SWAP2 SWAP1 PUSH2 0x283D JUMP JUMPDEST POP PUSH1 0x1 PUSH0 SWAP1 SLOAD SWAP1 PUSH2 0x100 EXP SWAP1 DIV PUSH20 0xFFFFFFFFFFFFFFFFFFFFFFFFFFFFFFFFFFFFFFFF AND PUSH20 0xFFFFFFFFFFFFFFFFFFFFFFFFFFFFFFFFFFFFFFFF AND PUSH4 0x23B872DD CALLER ADDRESS DUP6 PUSH1 0x40 MLOAD DUP5 PUSH4 0xFFFFFFFF AND PUSH1 0xE0 SHL DUP2 MSTORE PUSH1 0x4 ADD PUSH2 0x1BD4 SWAP4 SWAP3 SWAP2 SWAP1 PUSH2 0x27D3 JUMP JUMPDEST PUSH1 0x20 PUSH1 0x40 MLOAD DUP1 DUP4 SUB DUP2 PUSH0 DUP8 GAS CALL ISZERO DUP1 ISZERO PUSH2 0x1BF0 JUMPI RETURNDATASIZE PUSH0 PUSH0 RETURNDATACOPY RETURNDATASIZE PUSH0 REVERT JUMPDEST POP POP POP POP PUSH1 0x40 MLOAD RETURNDATASIZE PUSH1 0x1F NOT PUSH1 0x1F DUP3 ADD AND DUP3 ADD DUP1 PUSH1 0x40 MSTORE POP DUP2 ADD SWAP1 PUSH2 0x1C14 SWAP2 SWAP1 PUSH2 0x283D JUMP JUMPDEST POP PUSH0 PUSH1 0x4 SLOAD SUB PUSH2 0x1C8A JUMPI PUSH2 0x3E8 PUSH2 0x1C35 DUP4 DUP6 PUSH2 0x1C30 SWAP2 SWAP1 PUSH2 0x2A9D JUMP JUMPDEST PUSH2 0x1FF0 JUMP JUMPDEST PUSH2 0x1C3F SWAP2 SWAP1 PUSH2 0x28EF JUMP JUMPDEST SWAP1 POP PUSH2 0x3E8 PUSH1 0x5 PUSH0 PUSH0 PUSH20 0xFFFFFFFFFFFFFFFFFFFFFFFFFFFFFFFFFFFFFFFF AND PUSH20 0xFFFFFFFFFFFFFFFFFFFFFFFFFFFFFFFFFFFFFFFF AND DUP2 MSTORE PUSH1 0x20 ADD SWAP1 DUP2 MSTORE PUSH1 0x20 ADD PUSH0 KECCAK256 DUP2 SWAP1 SSTORE POP PUSH2 0x1CCB JUMP JUMPDEST PUSH2 0x1CC8 PUSH1 0x2 SLOAD PUSH1 0x4 SLOAD DUP6 PUSH2 0x1C9E SWAP2 SWAP1 PUSH2 0x2A9D JUMP JUMPDEST PUSH2 0x1CA8 SWAP2 SWAP1 PUSH2 0x2B0B JUMP JUMPDEST PUSH1 0x3 SLOAD PUSH1 0x4 SLOAD DUP6 PUSH2 0x1CB9 SWAP2 SWAP1 PUSH2 0x2A9D JUMP JUMPDEST PUSH2 0x1CC3 SWAP2 SWAP1 PUSH2 0x2B0B JUMP JUMPDEST PUSH2 0x2067 JUMP JUMPDEST SWAP1 POP JUMPDEST PUSH0 DUP2 GT PUSH2 0x1D0D JUMPI PUSH1 0x40 MLOAD PUSH32 0x8C379A000000000000000000000000000000000000000000000000000000000 DUP2 MSTORE PUSH1 0x4 ADD PUSH2 0x1D04 SWAP1 PUSH2 0x2D8D JUMP JUMPDEST PUSH1 0x40 MLOAD DUP1 SWAP2 SUB SWAP1 REVERT JUMPDEST DUP1 PUSH1 0x5 PUSH0 DUP8 PUSH20 0xFFFFFFFFFFFFFFFFFFFFFFFFFFFFFFFFFFFFFFFF AND PUSH20 0xFFFFFFFFFFFFFFFFFFFFFFFFFFFFFFFFFFFFFFFF AND DUP2 MSTORE PUSH1 0x20 ADD SWAP1 DUP2 MSTORE PUSH1 0x20 ADD PUSH0 KECCAK256 PUSH0 DUP3 DUP3 SLOAD PUSH2 0x1D59 SWAP2 SWAP1 PUSH2 0x28BC JUMP JUMPDEST SWAP3 POP POP DUP2 SWAP1 SSTORE POP DUP1 PUSH1 0x4 PUSH0 DUP3 DUP3 SLOAD PUSH2 0x1D71 SWAP2 SWAP1 PUSH2 0x28BC JUMP JUMPDEST SWAP3 POP POP DUP2 SWAP1 SSTORE POP DUP3 PUSH1 0x2 PUSH0 DUP3 DUP3 SLOAD PUSH2 0x1D89 SWAP2 SWAP1 PUSH2 0x28BC JUMP JUMPDEST SWAP3 POP POP DUP2 SWAP1 SSTORE POP DUP2 PUSH1 0x3 PUSH0 DUP3 DUP3 SLOAD PUSH2 0x1DA1 SWAP2 SWAP1 PUSH2 0x28BC JUMP JUMPDEST SWAP3 POP POP DUP2 SWAP1 SSTORE POP DUP5 PUSH20 0xFFFFFFFFFFFFFFFFFFFFFFFFFFFFFFFFFFFFFFFF AND PUSH32 0x64B83944E79C3CE8D4C297411DE637C3E102D064677AAC0C163976EBDCD6F50E DUP5 DUP5 DUP5 PUSH1 0x40 MLOAD PUSH2 0x1DF2 SWAP4 SWAP3 SWAP2 SWAP1 PUSH2 0x2489 JUMP JUMPDEST PUSH1 0x40 MLOAD DUP1 SWAP2 SUB SWAP1 LOG2 SWAP9 POP SWAP9 POP SWAP9 SWAP6 POP POP POP POP POP POP JUMP JUMPDEST PUSH0 PUSH0 DUP5 GT PUSH2 0x1E4B JUMPI PUSH1 0x40 MLOAD PUSH32 0x8C379A000000000000000000000000000000000000000000000000000000000 DUP2 MSTORE PUSH1 0x4 ADD PUSH2 0x1E42 SWAP1 PUSH2 0x2580 JUMP JUMPDEST PUSH1 0x40 MLOAD DUP1 SWAP2 SUB SWAP1 REVERT JUMPDEST PUSH0 DUP4 GT DUP1 ISZERO PUSH2 0x1E59 JUMPI POP PUSH0 DUP3 GT JUMPDEST PUSH2 0x1E98 JUMPI PUSH1 0x40 MLOAD PUSH32 0x8C379A000000000000000000000000000000000000000000000000000000000 DUP2 MSTORE PUSH1 0x4 ADD PUSH2 0x1E8F SWAP1 PUSH2 0x2DF5 JUMP JUMPDEST PUSH1 0x40 MLOAD DUP1 SWAP2 SUB SWAP1 REVERT JUMPDEST PUSH0 DUP3 DUP6 PUSH2 0x1EA5 SWAP2 SWAP1 PUSH2 0x2A9D JUMP JUMPDEST SWAP1 POP PUSH0 DUP6 DUP6 PUSH2 0x1EB4 SWAP2 SWAP1 PUSH2 0x28BC JUMP JUMPDEST SWAP1 POP DUP1 DUP3 PUSH2 0x1EC2 SWAP2 SWAP1 PUSH2 0x2B0B JUMP JUMPDEST SWAP3 POP POP POP SWAP4 SWAP3 POP POP POP JUMP JUMPDEST PUSH0 PUSH0 PUSH0 PUSH1 0x2 SLOAD EQ DUP1 ISZERO PUSH2 0x1EE1 JUMPI POP PUSH0 PUSH1 0x3 SLOAD EQ JUMPDEST ISZERO PUSH2 0x1EF5 JUMPI DUP6 DUP6 DUP1 SWAP3 POP DUP2 SWAP4 POP POP POP PUSH2 0x1FE7 JUMP JUMPDEST PUSH0 PUSH1 0x2 SLOAD PUSH1 0x3 SLOAD DUP9 PUSH2 0x1F07 SWAP2 SWAP1 PUSH2 0x2A9D JUMP JUMPDEST PUSH2 0x1F11 SWAP2 SWAP1 PUSH2 0x2B0B JUMP JUMPDEST SWAP1 POP DUP6 DUP2 GT PUSH2 0x1F6C JUMPI DUP4 DUP2 LT ISZERO PUSH2 0x1F5D JUMPI PUSH1 0x40 MLOAD PUSH32 0x8C379A000000000000000000000000000000000000000000000000000000000 DUP2 MSTORE PUSH1 0x4 ADD PUSH2 0x1F54 SWAP1 PUSH2 0x2D25 JUMP JUMPDEST PUSH1 0x40 MLOAD DUP1 SWAP2 SUB SWAP1 REVERT JUMPDEST DUP7 DUP2 DUP1 SWAP4 POP DUP2 SWAP5 POP POP POP PUSH2 0x1FE5 JUMP JUMPDEST PUSH0 PUSH1 0x3 SLOAD PUSH1 0x2 SLOAD DUP9 PUSH2 0x1F7E SWAP2 SWAP1 PUSH2 0x2A9D JUMP JUMPDEST PUSH2 0x1F88 SWAP2 SWAP1 PUSH2 0x2B0B JUMP JUMPDEST SWAP1 POP DUP8 DUP2 GT ISZERO DUP1 ISZERO PUSH2 0x1F9A JUMPI POP DUP6 DUP2 LT ISZERO JUMPDEST PUSH2 0x1FD9 JUMPI PUSH1 0x40 MLOAD PUSH32 0x8C379A000000000000000000000000000000000000000000000000000000000 DUP2 MSTORE PUSH1 0x4 ADD PUSH2 0x1FD0 SWAP1 PUSH2 0x2CBD JUMP JUMPDEST PUSH1 0x40 MLOAD DUP1 SWAP2 SUB SWAP1 REVERT JUMPDEST DUP1 DUP8 DUP1 SWAP5 POP DUP2 SWAP6 POP POP POP POP JUMPDEST POP JUMPDEST SWAP5 POP SWAP5 SWAP3 POP POP POP JUMP JUMPDEST PUSH0 PUSH1 0x3 DUP3 GT ISZERO PUSH2 0x2055 JUMPI DUP2 SWAP1 POP PUSH0 PUSH1 0x1 PUSH1 0x2 DUP5 PUSH2 0x200D SWAP2 SWAP1 PUSH2 0x2B0B JUMP JUMPDEST PUSH2 0x2017 SWAP2 SWAP1 PUSH2 0x28BC JUMP JUMPDEST SWAP1 POP JUMPDEST DUP2 DUP2 LT ISZERO PUSH2 0x204F JUMPI DUP1 SWAP2 POP PUSH1 0x2 DUP2 DUP3 DUP6 PUSH2 0x2034 SWAP2 SWAP1 PUSH2 0x2B0B JUMP JUMPDEST PUSH2 0x203E SWAP2 SWAP1 PUSH2 0x28BC JUMP JUMPDEST PUSH2 0x2048 SWAP2 SWAP1 PUSH2 0x2B0B JUMP JUMPDEST SWAP1 POP PUSH2 0x201A JUMP JUMPDEST POP PUSH2 0x2062 JUMP JUMPDEST PUSH0 DUP3 EQ PUSH2 0x2061 JUMPI PUSH1 0x1 SWAP1 POP JUMPDEST JUMPDEST SWAP2 SWAP1 POP JUMP JUMPDEST PUSH0 DUP2 DUP4 LT PUSH2 0x2075 JUMPI DUP2 PUSH2 0x2077 JUMP JUMPDEST DUP3 JUMPDEST SWAP1 POP SWAP3 SWAP2 POP POP JUMP JUMPDEST PUSH0 DUP2 SWAP1 POP SWAP2 SWAP1 POP JUMP JUMPDEST PUSH2 0x2091 DUP2 PUSH2 0x207F JUMP JUMPDEST DUP3 MSTORE POP POP JUMP JUMPDEST PUSH0 PUSH1 0x40 DUP3 ADD SWAP1 POP PUSH2 0x20AA PUSH0 DUP4 ADD DUP6 PUSH2 0x2088 JUMP JUMPDEST PUSH2 0x20B7 PUSH1 0x20 DUP4 ADD DUP5 PUSH2 0x2088 JUMP JUMPDEST SWAP4 SWAP3 POP POP POP JUMP JUMPDEST PUSH0 PUSH20 0xFFFFFFFFFFFFFFFFFFFFFFFFFFFFFFFFFFFFFFFF DUP3 AND SWAP1 POP SWAP2 SWAP1 POP JUMP JUMPDEST PUSH0 PUSH2 0x20E7 DUP3 PUSH2 0x20BE JUMP JUMPDEST SWAP1 POP SWAP2 SWAP1 POP JUMP JUMPDEST PUSH2 0x20F7 DUP2 PUSH2 0x20DD JUMP JUMPDEST DUP3 MSTORE POP POP JUMP JUMPDEST PUSH0 PUSH1 0x20 DUP3 ADD SWAP1 POP PUSH2 0x2110 PUSH0 DUP4 ADD DUP5 PUSH2 0x20EE JUMP JUMPDEST SWAP3 SWAP2 POP POP JUMP JUMPDEST PUSH0 PUSH1 0x20 DUP3 ADD SWAP1 POP PUSH2 0x2129 PUSH0 DUP4 ADD DUP5 PUSH2 0x2088 JUMP JUMPDEST SWAP3 SWAP2 POP POP JUMP JUMPDEST PUSH0 PUSH0 REVERT JUMPDEST PUSH0 PUSH0 REVERT JUMPDEST PUSH2 0x2140 DUP2 PUSH2 0x207F JUMP JUMPDEST DUP2 EQ PUSH2 0x214A JUMPI PUSH0 PUSH0 REVERT JUMPDEST POP JUMP JUMPDEST PUSH0 DUP2 CALLDATALOAD SWAP1 POP PUSH2 0x215B DUP2 PUSH2 0x2137 JUMP JUMPDEST SWAP3 SWAP2 POP POP JUMP JUMPDEST PUSH0 PUSH0 REVERT JUMPDEST PUSH0 PUSH0 REVERT JUMPDEST PUSH0 PUSH0 REVERT JUMPDEST PUSH0 PUSH0 DUP4 PUSH1 0x1F DUP5 ADD SLT PUSH2 0x2182 JUMPI PUSH2 0x2181 PUSH2 0x2161 JUMP JUMPDEST JUMPDEST DUP3 CALLDATALOAD SWAP1 POP PUSH8 0xFFFFFFFFFFFFFFFF DUP2 GT ISZERO PUSH2 0x219F JUMPI PUSH2 0x219E PUSH2 0x2165 JUMP JUMPDEST JUMPDEST PUSH1 0x20 DUP4 ADD SWAP2 POP DUP4 PUSH1 0x20 DUP3 MUL DUP4 ADD GT ISZERO PUSH2 0x21BB JUMPI PUSH2 0x21BA PUSH2 0x2169 JUMP JUMPDEST JUMPDEST SWAP3 POP SWAP3 SWAP1 POP JUMP JUMPDEST PUSH2 0x21CB DUP2 PUSH2 0x20DD JUMP JUMPDEST DUP2 EQ PUSH2 0x21D5 JUMPI PUSH0 PUSH0 REVERT JUMPDEST POP JUMP JUMPDEST PUSH0 DUP2 CALLDATALOAD SWAP1 POP PUSH2 0x21E6 DUP2 PUSH2 0x21C2 JUMP JUMPDEST SWAP3 SWAP2 POP POP JUMP JUMPDEST PUSH0 PUSH0 PUSH0 PUSH0 PUSH0 PUSH0 PUSH1 0xA0 DUP8 DUP10 SUB SLT ISZERO PUSH2 0x2206 JUMPI PUSH2 0x2205 PUSH2 0x212F JUMP JUMPDEST JUMPDEST PUSH0 PUSH2 0x2213 DUP10 DUP3 DUP11 ADD PUSH2 0x214D JUMP JUMPDEST SWAP7 POP POP PUSH1 0x20 PUSH2 0x2224 DUP10 DUP3 DUP11 ADD PUSH2 0x214D JUMP JUMPDEST SWAP6 POP POP PUSH1 0x40 DUP8 ADD CALLDATALOAD PUSH8 0xFFFFFFFFFFFFFFFF DUP2 GT ISZERO PUSH2 0x2245 JUMPI PUSH2 0x2244 PUSH2 0x2133 JUMP JUMPDEST JUMPDEST PUSH2 0x2251 DUP10 DUP3 DUP11 ADD PUSH2 0x216D JUMP JUMPDEST SWAP5 POP SWAP5 POP POP PUSH1 0x60 PUSH2 0x2264 DUP10 DUP3 DUP11 ADD PUSH2 0x21D8 JUMP JUMPDEST SWAP3 POP POP PUSH1 0x80 PUSH2 0x2275 DUP10 DUP3 DUP11 ADD PUSH2 0x214D JUMP JUMPDEST SWAP2 POP POP SWAP3 SWAP6 POP SWAP3 SWAP6 POP SWAP3 SWAP6 JUMP JUMPDEST PUSH0 PUSH0 PUSH1 0x40 DUP4 DUP6 SUB SLT ISZERO PUSH2 0x2298 JUMPI PUSH2 0x2297 PUSH2 0x212F JUMP JUMPDEST JUMPDEST PUSH0 PUSH2 0x22A5 DUP6 DUP3 DUP7 ADD PUSH2 0x21D8 JUMP JUMPDEST SWAP3 POP POP PUSH1 0x20 PUSH2 0x22B6 DUP6 DUP3 DUP7 ADD PUSH2 0x21D8 JUMP JUMPDEST SWAP2 POP POP SWAP3 POP SWAP3 SWAP1 POP JUMP JUMPDEST PUSH0 PUSH0 PUSH0 PUSH1 0x60 DUP5 DUP7 SUB SLT ISZERO PUSH2 0x22D7 JUMPI PUSH2 0x22D6 PUSH2 0x212F JUMP JUMPDEST JUMPDEST PUSH0 PUSH2 0x22E4 DUP7 DUP3 DUP8 ADD PUSH2 0x21D8 JUMP JUMPDEST SWAP4 POP POP PUSH1 0x20 PUSH2 0x22F5 DUP7 DUP3 DUP8 ADD PUSH2 0x21D8 JUMP JUMPDEST SWAP3 POP POP PUSH1 0x40 PUSH2 0x2306 DUP7 DUP3 DUP8 ADD PUSH2 0x214D JUMP JUMPDEST SWAP2 POP POP SWAP3 POP SWAP3 POP SWAP3 JUMP JUMPDEST PUSH0 PUSH1 0x20 DUP3 DUP5 SUB SLT ISZERO PUSH2 0x2325 JUMPI PUSH2 0x2324 PUSH2 0x212F JUMP JUMPDEST JUMPDEST PUSH0 PUSH2 0x2332 DUP5 DUP3 DUP6 ADD PUSH2 0x21D8 JUMP JUMPDEST SWAP2 POP POP SWAP3 SWAP2 POP POP JUMP JUMPDEST PUSH0 PUSH0 PUSH0 PUSH0 PUSH0 PUSH0 PUSH0 PUSH1 0xE0 DUP9 DUP11 SUB SLT ISZERO PUSH2 0x2356 JUMPI PUSH2 0x2355 PUSH2 0x212F JUMP JUMPDEST JUMPDEST PUSH0 PUSH2 0x2363 DUP11 DUP3 DUP12 ADD PUSH2 0x21D8 JUMP JUMPDEST SWAP8 POP POP PUSH1 0x20 PUSH2 0x2374 DUP11 DUP3 DUP12 ADD PUSH2 0x21D8 JUMP JUMPDEST SWAP7 POP POP PUSH1 0x40 PUSH2 0x2385 DUP11 DUP3 DUP12 ADD PUSH2 0x214D JUMP JUMPDEST SWAP6 POP POP PUSH1 0x60 PUSH2 0x2396 DUP11 DUP3 DUP12 ADD PUSH2 0x214D JUMP JUMPDEST SWAP5 POP POP PUSH1 0x80 PUSH2 0x23A7 DUP11 DUP3 DUP12 ADD PUSH2 0x214D JUMP JUMPDEST SWAP4 POP POP PUSH1 0xA0 PUSH2 0x23B8 DUP11 DUP3 DUP12 ADD PUSH2 0x21D8 JUMP JUMPDEST SWAP3 POP POP PUSH1 0xC0 PUSH2 0x23C9 DUP11 DUP3 DUP12 ADD PUSH2 0x214D JUMP JUMPDEST SWAP2 POP POP SWAP3 SWAP6 SWAP9 SWAP2 SWAP5 SWAP8 POP SWAP3 SWAP6 POP JUMP JUMPDEST PUSH0 PUSH0 PUSH0 PUSH0 PUSH0 PUSH0 PUSH0 PUSH0 PUSH2 0x100 DUP10 DUP12 SUB SLT ISZERO PUSH2 0x23F5 JUMPI PUSH2 0x23F4 PUSH2 0x212F JUMP JUMPDEST JUMPDEST PUSH0 PUSH2 0x2402 DUP12 DUP3 DUP13 ADD PUSH2 0x21D8 JUMP JUMPDEST SWAP9 POP POP PUSH1 0x20 PUSH2 0x2413 DUP12 DUP3 DUP13 ADD PUSH2 0x21D8 JUMP JUMPDEST SWAP8 POP POP PUSH1 0x40 PUSH2 0x2424 DUP12 DUP3 DUP13 ADD PUSH2 0x214D JUMP JUMPDEST SWAP7 POP POP PUSH1 0x60 PUSH2 0x2435 DUP12 DUP3 DUP13 ADD PUSH2 0x214D JUMP JUMPDEST SWAP6 POP POP PUSH1 0x80 PUSH2 0x2446 DUP12 DUP3 DUP13 ADD PUSH2 0x214D JUMP JUMPDEST SWAP5 POP POP PUSH1 0xA0 PUSH2 0x2457 DUP12 DUP3 DUP13 ADD PUSH2 0x214D JUMP JUMPDEST SWAP4 POP POP PUSH1 0xC0 PUSH2 0x2468 DUP12 DUP3 DUP13 ADD PUSH2 0x21D8 JUMP JUMPDEST SWAP3 POP POP PUSH1 0xE0 PUSH2 0x2479 DUP12 DUP3 DUP13 ADD PUSH2 0x214D JUMP JUMPDEST SWAP2 POP POP SWAP3 SWAP6 SWAP9 POP SWAP3 SWAP6 SWAP9 SWAP1 SWAP4 SWAP7 POP JUMP JUMPDEST PUSH0 PUSH1 0x60 DUP3 ADD SWAP1 POP PUSH2 0x249C PUSH0 DUP4 ADD DUP7 PUSH2 0x2088 JUMP JUMPDEST PUSH2 0x24A9 PUSH1 0x20 DUP4 ADD DUP6 PUSH2 0x2088 JUMP JUMPDEST PUSH2 0x24B6 PUSH1 0x40 DUP4 ADD DUP5 PUSH2 0x2088 JUMP JUMPDEST SWAP5 SWAP4 POP POP POP POP JUMP JUMPDEST PUSH0 DUP3 DUP3 MSTORE PUSH1 0x20 DUP3 ADD SWAP1 POP SWAP3 SWAP2 POP POP JUMP JUMPDEST PUSH32 0x5472616E73616374696F6E206578706972656400000000000000000000000000 PUSH0 DUP3 ADD MSTORE POP JUMP JUMPDEST PUSH0 PUSH2 0x2502 PUSH1 0x13 DUP4 PUSH2 0x24BE JUMP JUMPDEST SWAP2 POP PUSH2 0x250D DUP3 PUSH2 0x24CE JUMP JUMPDEST PUSH1 0x20 DUP3 ADD SWAP1 POP SWAP2 SWAP1 POP JUMP JUMPDEST PUSH0 PUSH1 0x20 DUP3 ADD SWAP1 POP DUP2 DUP2 SUB PUSH0 DUP4 ADD MSTORE PUSH2 0x252F DUP2 PUSH2 0x24F6 JUMP JUMPDEST SWAP1 POP SWAP2 SWAP1 POP JUMP JUMPDEST PUSH32 0x496E76616C696420696E70757400000000000000000000000000000000000000 PUSH0 DUP3 ADD MSTORE POP JUMP JUMPDEST PUSH0 PUSH2 0x256A PUSH1 0xD DUP4 PUSH2 0x24BE JUMP JUMPDEST SWAP2 POP PUSH2 0x2575 DUP3 PUSH2 0x2536 JUMP JUMPDEST PUSH1 0x20 DUP3 ADD SWAP1 POP SWAP2 SWAP1 POP JUMP JUMPDEST PUSH0 PUSH1 0x20 DUP3 ADD SWAP1 POP DUP2 DUP2 SUB PUSH0 DUP4 ADD MSTORE PUSH2 0x2597 DUP2 PUSH2 0x255E JUMP JUMPDEST SWAP1 POP SWAP2 SWAP1 POP JUMP JUMPDEST PUSH32 0x496E76616C696420706174680000000000000000000000000000000000000000 PUSH0 DUP3 ADD MSTORE POP JUMP JUMPDEST PUSH0 PUSH2 0x25D2 PUSH1 0xC DUP4 PUSH2 0x24BE JUMP JUMPDEST SWAP2 POP PUSH2 0x25DD DUP3 PUSH2 0x259E JUMP JUMPDEST PUSH1 0x20 DUP3 ADD SWAP1 POP SWAP2 SWAP1 POP JUMP JUMPDEST PUSH0 PUSH1 0x20 DUP3 ADD SWAP1 POP DUP2 DUP2 SUB PUSH0 DUP4 ADD MSTORE PUSH2 0x25FF DUP2 PUSH2 0x25C6 JUMP JUMPDEST SWAP1 POP SWAP2 SWAP1 POP JUMP JUMPDEST PUSH32 0x5A65726F20616464726573730000000000000000000000000000000000000000 PUSH0 DUP3 ADD MSTORE POP JUMP JUMPDEST PUSH0 PUSH2 0x263A PUSH1 0xC DUP4 PUSH2 0x24BE JUMP JUMPDEST SWAP2 POP PUSH2 0x2645 DUP3 PUSH2 0x2606 JUMP JUMPDEST PUSH1 0x20 DUP3 ADD SWAP1 POP SWAP2 SWAP1 POP JUMP JUMPDEST PUSH0 PUSH1 0x20 DUP3 ADD SWAP1 POP DUP2 DUP2 SUB PUSH0 DUP4 ADD MSTORE PUSH2 0x2667 DUP2 PUSH2 0x262E JUMP JUMPDEST SWAP1 POP SWAP2 SWAP1 POP JUMP JUMPDEST PUSH32 0x4E487B7100000000000000000000000000000000000000000000000000000000 PUSH0 MSTORE PUSH1 0x32 PUSH1 0x4 MSTORE PUSH1 0x24 PUSH0 REVERT JUMPDEST PUSH32 0x496E76616C696420746F6B656E00000000000000000000000000000000000000 PUSH0 DUP3 ADD MSTORE POP JUMP JUMPDEST PUSH0 PUSH2 0x26CF PUSH1 0xD DUP4 PUSH2 0x24BE JUMP JUMPDEST SWAP2 POP PUSH2 0x26DA DUP3 PUSH2 0x269B JUMP JUMPDEST PUSH1 0x20 DUP3 ADD SWAP1 POP SWAP2 SWAP1 POP JUMP JUMPDEST PUSH0 PUSH1 0x20 DUP3 ADD SWAP1 POP DUP2 DUP2 SUB PUSH0 DUP4 ADD MSTORE PUSH2 0x26FC DUP2 PUSH2 0x26C3 JUMP JUMPDEST SWAP1 POP SWAP2 SWAP1 POP JUMP JUMPDEST PUSH32 0x53616D6520746F6B656E73000000000000000000000000000000000000000000 PUSH0 DUP3 ADD MSTORE POP JUMP JUMPDEST PUSH0 PUSH2 0x2737 PUSH1 0xB DUP4 PUSH2 0x24BE JUMP JUMPDEST SWAP2 POP PUSH2 0x2742 DUP3 PUSH2 0x2703 JUMP JUMPDEST PUSH1 0x20 DUP3 ADD SWAP1 POP SWAP2 SWAP1 POP JUMP JUMPDEST PUSH0 PUSH1 0x20 DUP3 ADD SWAP1 POP DUP2 DUP2 SUB PUSH0 DUP4 ADD MSTORE PUSH2 0x2764 DUP2 PUSH2 0x272B JUMP JUMPDEST SWAP1 POP SWAP2 SWAP1 POP JUMP JUMPDEST PUSH32 0x496E73756666696369656E74206F757470757400000000000000000000000000 PUSH0 DUP3 ADD MSTORE POP JUMP JUMPDEST PUSH0 PUSH2 0x279F PUSH1 0x13 DUP4 PUSH2 0x24BE JUMP JUMPDEST SWAP2 POP PUSH2 0x27AA DUP3 PUSH2 0x276B JUMP JUMPDEST PUSH1 0x20 DUP3 ADD SWAP1 POP SWAP2 SWAP1 POP JUMP JUMPDEST PUSH0 PUSH1 0x20 DUP3 ADD SWAP1 POP DUP2 DUP2 SUB PUSH0 DUP4 ADD MSTORE PUSH2 0x27CC DUP2 PUSH2 0x2793 JUMP JUMPDEST SWAP1 POP SWAP2 SWAP1 POP JUMP JUMPDEST PUSH0 PUSH1 0x60 DUP3 ADD SWAP1 POP PUSH2 0x27E6 PUSH0 DUP4 ADD DUP7 PUSH2 0x20EE JUMP JUMPDEST PUSH2 0x27F3 PUSH1 0x20 DUP4 ADD DUP6 PUSH2 0x20EE JUMP JUMPDEST PUSH2 0x2800 PUSH1 0x40 DUP4 ADD DUP5 PUSH2 0x2088 JUMP JUMPDEST SWAP5 SWAP4 POP POP POP POP JUMP JUMPDEST PUSH0 DUP2 ISZERO ISZERO SWAP1 POP SWAP2 SWAP1 POP JUMP JUMPDEST PUSH2 0x281C DUP2 PUSH2 0x2808 JUMP JUMPDEST DUP2 EQ PUSH2 0x2826 JUMPI PUSH0 PUSH0 REVERT JUMPDEST POP JUMP JUMPDEST PUSH0 DUP2 MLOAD SWAP1 POP PUSH2 0x2837 DUP2 PUSH2 0x2813 JUMP JUMPDEST SWAP3 SWAP2 POP POP JUMP JUMPDEST PUSH0 PUSH1 0x20 DUP3 DUP5 SUB SLT ISZERO PUSH2 0x2852 JUMPI PUSH2 0x2851 PUSH2 0x212F JUMP JUMPDEST JUMPDEST PUSH0 PUSH2 0x285F DUP5 DUP3 DUP6 ADD PUSH2 0x2829 JUMP JUMPDEST SWAP2 POP POP SWAP3 SWAP2 POP POP JUMP JUMPDEST PUSH0 PUSH1 0x40 DUP3 ADD SWAP1 POP PUSH2 0x287B PUSH0 DUP4 ADD DUP6 PUSH2 0x20EE JUMP JUMPDEST PUSH2 0x2888 PUSH1 0x20 DUP4 ADD DUP5 PUSH2 0x2088 JUMP JUMPDEST SWAP4 SWAP3 POP POP POP JUMP JUMPDEST PUSH32 0x4E487B7100000000000000000000000000000000000000000000000000000000 PUSH0 MSTORE PUSH1 0x11 PUSH1 0x4 MSTORE PUSH1 0x24 PUSH0 REVERT JUMPDEST PUSH0 PUSH2 0x28C6 DUP3 PUSH2 0x207F JUMP JUMPDEST SWAP2 POP PUSH2 0x28D1 DUP4 PUSH2 0x207F JUMP JUMPDEST SWAP3 POP DUP3 DUP3 ADD SWAP1 POP DUP1 DUP3 GT ISZERO PUSH2 0x28E9 JUMPI PUSH2 0x28E8 PUSH2 0x288F JUMP JUMPDEST JUMPDEST SWAP3 SWAP2 POP POP JUMP JUMPDEST PUSH0 PUSH2 0x28F9 DUP3 PUSH2 0x207F JUMP JUMPDEST SWAP2 POP PUSH2 0x2904 DUP4 PUSH2 0x207F JUMP JUMPDEST SWAP3 POP DUP3 DUP3 SUB SWAP1 POP DUP2 DUP2 GT ISZERO PUSH2 0x291C JUMPI PUSH2 0x291B PUSH2 0x288F JUMP JUMPDEST JUMPDEST SWAP3 SWAP2 POP POP JUMP JUMPDEST PUSH0 PUSH1 0x80 DUP3 ADD SWAP1 POP PUSH2 0x2935 PUSH0 DUP4 ADD DUP8 PUSH2 0x20EE JUMP JUMPDEST PUSH2 0x2942 PUSH1 0x20 DUP4 ADD DUP7 PUSH2 0x20EE JUMP JUMPDEST PUSH2 0x294F PUSH1 0x40 DUP4 ADD DUP6 PUSH2 0x2088 JUMP JUMPDEST PUSH2 0x295C PUSH1 0x60 DUP4 ADD DUP5 PUSH2 0x2088 JUMP JUMPDEST SWAP6 SWAP5 POP POP POP POP POP JUMP JUMPDEST PUSH32 0x416C726561647920696E697469616C697A656400000000000000000000000000 PUSH0 DUP3 ADD MSTORE POP JUMP JUMPDEST PUSH0 PUSH2 0x2999 PUSH1 0x13 DUP4 PUSH2 0x24BE JUMP JUMPDEST SWAP2 POP PUSH2 0x29A4 DUP3 PUSH2 0x2965 JUMP JUMPDEST PUSH1 0x20 DUP3 ADD SWAP1 POP SWAP2 SWAP1 POP JUMP JUMPDEST PUSH0 PUSH1 0x20 DUP3 ADD SWAP1 POP DUP2 DUP2 SUB PUSH0 DUP4 ADD MSTORE PUSH2 0x29C6 DUP2 PUSH2 0x298D JUMP JUMPDEST SWAP1 POP SWAP2 SWAP1 POP JUMP JUMPDEST PUSH32 0x4964656E746963616C20746F6B656E7300000000000000000000000000000000 PUSH0 DUP3 ADD MSTORE POP JUMP JUMPDEST PUSH0 PUSH2 0x2A01 PUSH1 0x10 DUP4 PUSH2 0x24BE JUMP JUMPDEST SWAP2 POP PUSH2 0x2A0C DUP3 PUSH2 0x29CD JUMP JUMPDEST PUSH1 0x20 DUP3 ADD SWAP1 POP SWAP2 SWAP1 POP JUMP JUMPDEST PUSH0 PUSH1 0x20 DUP3 ADD SWAP1 POP DUP2 DUP2 SUB PUSH0 DUP4 ADD MSTORE PUSH2 0x2A2E DUP2 PUSH2 0x29F5 JUMP JUMPDEST SWAP1 POP SWAP2 SWAP1 POP JUMP JUMPDEST PUSH32 0x4E6F206C69717569646974790000000000000000000000000000000000000000 PUSH0 DUP3 ADD MSTORE POP JUMP JUMPDEST PUSH0 PUSH2 0x2A69 PUSH1 0xC DUP4 PUSH2 0x24BE JUMP JUMPDEST SWAP2 POP PUSH2 0x2A74 DUP3 PUSH2 0x2A35 JUMP JUMPDEST PUSH1 0x20 DUP3 ADD SWAP1 POP SWAP2 SWAP1 POP JUMP JUMPDEST PUSH0 PUSH1 0x20 DUP3 ADD SWAP1 POP DUP2 DUP2 SUB PUSH0 DUP4 ADD MSTORE PUSH2 0x2A96 DUP2 PUSH2 0x2A5D JUMP JUMPDEST SWAP1 POP SWAP2 SWAP1 POP JUMP JUMPDEST PUSH0 PUSH2 0x2AA7 DUP3 PUSH2 0x207F JUMP JUMPDEST SWAP2 POP PUSH2 0x2AB2 DUP4 PUSH2 0x207F JUMP JUMPDEST SWAP3 POP DUP3 DUP3 MUL PUSH2 0x2AC0 DUP2 PUSH2 0x207F JUMP JUMPDEST SWAP2 POP DUP3 DUP3 DIV DUP5 EQ DUP4 ISZERO OR PUSH2 0x2AD7 JUMPI PUSH2 0x2AD6 PUSH2 0x288F JUMP JUMPDEST JUMPDEST POP SWAP3 SWAP2 POP POP JUMP JUMPDEST PUSH32 0x4E487B7100000000000000000000000000000000000000000000000000000000 PUSH0 MSTORE PUSH1 0x12 PUSH1 0x4 MSTORE PUSH1 0x24 PUSH0 REVERT JUMPDEST PUSH0 PUSH2 0x2B15 DUP3 PUSH2 0x207F JUMP JUMPDEST SWAP2 POP PUSH2 0x2B20 DUP4 PUSH2 0x207F JUMP JUMPDEST SWAP3 POP DUP3 PUSH2 0x2B30 JUMPI PUSH2 0x2B2F PUSH2 0x2ADE JUMP JUMPDEST JUMPDEST DUP3 DUP3 DIV SWAP1 POP SWAP3 SWAP2 POP POP JUMP JUMPDEST PUSH32 0x496E76616C696420746F6B656E73000000000000000000000000000000000000 PUSH0 DUP3 ADD MSTORE POP JUMP JUMPDEST PUSH0 PUSH2 0x2B6F PUSH1 0xE DUP4 PUSH2 0x24BE JUMP JUMPDEST SWAP2 POP PUSH2 0x2B7A DUP3 PUSH2 0x2B3B JUMP JUMPDEST PUSH1 0x20 DUP3 ADD SWAP1 POP SWAP2 SWAP1 POP JUMP JUMPDEST PUSH0 PUSH1 0x20 DUP3 ADD SWAP1 POP DUP2 DUP2 SUB PUSH0 DUP4 ADD MSTORE PUSH2 0x2B9C DUP2 PUSH2 0x2B63 JUMP JUMPDEST SWAP1 POP SWAP2 SWAP1 POP JUMP JUMPDEST PUSH32 0x496E76616C696420616D6F756E74000000000000000000000000000000000000 PUSH0 DUP3 ADD MSTORE POP JUMP JUMPDEST PUSH0 PUSH2 0x2BD7 PUSH1 0xE DUP4 PUSH2 0x24BE JUMP JUMPDEST SWAP2 POP PUSH2 0x2BE2 DUP3 PUSH2 0x2BA3 JUMP JUMPDEST PUSH1 0x20 DUP3 ADD SWAP1 POP SWAP2 SWAP1 POP JUMP JUMPDEST PUSH0 PUSH1 0x20 DUP3 ADD SWAP1 POP DUP2 DUP2 SUB PUSH0 DUP4 ADD MSTORE PUSH2 0x2C04 DUP2 PUSH2 0x2BCB JUMP JUMPDEST SWAP1 POP SWAP2 SWAP1 POP JUMP JUMPDEST PUSH32 0x496E73756666696369656E742062616C616E6365000000000000000000000000 PUSH0 DUP3 ADD MSTORE POP JUMP JUMPDEST PUSH0 PUSH2 0x2C3F PUSH1 0x14 DUP4 PUSH2 0x24BE JUMP JUMPDEST SWAP2 POP PUSH2 0x2C4A DUP3 PUSH2 0x2C0B JUMP JUMPDEST PUSH1 0x20 DUP3 ADD SWAP1 POP SWAP2 SWAP1 POP JUMP JUMPDEST PUSH0 PUSH1 0x20 DUP3 ADD SWAP1 POP DUP2 DUP2 SUB PUSH0 DUP4 ADD MSTORE PUSH2 0x2C6C DUP2 PUSH2 0x2C33 JUMP JUMPDEST SWAP1 POP SWAP2 SWAP1 POP JUMP JUMPDEST PUSH32 0x496E73756666696369656E74204120616D6F756E740000000000000000000000 PUSH0 DUP3 ADD MSTORE POP JUMP JUMPDEST PUSH0 PUSH2 0x2CA7 PUSH1 0x15 DUP4 PUSH2 0x24BE JUMP JUMPDEST SWAP2 POP PUSH2 0x2CB2 DUP3 PUSH2 0x2C73 JUMP JUMPDEST PUSH1 0x20 DUP3 ADD SWAP1 POP SWAP2 SWAP1 POP JUMP JUMPDEST PUSH0 PUSH1 0x20 DUP3 ADD SWAP1 POP DUP2 DUP2 SUB PUSH0 DUP4 ADD MSTORE PUSH2 0x2CD4 DUP2 PUSH2 0x2C9B JUMP JUMPDEST SWAP1 POP SWAP2 SWAP1 POP JUMP JUMPDEST PUSH32 0x496E73756666696369656E74204220616D6F756E740000000000000000000000 PUSH0 DUP3 ADD MSTORE POP JUMP JUMPDEST PUSH0 PUSH2 0x2D0F PUSH1 0x15 DUP4 PUSH2 0x24BE JUMP JUMPDEST SWAP2 POP PUSH2 0x2D1A DUP3 PUSH2 0x2CDB JUMP JUMPDEST PUSH1 0x20 DUP3 ADD SWAP1 POP SWAP2 SWAP1 POP JUMP JUMPDEST PUSH0 PUSH1 0x20 DUP3 ADD SWAP1 POP DUP2 DUP2 SUB PUSH0 DUP4 ADD MSTORE PUSH2 0x2D3C DUP2 PUSH2 0x2D03 JUMP JUMPDEST SWAP1 POP SWAP2 SWAP1 POP JUMP JUMPDEST PUSH32 0x496E73756666696369656E74206C697175696469747900000000000000000000 PUSH0 DUP3 ADD MSTORE POP JUMP JUMPDEST PUSH0 PUSH2 0x2D77 PUSH1 0x16 DUP4 PUSH2 0x24BE JUMP JUMPDEST SWAP2 POP PUSH2 0x2D82 DUP3 PUSH2 0x2D43 JUMP JUMPDEST PUSH1 0x20 DUP3 ADD SWAP1 POP SWAP2 SWAP1 POP JUMP JUMPDEST PUSH0 PUSH1 0x20 DUP3 ADD SWAP1 POP DUP2 DUP2 SUB PUSH0 DUP4 ADD MSTORE PUSH2 0x2DA4 DUP2 PUSH2 0x2D6B JUMP JUMPDEST SWAP1 POP SWAP2 SWAP1 POP JUMP JUMPDEST PUSH32 0x496E76616C696420726573657276657300000000000000000000000000000000 PUSH0 DUP3 ADD MSTORE POP JUMP JUMPDEST PUSH0 PUSH2 0x2DDF PUSH1 0x10 DUP4 PUSH2 0x24BE JUMP JUMPDEST SWAP2 POP PUSH2 0x2DEA DUP3 PUSH2 0x2DAB JUMP JUMPDEST PUSH1 0x20 DUP3 ADD SWAP1 POP SWAP2 SWAP1 POP JUMP JUMPDEST PUSH0 PUSH1 0x20 DUP3 ADD SWAP1 POP DUP2 DUP2 SUB PUSH0 DUP4 ADD MSTORE PUSH2 0x2E0C DUP2 PUSH2 0x2DD3 JUMP JUMPDEST SWAP1 POP SWAP2 SWAP1 POP JUMP INVALID LOG2 PUSH5 0x6970667358 0x22 SLT KECCAK256 PREVRANDAO MSTORE8 0xAF BLOBHASH RETURN DUP2 0xA5 XOR SWAP12 MUL EXTCODEHASH PUSH15 0x379040C6A8FFB3E292C148C7EF2CEC ORIGIN BASEFEE CALLCODE PUSH28 0xAD64736F6C634300081E003300000000000000000000000000000000 "
				},
				"gasEstimates": {
					"creation": {
						"codeDepositCost": "2369800",
						"executionCost": "2543",
						"totalCost": "2372343"
					},
					"external": {
						"addLiquidity(address,address,uint256,uint256,uint256,uint256,address,uint256)": "infinite",
						"balanceOf(address)": "2869",
						"getAmountOut(address,address,uint256)": "infinite",
						"getPrice(address,address)": "infinite",
						"getReserves()": "infinite",
						"initialize(address,address)": "infinite",
						"removeLiquidity(address,address,uint256,uint256,uint256,address,uint256)": "infinite",
						"reserveA()": "2491",
						"reserveB()": "2492",
						"swapExactTokensForTokens(uint256,uint256,address[],address,uint256)": "infinite",
						"tokenA()": "2530",
						"tokenB()": "2553",
						"totalSupply()": "2470"
					},
					"internal": {
						"_calculateLiquidityAmounts(uint256,uint256,uint256,uint256)": "infinite",
						"_getAmountOut(uint256,uint256,uint256)": "infinite",
						"_min(uint256,uint256)": "63",
						"_sqrt(uint256)": "infinite"
					}
				},
				"methodIdentifiers": {
					"addLiquidity(address,address,uint256,uint256,uint256,uint256,address,uint256)": "e8e33700",
					"balanceOf(address)": "70a08231",
					"getAmountOut(address,address,uint256)": "4aa06652",
					"getPrice(address,address)": "ac41865a",
					"getReserves()": "0902f1ac",
					"initialize(address,address)": "485cc955",
					"removeLiquidity(address,address,uint256,uint256,uint256,address,uint256)": "baa2abde",
					"reserveA()": "dc5fa6c5",
					"reserveB()": "19e36f3b",
					"swapExactTokensForTokens(uint256,uint256,address[],address,uint256)": "38ed1739",
					"tokenA()": "0fc63d10",
					"tokenB()": "5f64b55b",
					"totalSupply()": "18160ddd"
				}
			},
			"storageLayout": {
				"storage": [
					{
						"astId": 55,
						"contract": "contracts/SimpleSwap.sol:SimpleSwap",
						"label": "tokenA",
						"offset": 0,
						"slot": "0",
						"type": "t_address"
					},
					{
						"astId": 57,
						"contract": "contracts/SimpleSwap.sol:SimpleSwap",
						"label": "tokenB",
						"offset": 0,
						"slot": "1",
						"type": "t_address"
					},
					{
						"astId": 59,
						"contract": "contracts/SimpleSwap.sol:SimpleSwap",
						"label": "reserveA",
						"offset": 0,
						"slot": "2",
						"type": "t_uint256"
					},
					{
						"astId": 61,
						"contract": "contracts/SimpleSwap.sol:SimpleSwap",
						"label": "reserveB",
						"offset": 0,
						"slot": "3",
						"type": "t_uint256"
					},
					{
						"astId": 63,
						"contract": "contracts/SimpleSwap.sol:SimpleSwap",
						"label": "totalSupply",
						"offset": 0,
						"slot": "4",
						"type": "t_uint256"
					},
					{
						"astId": 67,
						"contract": "contracts/SimpleSwap.sol:SimpleSwap",
						"label": "balanceOf",
						"offset": 0,
						"slot": "5",
						"type": "t_mapping(t_address,t_uint256)"
					}
				],
				"types": {
					"t_address": {
						"encoding": "inplace",
						"label": "address",
						"numberOfBytes": "20"
					},
					"t_mapping(t_address,t_uint256)": {
						"encoding": "mapping",
						"key": "t_address",
						"label": "mapping(address => uint256)",
						"numberOfBytes": "32",
						"value": "t_uint256"
					},
					"t_uint256": {
						"encoding": "inplace",
						"label": "uint256",
						"numberOfBytes": "32"
					}
				}
			},
			"userdoc": {
				"kind": "user",
				"methods": {
					"addLiquidity(address,address,uint256,uint256,uint256,uint256,address,uint256)": {
						"notice": "Adds liquidity to the pool"
					},
					"getAmountOut(address,address,uint256)": {
						"notice": "Calculates the amount of tokens to receive for a given input"
					},
					"getPrice(address,address)": {
						"notice": "Gets the price of token A in terms of token B"
					},
					"getReserves()": {
						"notice": "Gets current reserves"
					},
					"initialize(address,address)": {
						"notice": "Initializes the token pair"
					},
					"removeLiquidity(address,address,uint256,uint256,uint256,address,uint256)": {
						"notice": "Removes liquidity from the pool"
					},
					"swapExactTokensForTokens(uint256,uint256,address[],address,uint256)": {
						"notice": "Swaps an exact amount of input tokens for output tokens"
					}
				},
				"notice": "A simplified DEX for a single token pair",
				"version": 1
			}
		}
	}
}